{"contracts/EnterpriseLicenseNFT.sol":{"EnterpriseLicenseNFT":{"abi":[{"inputs":[{"internalType":"address","name":"admin","type":"address"},{"internalType":"address","name":"stableToken_","type":"address"},{"internalType":"address","name":"treasury_","type":"address"}],"stateMutability":"nonpayable","type":"constructor"},{"inputs":[],"name":"AccessControlBadConfirmation","type":"error"},{"inputs":[{"internalType":"address","name":"account","type":"address"},{"internalType":"bytes32","name":"neededRole","type":"bytes32"}],"name":"AccessControlUnauthorizedAccount","type":"error"},{"inputs":[{"internalType":"address","name":"sender","type":"address"},{"internalType":"uint256","name":"tokenId","type":"uint256"},{"internalType":"address","name":"owner","type":"address"}],"name":"ERC721IncorrectOwner","type":"error"},{"inputs":[{"internalType":"address","name":"operator","type":"address"},{"internalType":"uint256","name":"tokenId","type":"uint256"}],"name":"ERC721InsufficientApproval","type":"error"},{"inputs":[{"internalType":"address","name":"approver","type":"address"}],"name":"ERC721InvalidApprover","type":"error"},{"inputs":[{"internalType":"address","name":"operator","type":"address"}],"name":"ERC721InvalidOperator","type":"error"},{"inputs":[{"internalType":"address","name":"owner","type":"address"}],"name":"ERC721InvalidOwner","type":"error"},{"inputs":[{"internalType":"address","name":"receiver","type":"address"}],"name":"ERC721InvalidReceiver","type":"error"},{"inputs":[{"internalType":"address","name":"sender","type":"address"}],"name":"ERC721InvalidSender","type":"error"},{"inputs":[{"internalType":"uint256","name":"tokenId","type":"uint256"}],"name":"ERC721NonexistentToken","type":"error"},{"inputs":[],"name":"EnforcedPause","type":"error"},{"inputs":[],"name":"ExpectedPause","type":"error"},{"inputs":[],"name":"ReentrancyGuardReentrantCall","type":"error"},{"anonymous":false,"inputs":[{"indexed":true,"internalType":"address","name":"owner","type":"address"},{"indexed":true,"internalType":"address","name":"approved","type":"address"},{"indexed":true,"internalType":"uint256","name":"tokenId","type":"uint256"}],"name":"Approval","type":"event"},{"anonymous":false,"inputs":[{"indexed":true,"internalType":"address","name":"owner","type":"address"},{"indexed":true,"internalType":"address","name":"operator","type":"address"},{"indexed":false,"internalType":"bool","name":"approved","type":"bool"}],"name":"ApprovalForAll","type":"event"},{"anonymous":false,"inputs":[{"indexed":true,"internalType":"uint256","name":"tokenId","type":"uint256"},{"indexed":true,"internalType":"bytes32","name":"planId","type":"bytes32"},{"indexed":true,"internalType":"address","name":"buyer","type":"address"},{"indexed":false,"internalType":"bool","name":"paidWithStable","type":"bool"},{"indexed":false,"internalType":"uint256","name":"amount","type":"uint256"},{"indexed":false,"internalType":"uint64","name":"validUntil","type":"uint64"},{"indexed":false,"internalType":"uint32","name":"seats","type":"uint32"}],"name":"LicensePurchased","type":"event"},{"anonymous":false,"inputs":[{"indexed":false,"internalType":"address","name":"account","type":"address"}],"name":"Paused","type":"event"},{"anonymous":false,"inputs":[{"indexed":true,"internalType":"bytes32","name":"role","type":"bytes32"},{"indexed":true,"internalType":"bytes32","name":"previousAdminRole","type":"bytes32"},{"indexed":true,"internalType":"bytes32","name":"newAdminRole","type":"bytes32"}],"name":"RoleAdminChanged","type":"event"},{"anonymous":false,"inputs":[{"indexed":true,"internalType":"bytes32","name":"role","type":"bytes32"},{"indexed":true,"internalType":"address","name":"account","type":"address"},{"indexed":true,"internalType":"address","name":"sender","type":"address"}],"name":"RoleGranted","type":"event"},{"anonymous":false,"inputs":[{"indexed":true,"internalType":"bytes32","name":"role","type":"bytes32"},{"indexed":true,"internalType":"address","name":"account","type":"address"},{"indexed":true,"internalType":"address","name":"sender","type":"address"}],"name":"RoleRevoked","type":"event"},{"anonymous":false,"inputs":[{"indexed":true,"internalType":"address","name":"from","type":"address"},{"indexed":true,"internalType":"address","name":"to","type":"address"},{"indexed":true,"internalType":"uint256","name":"tokenId","type":"uint256"}],"name":"Transfer","type":"event"},{"anonymous":false,"inputs":[{"indexed":false,"internalType":"address","name":"account","type":"address"}],"name":"Unpaused","type":"event"},{"inputs":[],"name":"DEFAULT_ADMIN_ROLE","outputs":[{"internalType":"bytes32","name":"","type":"bytes32"}],"stateMutability":"view","type":"function"},{"inputs":[],"name":"PAUSER_ROLE","outputs":[{"internalType":"bytes32","name":"","type":"bytes32"}],"stateMutability":"view","type":"function"},{"inputs":[],"name":"TREASURY_ROLE","outputs":[{"internalType":"bytes32","name":"","type":"bytes32"}],"stateMutability":"view","type":"function"},{"inputs":[{"internalType":"address","name":"to","type":"address"},{"internalType":"uint256","name":"tokenId","type":"uint256"}],"name":"approve","outputs":[],"stateMutability":"nonpayable","type":"function"},{"inputs":[{"internalType":"address","name":"owner","type":"address"}],"name":"balanceOf","outputs":[{"internalType":"uint256","name":"","type":"uint256"}],"stateMutability":"view","type":"function"},{"inputs":[{"internalType":"bytes32","name":"planId","type":"bytes32"},{"internalType":"address","name":"to","type":"address"},{"internalType":"uint32","name":"seats","type":"uint32"}],"name":"buyWithNative","outputs":[{"internalType":"uint256","name":"tokenId","type":"uint256"}],"stateMutability":"payable","type":"function"},{"inputs":[{"internalType":"bytes32","name":"planId","type":"bytes32"},{"internalType":"address","name":"to","type":"address"},{"internalType":"uint32","name":"seats","type":"uint32"}],"name":"buyWithStable","outputs":[{"internalType":"uint256","name":"tokenId","type":"uint256"}],"stateMutability":"nonpayable","type":"function"},{"inputs":[{"internalType":"uint256","name":"tokenId","type":"uint256"}],"name":"getApproved","outputs":[{"internalType":"address","name":"","type":"address"}],"stateMutability":"view","type":"function"},{"inputs":[{"internalType":"bytes32","name":"role","type":"bytes32"}],"name":"getRoleAdmin","outputs":[{"internalType":"bytes32","name":"","type":"bytes32"}],"stateMutability":"view","type":"function"},{"inputs":[{"internalType":"bytes32","name":"role","type":"bytes32"},{"internalType":"address","name":"account","type":"address"}],"name":"grantRole","outputs":[],"stateMutability":"nonpayable","type":"function"},{"inputs":[{"internalType":"bytes32","name":"role","type":"bytes32"},{"internalType":"address","name":"account","type":"address"}],"name":"hasRole","outputs":[{"internalType":"bool","name":"","type":"bool"}],"stateMutability":"view","type":"function"},{"inputs":[{"internalType":"address","name":"owner","type":"address"},{"internalType":"address","name":"operator","type":"address"}],"name":"isApprovedForAll","outputs":[{"internalType":"bool","name":"","type":"bool"}],"stateMutability":"view","type":"function"},{"inputs":[{"internalType":"uint256","name":"tokenId","type":"uint256"}],"name":"isLicenseActive","outputs":[{"internalType":"bool","name":"","type":"bool"}],"stateMutability":"view","type":"function"},{"inputs":[{"internalType":"uint256","name":"","type":"uint256"}],"name":"licenses","outputs":[{"internalType":"bytes32","name":"planId","type":"bytes32"},{"internalType":"uint64","name":"validUntil","type":"uint64"},{"internalType":"uint32","name":"seats","type":"uint32"}],"stateMutability":"view","type":"function"},{"inputs":[],"name":"name","outputs":[{"internalType":"string","name":"","type":"string"}],"stateMutability":"view","type":"function"},{"inputs":[{"internalType":"uint256","name":"tokenId","type":"uint256"}],"name":"ownerOf","outputs":[{"internalType":"address","name":"","type":"address"}],"stateMutability":"view","type":"function"},{"inputs":[],"name":"pause","outputs":[],"stateMutability":"nonpayable","type":"function"},{"inputs":[],"name":"paused","outputs":[{"internalType":"bool","name":"","type":"bool"}],"stateMutability":"view","type":"function"},{"inputs":[{"internalType":"bytes32","name":"","type":"bytes32"}],"name":"plans","outputs":[{"internalType":"uint256","name":"nativePrice","type":"uint256"},{"internalType":"uint256","name":"stablePrice","type":"uint256"},{"internalType":"uint64","name":"durationSeconds","type":"uint64"},{"internalType":"bool","name":"enabled","type":"bool"}],"stateMutability":"view","type":"function"},{"inputs":[{"internalType":"bytes32","name":"role","type":"bytes32"},{"internalType":"address","name":"callerConfirmation","type":"address"}],"name":"renounceRole","outputs":[],"stateMutability":"nonpayable","type":"function"},{"inputs":[{"internalType":"bytes32","name":"role","type":"bytes32"},{"internalType":"address","name":"account","type":"address"}],"name":"revokeRole","outputs":[],"stateMutability":"nonpayable","type":"function"},{"inputs":[{"internalType":"address","name":"from","type":"address"},{"internalType":"address","name":"to","type":"address"},{"internalType":"uint256","name":"tokenId","type":"uint256"}],"name":"safeTransferFrom","outputs":[],"stateMutability":"nonpayable","type":"function"},{"inputs":[{"internalType":"address","name":"from","type":"address"},{"internalType":"address","name":"to","type":"address"},{"internalType":"uint256","name":"tokenId","type":"uint256"},{"internalType":"bytes","name":"data","type":"bytes"}],"name":"safeTransferFrom","outputs":[],"stateMutability":"nonpayable","type":"function"},{"inputs":[{"internalType":"address","name":"operator","type":"address"},{"internalType":"bool","name":"approved","type":"bool"}],"name":"setApprovalForAll","outputs":[],"stateMutability":"nonpayable","type":"function"},{"inputs":[{"internalType":"bytes32","name":"planId","type":"bytes32"},{"internalType":"uint256","name":"nativePrice","type":"uint256"},{"internalType":"uint256","name":"stablePrice","type":"uint256"},{"internalType":"uint64","name":"durationSeconds","type":"uint64"},{"internalType":"bool","name":"enabled","type":"bool"}],"name":"setPlan","outputs":[],"stateMutability":"nonpayable","type":"function"},{"inputs":[{"internalType":"address","name":"treasury_","type":"address"}],"name":"setTreasury","outputs":[],"stateMutability":"nonpayable","type":"function"},{"inputs":[],"name":"stableToken","outputs":[{"internalType":"contract IERC20","name":"","type":"address"}],"stateMutability":"view","type":"function"},{"inputs":[{"internalType":"bytes4","name":"interfaceId","type":"bytes4"}],"name":"supportsInterface","outputs":[{"internalType":"bool","name":"","type":"bool"}],"stateMutability":"view","type":"function"},{"inputs":[],"name":"symbol","outputs":[{"internalType":"string","name":"","type":"string"}],"stateMutability":"view","type":"function"},{"inputs":[{"internalType":"uint256","name":"tokenId","type":"uint256"}],"name":"tokenURI","outputs":[{"internalType":"string","name":"","type":"string"}],"stateMutability":"view","type":"function"},{"inputs":[{"internalType":"address","name":"from","type":"address"},{"internalType":"address","name":"to","type":"address"},{"internalType":"uint256","name":"tokenId","type":"uint256"}],"name":"transferFrom","outputs":[],"stateMutability":"nonpayable","type":"function"},{"inputs":[],"name":"treasury","outputs":[{"internalType":"address","name":"","type":"address"}],"stateMutability":"view","type":"function"},{"inputs":[],"name":"unpause","outputs":[],"stateMutability":"nonpayable","type":"function"}],"evm":{"bytecode":{"linkReferences":{},"object":"60a060405234610477576123626060813803918261001c8161047b565b93849283398101031261047757610032816104a0565b61004a6040610043602085016104a0565b93016104a0565b90610055604061047b565b92601884527f42686f6f6c20456e7465727072697365204c6963656e73650000000000000000602085015261008a604061047b565b600581526404248454c560dc1b6020820152845190946001600160401b03821161037e575f5490600182811c9216801561046d575b60208310146103605781601f849311610400575b50602090601f831160011461039d575f92610392575b50508160011b915f199060031b1c1916175f555b83516001600160401b03811161037e57600154600181811c91168015610374575b602082101461036057601f81116102fd575b50602094601f821160011461029a579481929394955f9261028f575b50508160011b915f199060031b1c1916176001555b60017f9b779b17422d0df92223018b32b4d1fa46e071723d6817e2486d003becc55f008190556008556001600160a01b031691821561024a576001600160a01b038116156102125760809290925260078054610100600160a81b03191660089390931b610100600160a81b0316929092179091556101f2906101e2816104b4565b506101ec8161052a565b506105bd565b50604051611c919081610651823960805181818161054101526107bd0152f35b60405162461bcd60e51b815260206004820152601060248201526f496e76616c696420747265617375727960801b6044820152606490fd5b60405162461bcd60e51b815260206004820152601460248201527f496e76616c696420737461626c6520746f6b656e0000000000000000000000006044820152606490fd5b015190505f8061014c565b601f1982169560015f52805f20915f5b8881106102e5575083600195969798106102cd575b505050811b01600155610161565b01515f1960f88460031b161c191690555f80806102bf565b919260206001819286850151815501940192016102aa565b60015f527fb10e2d527612073b26eecdfd717e6a320cf44b4afac2b0732d9fcbe2b7fa0cf6601f830160051c81019160208410610356575b601f0160051c01905b81811061034b5750610130565b5f815560010161033e565b9091508190610335565b634e487b7160e01b5f52602260045260245ffd5b90607f169061011e565b634e487b7160e01b5f52604160045260245ffd5b015190505f806100e9565b5f8080528281209350601f198516905b8181106103e857509084600195949392106103d0575b505050811b015f556100fd565b01515f1960f88460031b161c191690555f80806103c3565b929360206001819287860151815501950193016103ad565b5f80529091507f290decd9548b62a8d60345a988386fc84ba6bc95484008f6362f93160ef3e563601f840160051c81019160208510610463575b90601f859493920160051c01905b81811061045557506100d3565b5f8155849350600101610448565b909150819061043a565b91607f16916100bf565b5f80fd5b6040519190601f01601f191682016001600160401b0381118382101761037e57604052565b51906001600160a01b038216820361047757565b6001600160a01b0381165f9081525f80516020612342833981519152602052604090205460ff16610525576001600160a01b03165f8181525f8051602061234283398151915260205260408120805460ff191660011790553391905f805160206122e28339815191528180a4600190565b505f90565b6001600160a01b0381165f9081525f80516020612322833981519152602052604090205460ff16610525576001600160a01b03165f8181525f8051602061232283398151915260205260408120805460ff191660011790553391907fe1dcbdb91df27212a29bc27177c840cf2f819ecf2187432e1fac86c2dd5dfca9905f805160206122e28339815191529080a4600190565b6001600160a01b0381165f9081525f80516020612302833981519152602052604090205460ff16610525576001600160a01b03165f8181525f8051602061230283398151915260205260408120805460ff191660011790553391907f65d7a28e3265b37a6474929f336521b332c1681b933f6cb9f3376673440d862a905f805160206122e28339815191529080a460019056fe6080806040526004361015610012575f80fd5b5f905f3560e01c90816301ffc9a7146112015750806306fdde0314611149578063081812fc1461110d578063095ea7b31461102357806323b872dd1461100c578063248a9ca314610fd95780632f2ff15d14610f9b5780633379084514610f4e57806336568abe14610f0a5780633f4ba83a14610ea457806342842e0e14610e755780635c975abb14610e5357806361d027b314610e275780636352211e14610df75780636ebe77b214610cbc57806370a0823114610c6b5780638456cb5914610c1257806391d1485414610bc9578063927e38d2146109c257806395d89b41146108ba578063a217fddf146108a0578063a22cb465146107ec578063a9d75b2b146107a8578063aa4f265314610750578063b88d4fde146106bb578063bd318e2814610459578063c87b56dd146103fc578063d11a57ec146103c1578063d547741f14610379578063e63ab1e91461033e578063e705c2b8146102d9578063e985e9c5146102815763f0f4426014610189575f80fd5b3461027e57602036600319011261027e576101a26112aa565b335f9081527f21b746f97e1679a3e88a18d3dec6befa7bbc6f2977a2ecb1c7917139835d6aee602052604090205460ff1615610247576001600160a01b0381161561020f5760078054610100600160a81b03191660089290921b610100600160a81b031691909117905580f35b60405162461bcd60e51b815260206004820152601060248201526f496e76616c696420747265617375727960801b6044820152606490fd5b63e2517d3f60e01b5f52336004527fe1dcbdb91df27212a29bc27177c840cf2f819ecf2187432e1fac86c2dd5dfca960245260445ffd5b80fd5b503461027e57604036600319011261027e57604061029d6112aa565b916102a66112c0565b9260018060a01b031681526005602052209060018060a01b03165f52602052602060ff60405f2054166040519015158152f35b503461027e57602036600319011261027e57602090600435908181526002835260018060a01b036040822054161515918261031b575b50506040519015158152f35b8152600a835260409020600101546001600160401b031642111590505f8061030f565b503461027e578060031936011261027e5760206040517f65d7a28e3265b37a6474929f336521b332c1681b933f6cb9f3376673440d862a8152f35b503461027e57604036600319011261027e576103bd6004356103996112c0565b906103b86103b3825f526006602052600160405f20015490565b61169d565b611763565b5080f35b503461027e578060031936011261027e5760206040517fe1dcbdb91df27212a29bc27177c840cf2f819ecf2187432e1fac86c2dd5dfca98152f35b34610455576020366003190112610455576104186004356115fa565b505f604051610428602082611376565b5261045160405161043a602082611376565b5f8152604051918291602083526020830190611286565b0390f35b5f80fd5b346104555761046736611310565b6104729291926117e7565b61047a61181f565b815f52600960205260405f20916040519161049483611347565b835483526104d2606060026001870154966020870197885201549460ff60408201966001600160401b038116885260401c1615159182910152611552565b83511561067657806001600160401b0363ffffffff6105029316946104f886151561158e565b511690868461183a565b9260018060a01b0360075460081c168151604051916323b872dd60e01b8352336004840152602483015260448201526020816064815f60018060a01b037f0000000000000000000000000000000000000000000000000000000000000000165af190811561066b575f91610630575b50156105f2577fcb3721f27e5357b9eae93b09eeccc5b1cdb125362224744f922dd4ebe68cc430608060209686935195845f52600a89526001600160401b03600160405f2001541660405197600189528a8901526040880152606087015260018060a01b031694a460015f80516020611c3c83398151915255604051908152f35b60405162461bcd60e51b815260206004820152601660248201527514dd18589b19481d1c985b9cd9995c8819985a5b195960521b6044820152606490fd5b90506020813d602011610663575b8161064b60209383611376565b81010312610455575180151581036104555786610571565b3d915061063e565b6040513d5f823e3d90fd5b60405162461bcd60e51b815260206004820152601760248201527f537461626c65207061796d656e742064697361626c65640000000000000000006044820152606490fd5b34610455576080366003190112610455576106d46112aa565b6106dc6112c0565b90604435606435926001600160401b03841161045557366023850112156104555783600401359261070c84611397565b9361071a6040519586611376565b8085523660248288010111610455576020815f92602461074e990183890137860101526107488383836113b2565b33611b3e565b005b34610455576020366003190112610455576004355f526009602052608060405f2060ff815491600260018201549101549060405193845260208401526001600160401b038116604084015260401c1615156060820152f35b34610455575f366003190112610455576040517f00000000000000000000000000000000000000000000000000000000000000006001600160a01b03168152602090f35b34610455576040366003190112610455576108056112aa565b6024359081151580920361045557331561088d576001600160a01b031690811561087a57335f52600560205260405f20825f5260205260405f2060ff1981541660ff83161790556040519081527f17307eab39ab6107e8899845ad3d59bd9653f200f220920489ca2b5937696c3160203392a3005b50630b61174360e31b5f5260045260245ffd5b63a9fbf51f60e01b5f525f60045260245ffd5b34610455575f3660031901126104555760206040515f8152f35b34610455575f366003190112610455576040515f6001548060011c906001811680156109b8575b6020831081146109a4578285529081156109805750600114610922575b6104518361090e81850382611376565b604051918291602083526020830190611286565b91905060015f527fb10e2d527612073b26eecdfd717e6a320cf44b4afac2b0732d9fcbe2b7fa0cf6915f905b8082106109665750909150810160200161090e6108fe565b91926001816020925483858801015201910190929161094e565b60ff191660208086019190915291151560051b8401909101915061090e90506108fe565b634e487b7160e01b5f52602260045260245ffd5b91607f16916108e1565b6109cb36611310565b6109d69291926117e7565b6109de61181f565b815f52600960205260405f20906002604051926109fa84611347565b8054845260018101546020850152015491610a3260ff60408301946001600160401b038116865260401c161515806060840152611552565b805115610b8457513403610b4b57806001600160401b0363ffffffff610a69931693610a5f85151561158e565b511690858561183a565b915f8080803460018060a01b0360075460081c165af1610a876115cb565b5015610b0657827fcb3721f27e5357b9eae93b09eeccc5b1cdb125362224744f922dd4ebe68cc4306080602096835f52600a88526001600160401b03600160405f2001541695604051965f8852348a8901526040880152606087015260018060a01b031694a460015f80516020611c3c83398151915255604051908152f35b60405162461bcd60e51b815260206004820152601860248201527f5472656173757279207472616e73666572206661696c656400000000000000006044820152606490fd5b60405162461bcd60e51b8152602060048201526011602482015270125b98dbdc9c9958dd081c185e5b595b9d607a1b6044820152606490fd5b60405162461bcd60e51b815260206004820152601760248201527f4e6174697665207061796d656e742064697361626c65640000000000000000006044820152606490fd5b3461045557604036600319011261045557610be26112c0565b6004355f52600660205260405f209060018060a01b03165f52602052602060ff60405f2054166040519015158152f35b34610455575f36600319011261045557610c2a61162e565b610c3261181f565b600160ff1960075416176007557f62e78cea01bee320cd4e420270b5ea74000d11b0c9f74754ebdbfc544b05a2586020604051338152a1005b34610455576020366003190112610455576001600160a01b03610c8c6112aa565b168015610ca9575f526003602052602060405f2054604051908152f35b6322718ad960e21b5f525f60045260245ffd5b346104555760a0366003190112610455576064356001600160401b0381168091036104555760843580151580910361045557335f9081527f54cdd369e4e8a8515e52ca72ec816c2101831ad1f18bf44102ed171459c9b4f8602052604090205460ff1615610de0578115610da7576001600160401b03806002604051610d4181611347565b602435815260208101604435815260408201968752606082019586526004355f52600960205260405f209151825551600182015501935116166001600160401b031983541617825551151560ff60401b82549160401b169060ff60401b19161790555f80f35b60405162461bcd60e51b8152602060048201526011602482015270111d5c985d1a5bdb881c995c5d5a5c9959607a1b6044820152606490fd5b63e2517d3f60e01b5f52336004525f60245260445ffd5b34610455576020366003190112610455576020610e156004356115fa565b6040516001600160a01b039091168152f35b34610455575f3660031901126104555760075460405160089190911c6001600160a01b03168152602090f35b34610455575f36600319011261045557602060ff600754166040519015158152f35b346104555761074e610e86366112d6565b9060405192610e96602085611376565b5f84526107488383836113b2565b34610455575f36600319011261045557610ebc61162e565b60075460ff811615610efb5760ff19166007557f5db9ee0a495bf2e6ff9c91a7834c1ba4fdd244a5e8aa4e537bd38aeae4b073aa6020604051338152a1005b638dfc202b60e01b5f5260045ffd5b3461045557604036600319011261045557610f236112c0565b336001600160a01b03821603610f3f5761074e90600435611763565b63334bd91960e11b5f5260045ffd5b34610455576020366003190112610455576004355f52600a602052606060405f2063ffffffff600182549201546040519283526001600160401b038116602084015260401c166040820152f35b346104555760403660031901126104555761074e600435610fba6112c0565b90610fd46103b3825f526006602052600160405f20015490565b6116d7565b346104555760203660031901126104555760206110046004355f526006602052600160405f20015490565b604051908152f35b346104555761074e61101d366112d6565b916113b2565b346104555760403660031901126104555761103c6112aa565b602435611048816115fa565b331515806110fa575b806110cd575b6110ba5781906001600160a01b0384811691167f8c5be1e5ebec7d5bd14f71427d1e84f3dd0314c0f7b2291e5b200ac8c7c3b9255f80a45f90815260046020526040902080546001600160a01b0319166001600160a01b03909216919091179055005b63a9fbf51f60e01b5f523360045260245ffd5b506001600160a01b0381165f90815260056020908152604080832033845290915290205460ff1615611057565b506001600160a01b038116331415611051565b346104555760203660031901126104555760043561112a816115fa565b505f526004602052602060018060a01b0360405f205416604051908152f35b34610455575f366003190112610455576040515f80548060011c906001811680156111f7575b6020831081146109a457828552908115610980575060011461119b576104518361090e81850382611376565b5f8080527f290decd9548b62a8d60345a988386fc84ba6bc95484008f6362f93160ef3e563939250905b8082106111dd5750909150810160200161090e6108fe565b9192600181602092548385880101520191019092916111c5565b91607f169161116f565b34610455576020366003190112610455576004359063ffffffff60e01b821680920361045557602091637965db0b60e01b8114908115611243575b5015158152f35b6380ac58cd60e01b811491508115611275575b8115611264575b508361123c565b6301ffc9a760e01b1490508361125d565b635b5e139f60e01b81149150611256565b805180835260209291819084018484015e5f828201840152601f01601f1916010190565b600435906001600160a01b038216820361045557565b602435906001600160a01b038216820361045557565b6060906003190112610455576004356001600160a01b038116810361045557906024356001600160a01b0381168103610455579060443590565b606090600319011261045557600435906024356001600160a01b0381168103610455579060443563ffffffff811681036104555790565b608081019081106001600160401b0382111761136257604052565b634e487b7160e01b5f52604160045260245ffd5b90601f801991011681019081106001600160401b0382111761136257604052565b6001600160401b03811161136257601f01601f191660200190565b6001600160a01b039091169190821561153f575f828152600260205260409020546001600160a01b0316928290331515806114aa575b5084611477575b805f52600360205260405f2060018154019055815f52600260205260405f20816bffffffffffffffffffffffff60a01b825416179055847fddf252ad1be2c89b69c2b068fc378daa952ba7f163c4a11628f55a4df523b3ef5f80a46001600160a01b031680830361145f57505050565b6364283d7b60e01b5f5260045260245260445260645ffd5b5f82815260046020526040902080546001600160a01b0319169055845f52600360205260405f205f1981540190556113ef565b909150806114ee575b156114c05782905f6113e8565b82846114d857637e27328960e01b5f5260045260245ffd5b63177e802f60e01b5f523360045260245260445ffd5b50338414801561151d575b806114b357505f838152600460205260409020546001600160a01b031633146114b3565b505f84815260056020908152604080832033845290915290205460ff166114f9565b633250574960e11b5f525f60045260245ffd5b1561155957565b60405162461bcd60e51b815260206004820152600d60248201526c141b185b88191a5cd8589b1959609a1b6044820152606490fd5b1561159557565b60405162461bcd60e51b815260206004820152600e60248201526d14d9585d1cc81c995c5d5a5c995960921b6044820152606490fd5b3d156115f5573d906115dc82611397565b916115ea6040519384611376565b82523d5f602084013e565b606090565b5f818152600260205260409020546001600160a01b031690811561161c575090565b637e27328960e01b5f5260045260245ffd5b335f9081527fe09f975e15f8f53f24cbbc282b13c40b84df485fcdb8d3997fa103dc5a4ef841602052604090205460ff161561166657565b63e2517d3f60e01b5f52336004527f65d7a28e3265b37a6474929f336521b332c1681b933f6cb9f3376673440d862a60245260445ffd5b5f81815260066020908152604080832033845290915290205460ff16156116c15750565b63e2517d3f60e01b5f523360045260245260445ffd5b5f8181526006602090815260408083206001600160a01b038616845290915290205460ff1661175d575f8181526006602090815260408083206001600160a01b0395909516808452949091528120805460ff19166001179055339291907f2f8788117e7eff1d82e926ec794901d17c78024a50270940304540a733656f0d9080a4600190565b50505f90565b5f8181526006602090815260408083206001600160a01b038616845290915290205460ff161561175d575f8181526006602090815260408083206001600160a01b0395909516808452949091528120805460ff19169055339291907ff6391f5c32d9c69d2a47ea670b442974b53935d1edc7fd64eb21e047a839171b9080a4600190565b60025f80516020611c3c83398151915254146118105760025f80516020611c3c83398151915255565b633ee5aeb560e01b5f5260045ffd5b60ff6007541661182b57565b63d93c066560e01b5f5260045ffd5b6001600160a01b03821694939192918515611b05576008549560018701808811611999576008556040516020956118718783611376565b5f8083528981526002885260409020546001600160a01b03168015159081611ad4575b84611abd575b8a5f526002895260405f20856bffffffffffffffffffffffff60a01b8254161790558a85827fddf252ad1be2c89b69c2b068fc378daa952ba7f163c4a11628f55a4df523b3ef5f80a450611aaa573b6119ad575b50506001600160401b03166001600160401b03421601926001600160401b038411611999576040519160608301928084106001600160401b0385111761136257600a6001600160401b03949360019386956040528352848184019816885263ffffffff6040840197168752895f525260405f209051815501935116166001600160401b03198354161782555163ffffffff60401b82549160401b169063ffffffff60401b1916179055565b634e487b7160e01b5f52601160045260245ffd5b856119ee91604099979896959493995180938192630a85bd0160e11b83523360048401525f60248401528a6044840152608060648401526084830190611286565b03815f8c5af15f9181611a6a575b50611a2a578787611a0b6115cb565b8051919082611a275783633250574960e11b5f5260045260245ffd5b01fd5b630a85bd0160e198929394959796981b9063ffffffff60e01b1603611a5857506001600160401b035f6118ee565b633250574960e11b5f5260045260245ffd5b9091508781813d8311611aa3575b611a828183611376565b8101031261045557516001600160e01b03198116810361045557905f6119fc565b503d611a78565b6339e3563760e11b5f525f60045260245ffd5b845f526003895260405f206001815401905561189a565b5f8b81526004602052604080822080546001600160a01b031916905582825260038b52902080545f19019055611894565b60405162461bcd60e51b8152602060048201526011602482015270125b9d985b1a59081c9958da5c1a595b9d607a1b6044820152606490fd5b823b611b4c575b5050505050565b604051630a85bd0160e11b81526001600160a01b039182166004820152918116602483015260448201939093526080606482015291169160209082908190611b98906084830190611286565b03815f865af15f9181611bf6575b50611bd45750611bb46115cb565b80519081611bcf5782633250574960e11b5f5260045260245ffd5b602001fd5b6001600160e01b03191663757a42ff60e11b01611a5857505f80808080611b45565b9091506020813d602011611c33575b81611c1260209383611376565b8101031261045557516001600160e01b03198116810361045557905f611ba6565b3d9150611c0556fe9b779b17422d0df92223018b32b4d1fa46e071723d6817e2486d003becc55f00a26469706673582212204c125281841a8dceaa2a35028e63a68a4dc43f7aaae77b2b917abcfdf381708964736f6c634300081a00332f8788117e7eff1d82e926ec794901d17c78024a50270940304540a733656f0de09f975e15f8f53f24cbbc282b13c40b84df485fcdb8d3997fa103dc5a4ef84121b746f97e1679a3e88a18d3dec6befa7bbc6f2977a2ecb1c7917139835d6aee54cdd369e4e8a8515e52ca72ec816c2101831ad1f18bf44102ed171459c9b4f8","opcodes":"PUSH1 0xA0 PUSH1 0x40 MSTORE CALLVALUE PUSH2 0x477 JUMPI PUSH2 0x2362 PUSH1 0x60 DUP2 CODESIZE SUB SWAP2 DUP3 PUSH2 0x1C DUP2 PUSH2 0x47B JUMP JUMPDEST SWAP4 DUP5 SWAP3 DUP4 CODECOPY DUP2 ADD SUB SLT PUSH2 0x477 JUMPI PUSH2 0x32 DUP2 PUSH2 0x4A0 JUMP JUMPDEST PUSH2 0x4A PUSH1 0x40 PUSH2 0x43 PUSH1 0x20 DUP6 ADD PUSH2 0x4A0 JUMP JUMPDEST SWAP4 ADD PUSH2 0x4A0 JUMP JUMPDEST SWAP1 PUSH2 0x55 PUSH1 0x40 PUSH2 0x47B JUMP JUMPDEST SWAP3 PUSH1 0x18 DUP5 MSTORE PUSH32 0x42686F6F6C20456E7465727072697365204C6963656E73650000000000000000 PUSH1 0x20 DUP6 ADD MSTORE PUSH2 0x8A PUSH1 0x40 PUSH2 0x47B JUMP JUMPDEST PUSH1 0x5 DUP2 MSTORE PUSH5 0x4248454C5 PUSH1 0xDC SHL PUSH1 0x20 DUP3 ADD MSTORE DUP5 MLOAD SWAP1 SWAP5 PUSH1 0x1 PUSH1 0x1 PUSH1 0x40 SHL SUB DUP3 GT PUSH2 0x37E JUMPI PUSH0 SLOAD SWAP1 PUSH1 0x1 DUP3 DUP2 SHR SWAP3 AND DUP1 ISZERO PUSH2 0x46D JUMPI JUMPDEST PUSH1 0x20 DUP4 LT EQ PUSH2 0x360 JUMPI DUP2 PUSH1 0x1F DUP5 SWAP4 GT PUSH2 0x400 JUMPI JUMPDEST POP PUSH1 0x20 SWAP1 PUSH1 0x1F DUP4 GT PUSH1 0x1 EQ PUSH2 0x39D JUMPI PUSH0 SWAP3 PUSH2 0x392 JUMPI JUMPDEST POP POP DUP2 PUSH1 0x1 SHL SWAP2 PUSH0 NOT SWAP1 PUSH1 0x3 SHL SHR NOT AND OR PUSH0 SSTORE JUMPDEST DUP4 MLOAD PUSH1 0x1 PUSH1 0x1 PUSH1 0x40 SHL SUB DUP2 GT PUSH2 0x37E JUMPI PUSH1 0x1 SLOAD PUSH1 0x1 DUP2 DUP2 SHR SWAP2 AND DUP1 ISZERO PUSH2 0x374 JUMPI JUMPDEST PUSH1 0x20 DUP3 LT EQ PUSH2 0x360 JUMPI PUSH1 0x1F DUP2 GT PUSH2 0x2FD JUMPI JUMPDEST POP PUSH1 0x20 SWAP5 PUSH1 0x1F DUP3 GT PUSH1 0x1 EQ PUSH2 0x29A JUMPI SWAP5 DUP2 SWAP3 SWAP4 SWAP5 SWAP6 PUSH0 SWAP3 PUSH2 0x28F JUMPI JUMPDEST POP POP DUP2 PUSH1 0x1 SHL SWAP2 PUSH0 NOT SWAP1 PUSH1 0x3 SHL SHR NOT AND OR PUSH1 0x1 SSTORE JUMPDEST PUSH1 0x1 PUSH32 0x9B779B17422D0DF92223018B32B4D1FA46E071723D6817E2486D003BECC55F00 DUP2 SWAP1 SSTORE PUSH1 0x8 SSTORE PUSH1 0x1 PUSH1 0x1 PUSH1 0xA0 SHL SUB AND SWAP2 DUP3 ISZERO PUSH2 0x24A JUMPI PUSH1 0x1 PUSH1 0x1 PUSH1 0xA0 SHL SUB DUP2 AND ISZERO PUSH2 0x212 JUMPI PUSH1 0x80 SWAP3 SWAP1 SWAP3 MSTORE PUSH1 0x7 DUP1 SLOAD PUSH2 0x100 PUSH1 0x1 PUSH1 0xA8 SHL SUB NOT AND PUSH1 0x8 SWAP4 SWAP1 SWAP4 SHL PUSH2 0x100 PUSH1 0x1 PUSH1 0xA8 SHL SUB AND SWAP3 SWAP1 SWAP3 OR SWAP1 SWAP2 SSTORE PUSH2 0x1F2 SWAP1 PUSH2 0x1E2 DUP2 PUSH2 0x4B4 JUMP JUMPDEST POP PUSH2 0x1EC DUP2 PUSH2 0x52A JUMP JUMPDEST POP PUSH2 0x5BD JUMP JUMPDEST POP PUSH1 0x40 MLOAD PUSH2 0x1C91 SWAP1 DUP2 PUSH2 0x651 DUP3 CODECOPY PUSH1 0x80 MLOAD DUP2 DUP2 DUP2 PUSH2 0x541 ADD MSTORE PUSH2 0x7BD ADD MSTORE RETURN JUMPDEST PUSH1 0x40 MLOAD PUSH3 0x461BCD PUSH1 0xE5 SHL DUP2 MSTORE PUSH1 0x20 PUSH1 0x4 DUP3 ADD MSTORE PUSH1 0x10 PUSH1 0x24 DUP3 ADD MSTORE PUSH16 0x496E76616C6964207472656173757279 PUSH1 0x80 SHL PUSH1 0x44 DUP3 ADD MSTORE PUSH1 0x64 SWAP1 REVERT JUMPDEST PUSH1 0x40 MLOAD PUSH3 0x461BCD PUSH1 0xE5 SHL DUP2 MSTORE PUSH1 0x20 PUSH1 0x4 DUP3 ADD MSTORE PUSH1 0x14 PUSH1 0x24 DUP3 ADD MSTORE PUSH32 0x496E76616C696420737461626C6520746F6B656E000000000000000000000000 PUSH1 0x44 DUP3 ADD MSTORE PUSH1 0x64 SWAP1 REVERT JUMPDEST ADD MLOAD SWAP1 POP PUSH0 DUP1 PUSH2 0x14C JUMP JUMPDEST PUSH1 0x1F NOT DUP3 AND SWAP6 PUSH1 0x1 PUSH0 MSTORE DUP1 PUSH0 KECCAK256 SWAP2 PUSH0 JUMPDEST DUP9 DUP2 LT PUSH2 0x2E5 JUMPI POP DUP4 PUSH1 0x1 SWAP6 SWAP7 SWAP8 SWAP9 LT PUSH2 0x2CD JUMPI JUMPDEST POP POP POP DUP2 SHL ADD PUSH1 0x1 SSTORE PUSH2 0x161 JUMP JUMPDEST ADD MLOAD PUSH0 NOT PUSH1 0xF8 DUP5 PUSH1 0x3 SHL AND SHR NOT AND SWAP1 SSTORE PUSH0 DUP1 DUP1 PUSH2 0x2BF JUMP JUMPDEST SWAP2 SWAP3 PUSH1 0x20 PUSH1 0x1 DUP2 SWAP3 DUP7 DUP6 ADD MLOAD DUP2 SSTORE ADD SWAP5 ADD SWAP3 ADD PUSH2 0x2AA JUMP JUMPDEST PUSH1 0x1 PUSH0 MSTORE PUSH32 0xB10E2D527612073B26EECDFD717E6A320CF44B4AFAC2B0732D9FCBE2B7FA0CF6 PUSH1 0x1F DUP4 ADD PUSH1 0x5 SHR DUP2 ADD SWAP2 PUSH1 0x20 DUP5 LT PUSH2 0x356 JUMPI JUMPDEST PUSH1 0x1F ADD PUSH1 0x5 SHR ADD SWAP1 JUMPDEST DUP2 DUP2 LT PUSH2 0x34B JUMPI POP PUSH2 0x130 JUMP JUMPDEST PUSH0 DUP2 SSTORE PUSH1 0x1 ADD PUSH2 0x33E JUMP JUMPDEST SWAP1 SWAP2 POP DUP2 SWAP1 PUSH2 0x335 JUMP JUMPDEST PUSH4 0x4E487B71 PUSH1 0xE0 SHL PUSH0 MSTORE PUSH1 0x22 PUSH1 0x4 MSTORE PUSH1 0x24 PUSH0 REVERT JUMPDEST SWAP1 PUSH1 0x7F AND SWAP1 PUSH2 0x11E JUMP JUMPDEST PUSH4 0x4E487B71 PUSH1 0xE0 SHL PUSH0 MSTORE PUSH1 0x41 PUSH1 0x4 MSTORE PUSH1 0x24 PUSH0 REVERT JUMPDEST ADD MLOAD SWAP1 POP PUSH0 DUP1 PUSH2 0xE9 JUMP JUMPDEST PUSH0 DUP1 DUP1 MSTORE DUP3 DUP2 KECCAK256 SWAP4 POP PUSH1 0x1F NOT DUP6 AND SWAP1 JUMPDEST DUP2 DUP2 LT PUSH2 0x3E8 JUMPI POP SWAP1 DUP5 PUSH1 0x1 SWAP6 SWAP5 SWAP4 SWAP3 LT PUSH2 0x3D0 JUMPI JUMPDEST POP POP POP DUP2 SHL ADD PUSH0 SSTORE PUSH2 0xFD JUMP JUMPDEST ADD MLOAD PUSH0 NOT PUSH1 0xF8 DUP5 PUSH1 0x3 SHL AND SHR NOT AND SWAP1 SSTORE PUSH0 DUP1 DUP1 PUSH2 0x3C3 JUMP JUMPDEST SWAP3 SWAP4 PUSH1 0x20 PUSH1 0x1 DUP2 SWAP3 DUP8 DUP7 ADD MLOAD DUP2 SSTORE ADD SWAP6 ADD SWAP4 ADD PUSH2 0x3AD JUMP JUMPDEST PUSH0 DUP1 MSTORE SWAP1 SWAP2 POP PUSH32 0x290DECD9548B62A8D60345A988386FC84BA6BC95484008F6362F93160EF3E563 PUSH1 0x1F DUP5 ADD PUSH1 0x5 SHR DUP2 ADD SWAP2 PUSH1 0x20 DUP6 LT PUSH2 0x463 JUMPI JUMPDEST SWAP1 PUSH1 0x1F DUP6 SWAP5 SWAP4 SWAP3 ADD PUSH1 0x5 SHR ADD SWAP1 JUMPDEST DUP2 DUP2 LT PUSH2 0x455 JUMPI POP PUSH2 0xD3 JUMP JUMPDEST PUSH0 DUP2 SSTORE DUP5 SWAP4 POP PUSH1 0x1 ADD PUSH2 0x448 JUMP JUMPDEST SWAP1 SWAP2 POP DUP2 SWAP1 PUSH2 0x43A JUMP JUMPDEST SWAP2 PUSH1 0x7F AND SWAP2 PUSH2 0xBF JUMP JUMPDEST PUSH0 DUP1 REVERT JUMPDEST PUSH1 0x40 MLOAD SWAP2 SWAP1 PUSH1 0x1F ADD PUSH1 0x1F NOT AND DUP3 ADD PUSH1 0x1 PUSH1 0x1 PUSH1 0x40 SHL SUB DUP2 GT DUP4 DUP3 LT OR PUSH2 0x37E JUMPI PUSH1 0x40 MSTORE JUMP JUMPDEST MLOAD SWAP1 PUSH1 0x1 PUSH1 0x1 PUSH1 0xA0 SHL SUB DUP3 AND DUP3 SUB PUSH2 0x477 JUMPI JUMP JUMPDEST PUSH1 0x1 PUSH1 0x1 PUSH1 0xA0 SHL SUB DUP2 AND PUSH0 SWAP1 DUP2 MSTORE PUSH0 DUP1 MLOAD PUSH1 0x20 PUSH2 0x2342 DUP4 CODECOPY DUP2 MLOAD SWAP2 MSTORE PUSH1 0x20 MSTORE PUSH1 0x40 SWAP1 KECCAK256 SLOAD PUSH1 0xFF AND PUSH2 0x525 JUMPI PUSH1 0x1 PUSH1 0x1 PUSH1 0xA0 SHL SUB AND PUSH0 DUP2 DUP2 MSTORE PUSH0 DUP1 MLOAD PUSH1 0x20 PUSH2 0x2342 DUP4 CODECOPY DUP2 MLOAD SWAP2 MSTORE PUSH1 0x20 MSTORE PUSH1 0x40 DUP2 KECCAK256 DUP1 SLOAD PUSH1 0xFF NOT AND PUSH1 0x1 OR SWAP1 SSTORE CALLER SWAP2 SWAP1 PUSH0 DUP1 MLOAD PUSH1 0x20 PUSH2 0x22E2 DUP4 CODECOPY DUP2 MLOAD SWAP2 MSTORE DUP2 DUP1 LOG4 PUSH1 0x1 SWAP1 JUMP JUMPDEST POP PUSH0 SWAP1 JUMP JUMPDEST PUSH1 0x1 PUSH1 0x1 PUSH1 0xA0 SHL SUB DUP2 AND PUSH0 SWAP1 DUP2 MSTORE PUSH0 DUP1 MLOAD PUSH1 0x20 PUSH2 0x2322 DUP4 CODECOPY DUP2 MLOAD SWAP2 MSTORE PUSH1 0x20 MSTORE PUSH1 0x40 SWAP1 KECCAK256 SLOAD PUSH1 0xFF AND PUSH2 0x525 JUMPI PUSH1 0x1 PUSH1 0x1 PUSH1 0xA0 SHL SUB AND PUSH0 DUP2 DUP2 MSTORE PUSH0 DUP1 MLOAD PUSH1 0x20 PUSH2 0x2322 DUP4 CODECOPY DUP2 MLOAD SWAP2 MSTORE PUSH1 0x20 MSTORE PUSH1 0x40 DUP2 KECCAK256 DUP1 SLOAD PUSH1 0xFF NOT AND PUSH1 0x1 OR SWAP1 SSTORE CALLER SWAP2 SWAP1 PUSH32 0xE1DCBDB91DF27212A29BC27177C840CF2F819ECF2187432E1FAC86C2DD5DFCA9 SWAP1 PUSH0 DUP1 MLOAD PUSH1 0x20 PUSH2 0x22E2 DUP4 CODECOPY DUP2 MLOAD SWAP2 MSTORE SWAP1 DUP1 LOG4 PUSH1 0x1 SWAP1 JUMP JUMPDEST PUSH1 0x1 PUSH1 0x1 PUSH1 0xA0 SHL SUB DUP2 AND PUSH0 SWAP1 DUP2 MSTORE PUSH0 DUP1 MLOAD PUSH1 0x20 PUSH2 0x2302 DUP4 CODECOPY DUP2 MLOAD SWAP2 MSTORE PUSH1 0x20 MSTORE PUSH1 0x40 SWAP1 KECCAK256 SLOAD PUSH1 0xFF AND PUSH2 0x525 JUMPI PUSH1 0x1 PUSH1 0x1 PUSH1 0xA0 SHL SUB AND PUSH0 DUP2 DUP2 MSTORE PUSH0 DUP1 MLOAD PUSH1 0x20 PUSH2 0x2302 DUP4 CODECOPY DUP2 MLOAD SWAP2 MSTORE PUSH1 0x20 MSTORE PUSH1 0x40 DUP2 KECCAK256 DUP1 SLOAD PUSH1 0xFF NOT AND PUSH1 0x1 OR SWAP1 SSTORE CALLER SWAP2 SWAP1 PUSH32 0x65D7A28E3265B37A6474929F336521B332C1681B933F6CB9F3376673440D862A SWAP1 PUSH0 DUP1 MLOAD PUSH1 0x20 PUSH2 0x22E2 DUP4 CODECOPY DUP2 MLOAD SWAP2 MSTORE SWAP1 DUP1 LOG4 PUSH1 0x1 SWAP1 JUMP INVALID PUSH1 0x80 DUP1 PUSH1 0x40 MSTORE PUSH1 0x4 CALLDATASIZE LT ISZERO PUSH2 0x12 JUMPI PUSH0 DUP1 REVERT JUMPDEST PUSH0 SWAP1 PUSH0 CALLDATALOAD PUSH1 0xE0 SHR SWAP1 DUP2 PUSH4 0x1FFC9A7 EQ PUSH2 0x1201 JUMPI POP DUP1 PUSH4 0x6FDDE03 EQ PUSH2 0x1149 JUMPI DUP1 PUSH4 0x81812FC EQ PUSH2 0x110D JUMPI DUP1 PUSH4 0x95EA7B3 EQ PUSH2 0x1023 JUMPI DUP1 PUSH4 0x23B872DD EQ PUSH2 0x100C JUMPI DUP1 PUSH4 0x248A9CA3 EQ PUSH2 0xFD9 JUMPI DUP1 PUSH4 0x2F2FF15D EQ PUSH2 0xF9B JUMPI DUP1 PUSH4 0x33790845 EQ PUSH2 0xF4E JUMPI DUP1 PUSH4 0x36568ABE EQ PUSH2 0xF0A JUMPI DUP1 PUSH4 0x3F4BA83A EQ PUSH2 0xEA4 JUMPI DUP1 PUSH4 0x42842E0E EQ PUSH2 0xE75 JUMPI DUP1 PUSH4 0x5C975ABB EQ PUSH2 0xE53 JUMPI DUP1 PUSH4 0x61D027B3 EQ PUSH2 0xE27 JUMPI DUP1 PUSH4 0x6352211E EQ PUSH2 0xDF7 JUMPI DUP1 PUSH4 0x6EBE77B2 EQ PUSH2 0xCBC JUMPI DUP1 PUSH4 0x70A08231 EQ PUSH2 0xC6B JUMPI DUP1 PUSH4 0x8456CB59 EQ PUSH2 0xC12 JUMPI DUP1 PUSH4 0x91D14854 EQ PUSH2 0xBC9 JUMPI DUP1 PUSH4 0x927E38D2 EQ PUSH2 0x9C2 JUMPI DUP1 PUSH4 0x95D89B41 EQ PUSH2 0x8BA JUMPI DUP1 PUSH4 0xA217FDDF EQ PUSH2 0x8A0 JUMPI DUP1 PUSH4 0xA22CB465 EQ PUSH2 0x7EC JUMPI DUP1 PUSH4 0xA9D75B2B EQ PUSH2 0x7A8 JUMPI DUP1 PUSH4 0xAA4F2653 EQ PUSH2 0x750 JUMPI DUP1 PUSH4 0xB88D4FDE EQ PUSH2 0x6BB JUMPI DUP1 PUSH4 0xBD318E28 EQ PUSH2 0x459 JUMPI DUP1 PUSH4 0xC87B56DD EQ PUSH2 0x3FC JUMPI DUP1 PUSH4 0xD11A57EC EQ PUSH2 0x3C1 JUMPI DUP1 PUSH4 0xD547741F EQ PUSH2 0x379 JUMPI DUP1 PUSH4 0xE63AB1E9 EQ PUSH2 0x33E JUMPI DUP1 PUSH4 0xE705C2B8 EQ PUSH2 0x2D9 JUMPI DUP1 PUSH4 0xE985E9C5 EQ PUSH2 0x281 JUMPI PUSH4 0xF0F44260 EQ PUSH2 0x189 JUMPI PUSH0 DUP1 REVERT JUMPDEST CALLVALUE PUSH2 0x27E JUMPI PUSH1 0x20 CALLDATASIZE PUSH1 0x3 NOT ADD SLT PUSH2 0x27E JUMPI PUSH2 0x1A2 PUSH2 0x12AA JUMP JUMPDEST CALLER PUSH0 SWAP1 DUP2 MSTORE PUSH32 0x21B746F97E1679A3E88A18D3DEC6BEFA7BBC6F2977A2ECB1C7917139835D6AEE PUSH1 0x20 MSTORE PUSH1 0x40 SWAP1 KECCAK256 SLOAD PUSH1 0xFF AND ISZERO PUSH2 0x247 JUMPI PUSH1 0x1 PUSH1 0x1 PUSH1 0xA0 SHL SUB DUP2 AND ISZERO PUSH2 0x20F JUMPI PUSH1 0x7 DUP1 SLOAD PUSH2 0x100 PUSH1 0x1 PUSH1 0xA8 SHL SUB NOT AND PUSH1 0x8 SWAP3 SWAP1 SWAP3 SHL PUSH2 0x100 PUSH1 0x1 PUSH1 0xA8 SHL SUB AND SWAP2 SWAP1 SWAP2 OR SWAP1 SSTORE DUP1 RETURN JUMPDEST PUSH1 0x40 MLOAD PUSH3 0x461BCD PUSH1 0xE5 SHL DUP2 MSTORE PUSH1 0x20 PUSH1 0x4 DUP3 ADD MSTORE PUSH1 0x10 PUSH1 0x24 DUP3 ADD MSTORE PUSH16 0x496E76616C6964207472656173757279 PUSH1 0x80 SHL PUSH1 0x44 DUP3 ADD MSTORE PUSH1 0x64 SWAP1 REVERT JUMPDEST PUSH4 0xE2517D3F PUSH1 0xE0 SHL PUSH0 MSTORE CALLER PUSH1 0x4 MSTORE PUSH32 0xE1DCBDB91DF27212A29BC27177C840CF2F819ECF2187432E1FAC86C2DD5DFCA9 PUSH1 0x24 MSTORE PUSH1 0x44 PUSH0 REVERT JUMPDEST DUP1 REVERT JUMPDEST POP CALLVALUE PUSH2 0x27E JUMPI PUSH1 0x40 CALLDATASIZE PUSH1 0x3 NOT ADD SLT PUSH2 0x27E JUMPI PUSH1 0x40 PUSH2 0x29D PUSH2 0x12AA JUMP JUMPDEST SWAP2 PUSH2 0x2A6 PUSH2 0x12C0 JUMP JUMPDEST SWAP3 PUSH1 0x1 DUP1 PUSH1 0xA0 SHL SUB AND DUP2 MSTORE PUSH1 0x5 PUSH1 0x20 MSTORE KECCAK256 SWAP1 PUSH1 0x1 DUP1 PUSH1 0xA0 SHL SUB AND PUSH0 MSTORE PUSH1 0x20 MSTORE PUSH1 0x20 PUSH1 0xFF PUSH1 0x40 PUSH0 KECCAK256 SLOAD AND PUSH1 0x40 MLOAD SWAP1 ISZERO ISZERO DUP2 MSTORE RETURN JUMPDEST POP CALLVALUE PUSH2 0x27E JUMPI PUSH1 0x20 CALLDATASIZE PUSH1 0x3 NOT ADD SLT PUSH2 0x27E JUMPI PUSH1 0x20 SWAP1 PUSH1 0x4 CALLDATALOAD SWAP1 DUP2 DUP2 MSTORE PUSH1 0x2 DUP4 MSTORE PUSH1 0x1 DUP1 PUSH1 0xA0 SHL SUB PUSH1 0x40 DUP3 KECCAK256 SLOAD AND ISZERO ISZERO SWAP2 DUP3 PUSH2 0x31B JUMPI JUMPDEST POP POP PUSH1 0x40 MLOAD SWAP1 ISZERO ISZERO DUP2 MSTORE RETURN JUMPDEST DUP2 MSTORE PUSH1 0xA DUP4 MSTORE PUSH1 0x40 SWAP1 KECCAK256 PUSH1 0x1 ADD SLOAD PUSH1 0x1 PUSH1 0x1 PUSH1 0x40 SHL SUB AND TIMESTAMP GT ISZERO SWAP1 POP PUSH0 DUP1 PUSH2 0x30F JUMP JUMPDEST POP CALLVALUE PUSH2 0x27E JUMPI DUP1 PUSH1 0x3 NOT CALLDATASIZE ADD SLT PUSH2 0x27E JUMPI PUSH1 0x20 PUSH1 0x40 MLOAD PUSH32 0x65D7A28E3265B37A6474929F336521B332C1681B933F6CB9F3376673440D862A DUP2 MSTORE RETURN JUMPDEST POP CALLVALUE PUSH2 0x27E JUMPI PUSH1 0x40 CALLDATASIZE PUSH1 0x3 NOT ADD SLT PUSH2 0x27E JUMPI PUSH2 0x3BD PUSH1 0x4 CALLDATALOAD PUSH2 0x399 PUSH2 0x12C0 JUMP JUMPDEST SWAP1 PUSH2 0x3B8 PUSH2 0x3B3 DUP3 PUSH0 MSTORE PUSH1 0x6 PUSH1 0x20 MSTORE PUSH1 0x1 PUSH1 0x40 PUSH0 KECCAK256 ADD SLOAD SWAP1 JUMP JUMPDEST PUSH2 0x169D JUMP JUMPDEST PUSH2 0x1763 JUMP JUMPDEST POP DUP1 RETURN JUMPDEST POP CALLVALUE PUSH2 0x27E JUMPI DUP1 PUSH1 0x3 NOT CALLDATASIZE ADD SLT PUSH2 0x27E JUMPI PUSH1 0x20 PUSH1 0x40 MLOAD PUSH32 0xE1DCBDB91DF27212A29BC27177C840CF2F819ECF2187432E1FAC86C2DD5DFCA9 DUP2 MSTORE RETURN JUMPDEST CALLVALUE PUSH2 0x455 JUMPI PUSH1 0x20 CALLDATASIZE PUSH1 0x3 NOT ADD SLT PUSH2 0x455 JUMPI PUSH2 0x418 PUSH1 0x4 CALLDATALOAD PUSH2 0x15FA JUMP JUMPDEST POP PUSH0 PUSH1 0x40 MLOAD PUSH2 0x428 PUSH1 0x20 DUP3 PUSH2 0x1376 JUMP JUMPDEST MSTORE PUSH2 0x451 PUSH1 0x40 MLOAD PUSH2 0x43A PUSH1 0x20 DUP3 PUSH2 0x1376 JUMP JUMPDEST PUSH0 DUP2 MSTORE PUSH1 0x40 MLOAD SWAP2 DUP3 SWAP2 PUSH1 0x20 DUP4 MSTORE PUSH1 0x20 DUP4 ADD SWAP1 PUSH2 0x1286 JUMP JUMPDEST SUB SWAP1 RETURN JUMPDEST PUSH0 DUP1 REVERT JUMPDEST CALLVALUE PUSH2 0x455 JUMPI PUSH2 0x467 CALLDATASIZE PUSH2 0x1310 JUMP JUMPDEST PUSH2 0x472 SWAP3 SWAP2 SWAP3 PUSH2 0x17E7 JUMP JUMPDEST PUSH2 0x47A PUSH2 0x181F JUMP JUMPDEST DUP2 PUSH0 MSTORE PUSH1 0x9 PUSH1 0x20 MSTORE PUSH1 0x40 PUSH0 KECCAK256 SWAP2 PUSH1 0x40 MLOAD SWAP2 PUSH2 0x494 DUP4 PUSH2 0x1347 JUMP JUMPDEST DUP4 SLOAD DUP4 MSTORE PUSH2 0x4D2 PUSH1 0x60 PUSH1 0x2 PUSH1 0x1 DUP8 ADD SLOAD SWAP7 PUSH1 0x20 DUP8 ADD SWAP8 DUP9 MSTORE ADD SLOAD SWAP5 PUSH1 0xFF PUSH1 0x40 DUP3 ADD SWAP7 PUSH1 0x1 PUSH1 0x1 PUSH1 0x40 SHL SUB DUP2 AND DUP9 MSTORE PUSH1 0x40 SHR AND ISZERO ISZERO SWAP2 DUP3 SWAP2 ADD MSTORE PUSH2 0x1552 JUMP JUMPDEST DUP4 MLOAD ISZERO PUSH2 0x676 JUMPI DUP1 PUSH1 0x1 PUSH1 0x1 PUSH1 0x40 SHL SUB PUSH4 0xFFFFFFFF PUSH2 0x502 SWAP4 AND SWAP5 PUSH2 0x4F8 DUP7 ISZERO ISZERO PUSH2 0x158E JUMP JUMPDEST MLOAD AND SWAP1 DUP7 DUP5 PUSH2 0x183A JUMP JUMPDEST SWAP3 PUSH1 0x1 DUP1 PUSH1 0xA0 SHL SUB PUSH1 0x7 SLOAD PUSH1 0x8 SHR AND DUP2 MLOAD PUSH1 0x40 MLOAD SWAP2 PUSH4 0x23B872DD PUSH1 0xE0 SHL DUP4 MSTORE CALLER PUSH1 0x4 DUP5 ADD MSTORE PUSH1 0x24 DUP4 ADD MSTORE PUSH1 0x44 DUP3 ADD MSTORE PUSH1 0x20 DUP2 PUSH1 0x64 DUP2 PUSH0 PUSH1 0x1 DUP1 PUSH1 0xA0 SHL SUB PUSH32 0x0 AND GAS CALL SWAP1 DUP2 ISZERO PUSH2 0x66B JUMPI PUSH0 SWAP2 PUSH2 0x630 JUMPI JUMPDEST POP ISZERO PUSH2 0x5F2 JUMPI PUSH32 0xCB3721F27E5357B9EAE93B09EECCC5B1CDB125362224744F922DD4EBE68CC430 PUSH1 0x80 PUSH1 0x20 SWAP7 DUP7 SWAP4 MLOAD SWAP6 DUP5 PUSH0 MSTORE PUSH1 0xA DUP10 MSTORE PUSH1 0x1 PUSH1 0x1 PUSH1 0x40 SHL SUB PUSH1 0x1 PUSH1 0x40 PUSH0 KECCAK256 ADD SLOAD AND PUSH1 0x40 MLOAD SWAP8 PUSH1 0x1 DUP10 MSTORE DUP11 DUP10 ADD MSTORE PUSH1 0x40 DUP9 ADD MSTORE PUSH1 0x60 DUP8 ADD MSTORE PUSH1 0x1 DUP1 PUSH1 0xA0 SHL SUB AND SWAP5 LOG4 PUSH1 0x1 PUSH0 DUP1 MLOAD PUSH1 0x20 PUSH2 0x1C3C DUP4 CODECOPY DUP2 MLOAD SWAP2 MSTORE SSTORE PUSH1 0x40 MLOAD SWAP1 DUP2 MSTORE RETURN JUMPDEST PUSH1 0x40 MLOAD PUSH3 0x461BCD PUSH1 0xE5 SHL DUP2 MSTORE PUSH1 0x20 PUSH1 0x4 DUP3 ADD MSTORE PUSH1 0x16 PUSH1 0x24 DUP3 ADD MSTORE PUSH22 0x14DD18589B19481D1C985B9CD9995C8819985A5B1959 PUSH1 0x52 SHL PUSH1 0x44 DUP3 ADD MSTORE PUSH1 0x64 SWAP1 REVERT JUMPDEST SWAP1 POP PUSH1 0x20 DUP2 RETURNDATASIZE PUSH1 0x20 GT PUSH2 0x663 JUMPI JUMPDEST DUP2 PUSH2 0x64B PUSH1 0x20 SWAP4 DUP4 PUSH2 0x1376 JUMP JUMPDEST DUP2 ADD SUB SLT PUSH2 0x455 JUMPI MLOAD DUP1 ISZERO ISZERO DUP2 SUB PUSH2 0x455 JUMPI DUP7 PUSH2 0x571 JUMP JUMPDEST RETURNDATASIZE SWAP2 POP PUSH2 0x63E JUMP JUMPDEST PUSH1 0x40 MLOAD RETURNDATASIZE PUSH0 DUP3 RETURNDATACOPY RETURNDATASIZE SWAP1 REVERT JUMPDEST PUSH1 0x40 MLOAD PUSH3 0x461BCD PUSH1 0xE5 SHL DUP2 MSTORE PUSH1 0x20 PUSH1 0x4 DUP3 ADD MSTORE PUSH1 0x17 PUSH1 0x24 DUP3 ADD MSTORE PUSH32 0x537461626C65207061796D656E742064697361626C6564000000000000000000 PUSH1 0x44 DUP3 ADD MSTORE PUSH1 0x64 SWAP1 REVERT JUMPDEST CALLVALUE PUSH2 0x455 JUMPI PUSH1 0x80 CALLDATASIZE PUSH1 0x3 NOT ADD SLT PUSH2 0x455 JUMPI PUSH2 0x6D4 PUSH2 0x12AA JUMP JUMPDEST PUSH2 0x6DC PUSH2 0x12C0 JUMP JUMPDEST SWAP1 PUSH1 0x44 CALLDATALOAD PUSH1 0x64 CALLDATALOAD SWAP3 PUSH1 0x1 PUSH1 0x1 PUSH1 0x40 SHL SUB DUP5 GT PUSH2 0x455 JUMPI CALLDATASIZE PUSH1 0x23 DUP6 ADD SLT ISZERO PUSH2 0x455 JUMPI DUP4 PUSH1 0x4 ADD CALLDATALOAD SWAP3 PUSH2 0x70C DUP5 PUSH2 0x1397 JUMP JUMPDEST SWAP4 PUSH2 0x71A PUSH1 0x40 MLOAD SWAP6 DUP7 PUSH2 0x1376 JUMP JUMPDEST DUP1 DUP6 MSTORE CALLDATASIZE PUSH1 0x24 DUP3 DUP9 ADD ADD GT PUSH2 0x455 JUMPI PUSH1 0x20 DUP2 PUSH0 SWAP3 PUSH1 0x24 PUSH2 0x74E SWAP10 ADD DUP4 DUP10 ADD CALLDATACOPY DUP7 ADD ADD MSTORE PUSH2 0x748 DUP4 DUP4 DUP4 PUSH2 0x13B2 JUMP JUMPDEST CALLER PUSH2 0x1B3E JUMP JUMPDEST STOP JUMPDEST CALLVALUE PUSH2 0x455 JUMPI PUSH1 0x20 CALLDATASIZE PUSH1 0x3 NOT ADD SLT PUSH2 0x455 JUMPI PUSH1 0x4 CALLDATALOAD PUSH0 MSTORE PUSH1 0x9 PUSH1 0x20 MSTORE PUSH1 0x80 PUSH1 0x40 PUSH0 KECCAK256 PUSH1 0xFF DUP2 SLOAD SWAP2 PUSH1 0x2 PUSH1 0x1 DUP3 ADD SLOAD SWAP2 ADD SLOAD SWAP1 PUSH1 0x40 MLOAD SWAP4 DUP5 MSTORE PUSH1 0x20 DUP5 ADD MSTORE PUSH1 0x1 PUSH1 0x1 PUSH1 0x40 SHL SUB DUP2 AND PUSH1 0x40 DUP5 ADD MSTORE PUSH1 0x40 SHR AND ISZERO ISZERO PUSH1 0x60 DUP3 ADD MSTORE RETURN JUMPDEST CALLVALUE PUSH2 0x455 JUMPI PUSH0 CALLDATASIZE PUSH1 0x3 NOT ADD SLT PUSH2 0x455 JUMPI PUSH1 0x40 MLOAD PUSH32 0x0 PUSH1 0x1 PUSH1 0x1 PUSH1 0xA0 SHL SUB AND DUP2 MSTORE PUSH1 0x20 SWAP1 RETURN JUMPDEST CALLVALUE PUSH2 0x455 JUMPI PUSH1 0x40 CALLDATASIZE PUSH1 0x3 NOT ADD SLT PUSH2 0x455 JUMPI PUSH2 0x805 PUSH2 0x12AA JUMP JUMPDEST PUSH1 0x24 CALLDATALOAD SWAP1 DUP2 ISZERO ISZERO DUP1 SWAP3 SUB PUSH2 0x455 JUMPI CALLER ISZERO PUSH2 0x88D JUMPI PUSH1 0x1 PUSH1 0x1 PUSH1 0xA0 SHL SUB AND SWAP1 DUP2 ISZERO PUSH2 0x87A JUMPI CALLER PUSH0 MSTORE PUSH1 0x5 PUSH1 0x20 MSTORE PUSH1 0x40 PUSH0 KECCAK256 DUP3 PUSH0 MSTORE PUSH1 0x20 MSTORE PUSH1 0x40 PUSH0 KECCAK256 PUSH1 0xFF NOT DUP2 SLOAD AND PUSH1 0xFF DUP4 AND OR SWAP1 SSTORE PUSH1 0x40 MLOAD SWAP1 DUP2 MSTORE PUSH32 0x17307EAB39AB6107E8899845AD3D59BD9653F200F220920489CA2B5937696C31 PUSH1 0x20 CALLER SWAP3 LOG3 STOP JUMPDEST POP PUSH4 0xB611743 PUSH1 0xE3 SHL PUSH0 MSTORE PUSH1 0x4 MSTORE PUSH1 0x24 PUSH0 REVERT JUMPDEST PUSH4 0xA9FBF51F PUSH1 0xE0 SHL PUSH0 MSTORE PUSH0 PUSH1 0x4 MSTORE PUSH1 0x24 PUSH0 REVERT JUMPDEST CALLVALUE PUSH2 0x455 JUMPI PUSH0 CALLDATASIZE PUSH1 0x3 NOT ADD SLT PUSH2 0x455 JUMPI PUSH1 0x20 PUSH1 0x40 MLOAD PUSH0 DUP2 MSTORE RETURN JUMPDEST CALLVALUE PUSH2 0x455 JUMPI PUSH0 CALLDATASIZE PUSH1 0x3 NOT ADD SLT PUSH2 0x455 JUMPI PUSH1 0x40 MLOAD PUSH0 PUSH1 0x1 SLOAD DUP1 PUSH1 0x1 SHR SWAP1 PUSH1 0x1 DUP2 AND DUP1 ISZERO PUSH2 0x9B8 JUMPI JUMPDEST PUSH1 0x20 DUP4 LT DUP2 EQ PUSH2 0x9A4 JUMPI DUP3 DUP6 MSTORE SWAP1 DUP2 ISZERO PUSH2 0x980 JUMPI POP PUSH1 0x1 EQ PUSH2 0x922 JUMPI JUMPDEST PUSH2 0x451 DUP4 PUSH2 0x90E DUP2 DUP6 SUB DUP3 PUSH2 0x1376 JUMP JUMPDEST PUSH1 0x40 MLOAD SWAP2 DUP3 SWAP2 PUSH1 0x20 DUP4 MSTORE PUSH1 0x20 DUP4 ADD SWAP1 PUSH2 0x1286 JUMP JUMPDEST SWAP2 SWAP1 POP PUSH1 0x1 PUSH0 MSTORE PUSH32 0xB10E2D527612073B26EECDFD717E6A320CF44B4AFAC2B0732D9FCBE2B7FA0CF6 SWAP2 PUSH0 SWAP1 JUMPDEST DUP1 DUP3 LT PUSH2 0x966 JUMPI POP SWAP1 SWAP2 POP DUP2 ADD PUSH1 0x20 ADD PUSH2 0x90E PUSH2 0x8FE JUMP JUMPDEST SWAP2 SWAP3 PUSH1 0x1 DUP2 PUSH1 0x20 SWAP3 SLOAD DUP4 DUP6 DUP9 ADD ADD MSTORE ADD SWAP2 ADD SWAP1 SWAP3 SWAP2 PUSH2 0x94E JUMP JUMPDEST PUSH1 0xFF NOT AND PUSH1 0x20 DUP1 DUP7 ADD SWAP2 SWAP1 SWAP2 MSTORE SWAP2 ISZERO ISZERO PUSH1 0x5 SHL DUP5 ADD SWAP1 SWAP2 ADD SWAP2 POP PUSH2 0x90E SWAP1 POP PUSH2 0x8FE JUMP JUMPDEST PUSH4 0x4E487B71 PUSH1 0xE0 SHL PUSH0 MSTORE PUSH1 0x22 PUSH1 0x4 MSTORE PUSH1 0x24 PUSH0 REVERT JUMPDEST SWAP2 PUSH1 0x7F AND SWAP2 PUSH2 0x8E1 JUMP JUMPDEST PUSH2 0x9CB CALLDATASIZE PUSH2 0x1310 JUMP JUMPDEST PUSH2 0x9D6 SWAP3 SWAP2 SWAP3 PUSH2 0x17E7 JUMP JUMPDEST PUSH2 0x9DE PUSH2 0x181F JUMP JUMPDEST DUP2 PUSH0 MSTORE PUSH1 0x9 PUSH1 0x20 MSTORE PUSH1 0x40 PUSH0 KECCAK256 SWAP1 PUSH1 0x2 PUSH1 0x40 MLOAD SWAP3 PUSH2 0x9FA DUP5 PUSH2 0x1347 JUMP JUMPDEST DUP1 SLOAD DUP5 MSTORE PUSH1 0x1 DUP2 ADD SLOAD PUSH1 0x20 DUP6 ADD MSTORE ADD SLOAD SWAP2 PUSH2 0xA32 PUSH1 0xFF PUSH1 0x40 DUP4 ADD SWAP5 PUSH1 0x1 PUSH1 0x1 PUSH1 0x40 SHL SUB DUP2 AND DUP7 MSTORE PUSH1 0x40 SHR AND ISZERO ISZERO DUP1 PUSH1 0x60 DUP5 ADD MSTORE PUSH2 0x1552 JUMP JUMPDEST DUP1 MLOAD ISZERO PUSH2 0xB84 JUMPI MLOAD CALLVALUE SUB PUSH2 0xB4B JUMPI DUP1 PUSH1 0x1 PUSH1 0x1 PUSH1 0x40 SHL SUB PUSH4 0xFFFFFFFF PUSH2 0xA69 SWAP4 AND SWAP4 PUSH2 0xA5F DUP6 ISZERO ISZERO PUSH2 0x158E JUMP JUMPDEST MLOAD AND SWAP1 DUP6 DUP6 PUSH2 0x183A JUMP JUMPDEST SWAP2 PUSH0 DUP1 DUP1 DUP1 CALLVALUE PUSH1 0x1 DUP1 PUSH1 0xA0 SHL SUB PUSH1 0x7 SLOAD PUSH1 0x8 SHR AND GAS CALL PUSH2 0xA87 PUSH2 0x15CB JUMP JUMPDEST POP ISZERO PUSH2 0xB06 JUMPI DUP3 PUSH32 0xCB3721F27E5357B9EAE93B09EECCC5B1CDB125362224744F922DD4EBE68CC430 PUSH1 0x80 PUSH1 0x20 SWAP7 DUP4 PUSH0 MSTORE PUSH1 0xA DUP9 MSTORE PUSH1 0x1 PUSH1 0x1 PUSH1 0x40 SHL SUB PUSH1 0x1 PUSH1 0x40 PUSH0 KECCAK256 ADD SLOAD AND SWAP6 PUSH1 0x40 MLOAD SWAP7 PUSH0 DUP9 MSTORE CALLVALUE DUP11 DUP10 ADD MSTORE PUSH1 0x40 DUP9 ADD MSTORE PUSH1 0x60 DUP8 ADD MSTORE PUSH1 0x1 DUP1 PUSH1 0xA0 SHL SUB AND SWAP5 LOG4 PUSH1 0x1 PUSH0 DUP1 MLOAD PUSH1 0x20 PUSH2 0x1C3C DUP4 CODECOPY DUP2 MLOAD SWAP2 MSTORE SSTORE PUSH1 0x40 MLOAD SWAP1 DUP2 MSTORE RETURN JUMPDEST PUSH1 0x40 MLOAD PUSH3 0x461BCD PUSH1 0xE5 SHL DUP2 MSTORE PUSH1 0x20 PUSH1 0x4 DUP3 ADD MSTORE PUSH1 0x18 PUSH1 0x24 DUP3 ADD MSTORE PUSH32 0x5472656173757279207472616E73666572206661696C65640000000000000000 PUSH1 0x44 DUP3 ADD MSTORE PUSH1 0x64 SWAP1 REVERT JUMPDEST PUSH1 0x40 MLOAD PUSH3 0x461BCD PUSH1 0xE5 SHL DUP2 MSTORE PUSH1 0x20 PUSH1 0x4 DUP3 ADD MSTORE PUSH1 0x11 PUSH1 0x24 DUP3 ADD MSTORE PUSH17 0x125B98DBDC9C9958DD081C185E5B595B9D PUSH1 0x7A SHL PUSH1 0x44 DUP3 ADD MSTORE PUSH1 0x64 SWAP1 REVERT JUMPDEST PUSH1 0x40 MLOAD PUSH3 0x461BCD PUSH1 0xE5 SHL DUP2 MSTORE PUSH1 0x20 PUSH1 0x4 DUP3 ADD MSTORE PUSH1 0x17 PUSH1 0x24 DUP3 ADD MSTORE PUSH32 0x4E6174697665207061796D656E742064697361626C6564000000000000000000 PUSH1 0x44 DUP3 ADD MSTORE PUSH1 0x64 SWAP1 REVERT JUMPDEST CALLVALUE PUSH2 0x455 JUMPI PUSH1 0x40 CALLDATASIZE PUSH1 0x3 NOT ADD SLT PUSH2 0x455 JUMPI PUSH2 0xBE2 PUSH2 0x12C0 JUMP JUMPDEST PUSH1 0x4 CALLDATALOAD PUSH0 MSTORE PUSH1 0x6 PUSH1 0x20 MSTORE PUSH1 0x40 PUSH0 KECCAK256 SWAP1 PUSH1 0x1 DUP1 PUSH1 0xA0 SHL SUB AND PUSH0 MSTORE PUSH1 0x20 MSTORE PUSH1 0x20 PUSH1 0xFF PUSH1 0x40 PUSH0 KECCAK256 SLOAD AND PUSH1 0x40 MLOAD SWAP1 ISZERO ISZERO DUP2 MSTORE RETURN JUMPDEST CALLVALUE PUSH2 0x455 JUMPI PUSH0 CALLDATASIZE PUSH1 0x3 NOT ADD SLT PUSH2 0x455 JUMPI PUSH2 0xC2A PUSH2 0x162E JUMP JUMPDEST PUSH2 0xC32 PUSH2 0x181F JUMP JUMPDEST PUSH1 0x1 PUSH1 0xFF NOT PUSH1 0x7 SLOAD AND OR PUSH1 0x7 SSTORE PUSH32 0x62E78CEA01BEE320CD4E420270B5EA74000D11B0C9F74754EBDBFC544B05A258 PUSH1 0x20 PUSH1 0x40 MLOAD CALLER DUP2 MSTORE LOG1 STOP JUMPDEST CALLVALUE PUSH2 0x455 JUMPI PUSH1 0x20 CALLDATASIZE PUSH1 0x3 NOT ADD SLT PUSH2 0x455 JUMPI PUSH1 0x1 PUSH1 0x1 PUSH1 0xA0 SHL SUB PUSH2 0xC8C PUSH2 0x12AA JUMP JUMPDEST AND DUP1 ISZERO PUSH2 0xCA9 JUMPI PUSH0 MSTORE PUSH1 0x3 PUSH1 0x20 MSTORE PUSH1 0x20 PUSH1 0x40 PUSH0 KECCAK256 SLOAD PUSH1 0x40 MLOAD SWAP1 DUP2 MSTORE RETURN JUMPDEST PUSH4 0x22718AD9 PUSH1 0xE2 SHL PUSH0 MSTORE PUSH0 PUSH1 0x4 MSTORE PUSH1 0x24 PUSH0 REVERT JUMPDEST CALLVALUE PUSH2 0x455 JUMPI PUSH1 0xA0 CALLDATASIZE PUSH1 0x3 NOT ADD SLT PUSH2 0x455 JUMPI PUSH1 0x64 CALLDATALOAD PUSH1 0x1 PUSH1 0x1 PUSH1 0x40 SHL SUB DUP2 AND DUP1 SWAP2 SUB PUSH2 0x455 JUMPI PUSH1 0x84 CALLDATALOAD DUP1 ISZERO ISZERO DUP1 SWAP2 SUB PUSH2 0x455 JUMPI CALLER PUSH0 SWAP1 DUP2 MSTORE PUSH32 0x54CDD369E4E8A8515E52CA72EC816C2101831AD1F18BF44102ED171459C9B4F8 PUSH1 0x20 MSTORE PUSH1 0x40 SWAP1 KECCAK256 SLOAD PUSH1 0xFF AND ISZERO PUSH2 0xDE0 JUMPI DUP2 ISZERO PUSH2 0xDA7 JUMPI PUSH1 0x1 PUSH1 0x1 PUSH1 0x40 SHL SUB DUP1 PUSH1 0x2 PUSH1 0x40 MLOAD PUSH2 0xD41 DUP2 PUSH2 0x1347 JUMP JUMPDEST PUSH1 0x24 CALLDATALOAD DUP2 MSTORE PUSH1 0x20 DUP2 ADD PUSH1 0x44 CALLDATALOAD DUP2 MSTORE PUSH1 0x40 DUP3 ADD SWAP7 DUP8 MSTORE PUSH1 0x60 DUP3 ADD SWAP6 DUP7 MSTORE PUSH1 0x4 CALLDATALOAD PUSH0 MSTORE PUSH1 0x9 PUSH1 0x20 MSTORE PUSH1 0x40 PUSH0 KECCAK256 SWAP2 MLOAD DUP3 SSTORE MLOAD PUSH1 0x1 DUP3 ADD SSTORE ADD SWAP4 MLOAD AND AND PUSH1 0x1 PUSH1 0x1 PUSH1 0x40 SHL SUB NOT DUP4 SLOAD AND OR DUP3 SSTORE MLOAD ISZERO ISZERO PUSH1 0xFF PUSH1 0x40 SHL DUP3 SLOAD SWAP2 PUSH1 0x40 SHL AND SWAP1 PUSH1 0xFF PUSH1 0x40 SHL NOT AND OR SWAP1 SSTORE PUSH0 DUP1 RETURN JUMPDEST PUSH1 0x40 MLOAD PUSH3 0x461BCD PUSH1 0xE5 SHL DUP2 MSTORE PUSH1 0x20 PUSH1 0x4 DUP3 ADD MSTORE PUSH1 0x11 PUSH1 0x24 DUP3 ADD MSTORE PUSH17 0x111D5C985D1A5BDB881C995C5D5A5C9959 PUSH1 0x7A SHL PUSH1 0x44 DUP3 ADD MSTORE PUSH1 0x64 SWAP1 REVERT JUMPDEST PUSH4 0xE2517D3F PUSH1 0xE0 SHL PUSH0 MSTORE CALLER PUSH1 0x4 MSTORE PUSH0 PUSH1 0x24 MSTORE PUSH1 0x44 PUSH0 REVERT JUMPDEST CALLVALUE PUSH2 0x455 JUMPI PUSH1 0x20 CALLDATASIZE PUSH1 0x3 NOT ADD SLT PUSH2 0x455 JUMPI PUSH1 0x20 PUSH2 0xE15 PUSH1 0x4 CALLDATALOAD PUSH2 0x15FA JUMP JUMPDEST PUSH1 0x40 MLOAD PUSH1 0x1 PUSH1 0x1 PUSH1 0xA0 SHL SUB SWAP1 SWAP2 AND DUP2 MSTORE RETURN JUMPDEST CALLVALUE PUSH2 0x455 JUMPI PUSH0 CALLDATASIZE PUSH1 0x3 NOT ADD SLT PUSH2 0x455 JUMPI PUSH1 0x7 SLOAD PUSH1 0x40 MLOAD PUSH1 0x8 SWAP2 SWAP1 SWAP2 SHR PUSH1 0x1 PUSH1 0x1 PUSH1 0xA0 SHL SUB AND DUP2 MSTORE PUSH1 0x20 SWAP1 RETURN JUMPDEST CALLVALUE PUSH2 0x455 JUMPI PUSH0 CALLDATASIZE PUSH1 0x3 NOT ADD SLT PUSH2 0x455 JUMPI PUSH1 0x20 PUSH1 0xFF PUSH1 0x7 SLOAD AND PUSH1 0x40 MLOAD SWAP1 ISZERO ISZERO DUP2 MSTORE RETURN JUMPDEST CALLVALUE PUSH2 0x455 JUMPI PUSH2 0x74E PUSH2 0xE86 CALLDATASIZE PUSH2 0x12D6 JUMP JUMPDEST SWAP1 PUSH1 0x40 MLOAD SWAP3 PUSH2 0xE96 PUSH1 0x20 DUP6 PUSH2 0x1376 JUMP JUMPDEST PUSH0 DUP5 MSTORE PUSH2 0x748 DUP4 DUP4 DUP4 PUSH2 0x13B2 JUMP JUMPDEST CALLVALUE PUSH2 0x455 JUMPI PUSH0 CALLDATASIZE PUSH1 0x3 NOT ADD SLT PUSH2 0x455 JUMPI PUSH2 0xEBC PUSH2 0x162E JUMP JUMPDEST PUSH1 0x7 SLOAD PUSH1 0xFF DUP2 AND ISZERO PUSH2 0xEFB JUMPI PUSH1 0xFF NOT AND PUSH1 0x7 SSTORE PUSH32 0x5DB9EE0A495BF2E6FF9C91A7834C1BA4FDD244A5E8AA4E537BD38AEAE4B073AA PUSH1 0x20 PUSH1 0x40 MLOAD CALLER DUP2 MSTORE LOG1 STOP JUMPDEST PUSH4 0x8DFC202B PUSH1 0xE0 SHL PUSH0 MSTORE PUSH1 0x4 PUSH0 REVERT JUMPDEST CALLVALUE PUSH2 0x455 JUMPI PUSH1 0x40 CALLDATASIZE PUSH1 0x3 NOT ADD SLT PUSH2 0x455 JUMPI PUSH2 0xF23 PUSH2 0x12C0 JUMP JUMPDEST CALLER PUSH1 0x1 PUSH1 0x1 PUSH1 0xA0 SHL SUB DUP3 AND SUB PUSH2 0xF3F JUMPI PUSH2 0x74E SWAP1 PUSH1 0x4 CALLDATALOAD PUSH2 0x1763 JUMP JUMPDEST PUSH4 0x334BD919 PUSH1 0xE1 SHL PUSH0 MSTORE PUSH1 0x4 PUSH0 REVERT JUMPDEST CALLVALUE PUSH2 0x455 JUMPI PUSH1 0x20 CALLDATASIZE PUSH1 0x3 NOT ADD SLT PUSH2 0x455 JUMPI PUSH1 0x4 CALLDATALOAD PUSH0 MSTORE PUSH1 0xA PUSH1 0x20 MSTORE PUSH1 0x60 PUSH1 0x40 PUSH0 KECCAK256 PUSH4 0xFFFFFFFF PUSH1 0x1 DUP3 SLOAD SWAP3 ADD SLOAD PUSH1 0x40 MLOAD SWAP3 DUP4 MSTORE PUSH1 0x1 PUSH1 0x1 PUSH1 0x40 SHL SUB DUP2 AND PUSH1 0x20 DUP5 ADD MSTORE PUSH1 0x40 SHR AND PUSH1 0x40 DUP3 ADD MSTORE RETURN JUMPDEST CALLVALUE PUSH2 0x455 JUMPI PUSH1 0x40 CALLDATASIZE PUSH1 0x3 NOT ADD SLT PUSH2 0x455 JUMPI PUSH2 0x74E PUSH1 0x4 CALLDATALOAD PUSH2 0xFBA PUSH2 0x12C0 JUMP JUMPDEST SWAP1 PUSH2 0xFD4 PUSH2 0x3B3 DUP3 PUSH0 MSTORE PUSH1 0x6 PUSH1 0x20 MSTORE PUSH1 0x1 PUSH1 0x40 PUSH0 KECCAK256 ADD SLOAD SWAP1 JUMP JUMPDEST PUSH2 0x16D7 JUMP JUMPDEST CALLVALUE PUSH2 0x455 JUMPI PUSH1 0x20 CALLDATASIZE PUSH1 0x3 NOT ADD SLT PUSH2 0x455 JUMPI PUSH1 0x20 PUSH2 0x1004 PUSH1 0x4 CALLDATALOAD PUSH0 MSTORE PUSH1 0x6 PUSH1 0x20 MSTORE PUSH1 0x1 PUSH1 0x40 PUSH0 KECCAK256 ADD SLOAD SWAP1 JUMP JUMPDEST PUSH1 0x40 MLOAD SWAP1 DUP2 MSTORE RETURN JUMPDEST CALLVALUE PUSH2 0x455 JUMPI PUSH2 0x74E PUSH2 0x101D CALLDATASIZE PUSH2 0x12D6 JUMP JUMPDEST SWAP2 PUSH2 0x13B2 JUMP JUMPDEST CALLVALUE PUSH2 0x455 JUMPI PUSH1 0x40 CALLDATASIZE PUSH1 0x3 NOT ADD SLT PUSH2 0x455 JUMPI PUSH2 0x103C PUSH2 0x12AA JUMP JUMPDEST PUSH1 0x24 CALLDATALOAD PUSH2 0x1048 DUP2 PUSH2 0x15FA JUMP JUMPDEST CALLER ISZERO ISZERO DUP1 PUSH2 0x10FA JUMPI JUMPDEST DUP1 PUSH2 0x10CD JUMPI JUMPDEST PUSH2 0x10BA JUMPI DUP2 SWAP1 PUSH1 0x1 PUSH1 0x1 PUSH1 0xA0 SHL SUB DUP5 DUP2 AND SWAP2 AND PUSH32 0x8C5BE1E5EBEC7D5BD14F71427D1E84F3DD0314C0F7B2291E5B200AC8C7C3B925 PUSH0 DUP1 LOG4 PUSH0 SWAP1 DUP2 MSTORE PUSH1 0x4 PUSH1 0x20 MSTORE PUSH1 0x40 SWAP1 KECCAK256 DUP1 SLOAD PUSH1 0x1 PUSH1 0x1 PUSH1 0xA0 SHL SUB NOT AND PUSH1 0x1 PUSH1 0x1 PUSH1 0xA0 SHL SUB SWAP1 SWAP3 AND SWAP2 SWAP1 SWAP2 OR SWAP1 SSTORE STOP JUMPDEST PUSH4 0xA9FBF51F PUSH1 0xE0 SHL PUSH0 MSTORE CALLER PUSH1 0x4 MSTORE PUSH1 0x24 PUSH0 REVERT JUMPDEST POP PUSH1 0x1 PUSH1 0x1 PUSH1 0xA0 SHL SUB DUP2 AND PUSH0 SWAP1 DUP2 MSTORE PUSH1 0x5 PUSH1 0x20 SWAP1 DUP2 MSTORE PUSH1 0x40 DUP1 DUP4 KECCAK256 CALLER DUP5 MSTORE SWAP1 SWAP2 MSTORE SWAP1 KECCAK256 SLOAD PUSH1 0xFF AND ISZERO PUSH2 0x1057 JUMP JUMPDEST POP PUSH1 0x1 PUSH1 0x1 PUSH1 0xA0 SHL SUB DUP2 AND CALLER EQ ISZERO PUSH2 0x1051 JUMP JUMPDEST CALLVALUE PUSH2 0x455 JUMPI PUSH1 0x20 CALLDATASIZE PUSH1 0x3 NOT ADD SLT PUSH2 0x455 JUMPI PUSH1 0x4 CALLDATALOAD PUSH2 0x112A DUP2 PUSH2 0x15FA JUMP JUMPDEST POP PUSH0 MSTORE PUSH1 0x4 PUSH1 0x20 MSTORE PUSH1 0x20 PUSH1 0x1 DUP1 PUSH1 0xA0 SHL SUB PUSH1 0x40 PUSH0 KECCAK256 SLOAD AND PUSH1 0x40 MLOAD SWAP1 DUP2 MSTORE RETURN JUMPDEST CALLVALUE PUSH2 0x455 JUMPI PUSH0 CALLDATASIZE PUSH1 0x3 NOT ADD SLT PUSH2 0x455 JUMPI PUSH1 0x40 MLOAD PUSH0 DUP1 SLOAD DUP1 PUSH1 0x1 SHR SWAP1 PUSH1 0x1 DUP2 AND DUP1 ISZERO PUSH2 0x11F7 JUMPI JUMPDEST PUSH1 0x20 DUP4 LT DUP2 EQ PUSH2 0x9A4 JUMPI DUP3 DUP6 MSTORE SWAP1 DUP2 ISZERO PUSH2 0x980 JUMPI POP PUSH1 0x1 EQ PUSH2 0x119B JUMPI PUSH2 0x451 DUP4 PUSH2 0x90E DUP2 DUP6 SUB DUP3 PUSH2 0x1376 JUMP JUMPDEST PUSH0 DUP1 DUP1 MSTORE PUSH32 0x290DECD9548B62A8D60345A988386FC84BA6BC95484008F6362F93160EF3E563 SWAP4 SWAP3 POP SWAP1 JUMPDEST DUP1 DUP3 LT PUSH2 0x11DD JUMPI POP SWAP1 SWAP2 POP DUP2 ADD PUSH1 0x20 ADD PUSH2 0x90E PUSH2 0x8FE JUMP JUMPDEST SWAP2 SWAP3 PUSH1 0x1 DUP2 PUSH1 0x20 SWAP3 SLOAD DUP4 DUP6 DUP9 ADD ADD MSTORE ADD SWAP2 ADD SWAP1 SWAP3 SWAP2 PUSH2 0x11C5 JUMP JUMPDEST SWAP2 PUSH1 0x7F AND SWAP2 PUSH2 0x116F JUMP JUMPDEST CALLVALUE PUSH2 0x455 JUMPI PUSH1 0x20 CALLDATASIZE PUSH1 0x3 NOT ADD SLT PUSH2 0x455 JUMPI PUSH1 0x4 CALLDATALOAD SWAP1 PUSH4 0xFFFFFFFF PUSH1 0xE0 SHL DUP3 AND DUP1 SWAP3 SUB PUSH2 0x455 JUMPI PUSH1 0x20 SWAP2 PUSH4 0x7965DB0B PUSH1 0xE0 SHL DUP2 EQ SWAP1 DUP2 ISZERO PUSH2 0x1243 JUMPI JUMPDEST POP ISZERO ISZERO DUP2 MSTORE RETURN JUMPDEST PUSH4 0x80AC58CD PUSH1 0xE0 SHL DUP2 EQ SWAP2 POP DUP2 ISZERO PUSH2 0x1275 JUMPI JUMPDEST DUP2 ISZERO PUSH2 0x1264 JUMPI JUMPDEST POP DUP4 PUSH2 0x123C JUMP JUMPDEST PUSH4 0x1FFC9A7 PUSH1 0xE0 SHL EQ SWAP1 POP DUP4 PUSH2 0x125D JUMP JUMPDEST PUSH4 0x5B5E139F PUSH1 0xE0 SHL DUP2 EQ SWAP2 POP PUSH2 0x1256 JUMP JUMPDEST DUP1 MLOAD DUP1 DUP4 MSTORE PUSH1 0x20 SWAP3 SWAP2 DUP2 SWAP1 DUP5 ADD DUP5 DUP5 ADD MCOPY PUSH0 DUP3 DUP3 ADD DUP5 ADD MSTORE PUSH1 0x1F ADD PUSH1 0x1F NOT AND ADD ADD SWAP1 JUMP JUMPDEST PUSH1 0x4 CALLDATALOAD SWAP1 PUSH1 0x1 PUSH1 0x1 PUSH1 0xA0 SHL SUB DUP3 AND DUP3 SUB PUSH2 0x455 JUMPI JUMP JUMPDEST PUSH1 0x24 CALLDATALOAD SWAP1 PUSH1 0x1 PUSH1 0x1 PUSH1 0xA0 SHL SUB DUP3 AND DUP3 SUB PUSH2 0x455 JUMPI JUMP JUMPDEST PUSH1 0x60 SWAP1 PUSH1 0x3 NOT ADD SLT PUSH2 0x455 JUMPI PUSH1 0x4 CALLDATALOAD PUSH1 0x1 PUSH1 0x1 PUSH1 0xA0 SHL SUB DUP2 AND DUP2 SUB PUSH2 0x455 JUMPI SWAP1 PUSH1 0x24 CALLDATALOAD PUSH1 0x1 PUSH1 0x1 PUSH1 0xA0 SHL SUB DUP2 AND DUP2 SUB PUSH2 0x455 JUMPI SWAP1 PUSH1 0x44 CALLDATALOAD SWAP1 JUMP JUMPDEST PUSH1 0x60 SWAP1 PUSH1 0x3 NOT ADD SLT PUSH2 0x455 JUMPI PUSH1 0x4 CALLDATALOAD SWAP1 PUSH1 0x24 CALLDATALOAD PUSH1 0x1 PUSH1 0x1 PUSH1 0xA0 SHL SUB DUP2 AND DUP2 SUB PUSH2 0x455 JUMPI SWAP1 PUSH1 0x44 CALLDATALOAD PUSH4 0xFFFFFFFF DUP2 AND DUP2 SUB PUSH2 0x455 JUMPI SWAP1 JUMP JUMPDEST PUSH1 0x80 DUP2 ADD SWAP1 DUP2 LT PUSH1 0x1 PUSH1 0x1 PUSH1 0x40 SHL SUB DUP3 GT OR PUSH2 0x1362 JUMPI PUSH1 0x40 MSTORE JUMP JUMPDEST PUSH4 0x4E487B71 PUSH1 0xE0 SHL PUSH0 MSTORE PUSH1 0x41 PUSH1 0x4 MSTORE PUSH1 0x24 PUSH0 REVERT JUMPDEST SWAP1 PUSH1 0x1F DUP1 NOT SWAP2 ADD AND DUP2 ADD SWAP1 DUP2 LT PUSH1 0x1 PUSH1 0x1 PUSH1 0x40 SHL SUB DUP3 GT OR PUSH2 0x1362 JUMPI PUSH1 0x40 MSTORE JUMP JUMPDEST PUSH1 0x1 PUSH1 0x1 PUSH1 0x40 SHL SUB DUP2 GT PUSH2 0x1362 JUMPI PUSH1 0x1F ADD PUSH1 0x1F NOT AND PUSH1 0x20 ADD SWAP1 JUMP JUMPDEST PUSH1 0x1 PUSH1 0x1 PUSH1 0xA0 SHL SUB SWAP1 SWAP2 AND SWAP2 SWAP1 DUP3 ISZERO PUSH2 0x153F JUMPI PUSH0 DUP3 DUP2 MSTORE PUSH1 0x2 PUSH1 0x20 MSTORE PUSH1 0x40 SWAP1 KECCAK256 SLOAD PUSH1 0x1 PUSH1 0x1 PUSH1 0xA0 SHL SUB AND SWAP3 DUP3 SWAP1 CALLER ISZERO ISZERO DUP1 PUSH2 0x14AA JUMPI JUMPDEST POP DUP5 PUSH2 0x1477 JUMPI JUMPDEST DUP1 PUSH0 MSTORE PUSH1 0x3 PUSH1 0x20 MSTORE PUSH1 0x40 PUSH0 KECCAK256 PUSH1 0x1 DUP2 SLOAD ADD SWAP1 SSTORE DUP2 PUSH0 MSTORE PUSH1 0x2 PUSH1 0x20 MSTORE PUSH1 0x40 PUSH0 KECCAK256 DUP2 PUSH12 0xFFFFFFFFFFFFFFFFFFFFFFFF PUSH1 0xA0 SHL DUP3 SLOAD AND OR SWAP1 SSTORE DUP5 PUSH32 0xDDF252AD1BE2C89B69C2B068FC378DAA952BA7F163C4A11628F55A4DF523B3EF PUSH0 DUP1 LOG4 PUSH1 0x1 PUSH1 0x1 PUSH1 0xA0 SHL SUB AND DUP1 DUP4 SUB PUSH2 0x145F JUMPI POP POP POP JUMP JUMPDEST PUSH4 0x64283D7B PUSH1 0xE0 SHL PUSH0 MSTORE PUSH1 0x4 MSTORE PUSH1 0x24 MSTORE PUSH1 0x44 MSTORE PUSH1 0x64 PUSH0 REVERT JUMPDEST PUSH0 DUP3 DUP2 MSTORE PUSH1 0x4 PUSH1 0x20 MSTORE PUSH1 0x40 SWAP1 KECCAK256 DUP1 SLOAD PUSH1 0x1 PUSH1 0x1 PUSH1 0xA0 SHL SUB NOT AND SWAP1 SSTORE DUP5 PUSH0 MSTORE PUSH1 0x3 PUSH1 0x20 MSTORE PUSH1 0x40 PUSH0 KECCAK256 PUSH0 NOT DUP2 SLOAD ADD SWAP1 SSTORE PUSH2 0x13EF JUMP JUMPDEST SWAP1 SWAP2 POP DUP1 PUSH2 0x14EE JUMPI JUMPDEST ISZERO PUSH2 0x14C0 JUMPI DUP3 SWAP1 PUSH0 PUSH2 0x13E8 JUMP JUMPDEST DUP3 DUP5 PUSH2 0x14D8 JUMPI PUSH4 0x7E273289 PUSH1 0xE0 SHL PUSH0 MSTORE PUSH1 0x4 MSTORE PUSH1 0x24 PUSH0 REVERT JUMPDEST PUSH4 0x177E802F PUSH1 0xE0 SHL PUSH0 MSTORE CALLER PUSH1 0x4 MSTORE PUSH1 0x24 MSTORE PUSH1 0x44 PUSH0 REVERT JUMPDEST POP CALLER DUP5 EQ DUP1 ISZERO PUSH2 0x151D JUMPI JUMPDEST DUP1 PUSH2 0x14B3 JUMPI POP PUSH0 DUP4 DUP2 MSTORE PUSH1 0x4 PUSH1 0x20 MSTORE PUSH1 0x40 SWAP1 KECCAK256 SLOAD PUSH1 0x1 PUSH1 0x1 PUSH1 0xA0 SHL SUB AND CALLER EQ PUSH2 0x14B3 JUMP JUMPDEST POP PUSH0 DUP5 DUP2 MSTORE PUSH1 0x5 PUSH1 0x20 SWAP1 DUP2 MSTORE PUSH1 0x40 DUP1 DUP4 KECCAK256 CALLER DUP5 MSTORE SWAP1 SWAP2 MSTORE SWAP1 KECCAK256 SLOAD PUSH1 0xFF AND PUSH2 0x14F9 JUMP JUMPDEST PUSH4 0x32505749 PUSH1 0xE1 SHL PUSH0 MSTORE PUSH0 PUSH1 0x4 MSTORE PUSH1 0x24 PUSH0 REVERT JUMPDEST ISZERO PUSH2 0x1559 JUMPI JUMP JUMPDEST PUSH1 0x40 MLOAD PUSH3 0x461BCD PUSH1 0xE5 SHL DUP2 MSTORE PUSH1 0x20 PUSH1 0x4 DUP3 ADD MSTORE PUSH1 0xD PUSH1 0x24 DUP3 ADD MSTORE PUSH13 0x141B185B88191A5CD8589B1959 PUSH1 0x9A SHL PUSH1 0x44 DUP3 ADD MSTORE PUSH1 0x64 SWAP1 REVERT JUMPDEST ISZERO PUSH2 0x1595 JUMPI JUMP JUMPDEST PUSH1 0x40 MLOAD PUSH3 0x461BCD PUSH1 0xE5 SHL DUP2 MSTORE PUSH1 0x20 PUSH1 0x4 DUP3 ADD MSTORE PUSH1 0xE PUSH1 0x24 DUP3 ADD MSTORE PUSH14 0x14D9585D1CC81C995C5D5A5C9959 PUSH1 0x92 SHL PUSH1 0x44 DUP3 ADD MSTORE PUSH1 0x64 SWAP1 REVERT JUMPDEST RETURNDATASIZE ISZERO PUSH2 0x15F5 JUMPI RETURNDATASIZE SWAP1 PUSH2 0x15DC DUP3 PUSH2 0x1397 JUMP JUMPDEST SWAP2 PUSH2 0x15EA PUSH1 0x40 MLOAD SWAP4 DUP5 PUSH2 0x1376 JUMP JUMPDEST DUP3 MSTORE RETURNDATASIZE PUSH0 PUSH1 0x20 DUP5 ADD RETURNDATACOPY JUMP JUMPDEST PUSH1 0x60 SWAP1 JUMP JUMPDEST PUSH0 DUP2 DUP2 MSTORE PUSH1 0x2 PUSH1 0x20 MSTORE PUSH1 0x40 SWAP1 KECCAK256 SLOAD PUSH1 0x1 PUSH1 0x1 PUSH1 0xA0 SHL SUB AND SWAP1 DUP2 ISZERO PUSH2 0x161C JUMPI POP SWAP1 JUMP JUMPDEST PUSH4 0x7E273289 PUSH1 0xE0 SHL PUSH0 MSTORE PUSH1 0x4 MSTORE PUSH1 0x24 PUSH0 REVERT JUMPDEST CALLER PUSH0 SWAP1 DUP2 MSTORE PUSH32 0xE09F975E15F8F53F24CBBC282B13C40B84DF485FCDB8D3997FA103DC5A4EF841 PUSH1 0x20 MSTORE PUSH1 0x40 SWAP1 KECCAK256 SLOAD PUSH1 0xFF AND ISZERO PUSH2 0x1666 JUMPI JUMP JUMPDEST PUSH4 0xE2517D3F PUSH1 0xE0 SHL PUSH0 MSTORE CALLER PUSH1 0x4 MSTORE PUSH32 0x65D7A28E3265B37A6474929F336521B332C1681B933F6CB9F3376673440D862A PUSH1 0x24 MSTORE PUSH1 0x44 PUSH0 REVERT JUMPDEST PUSH0 DUP2 DUP2 MSTORE PUSH1 0x6 PUSH1 0x20 SWAP1 DUP2 MSTORE PUSH1 0x40 DUP1 DUP4 KECCAK256 CALLER DUP5 MSTORE SWAP1 SWAP2 MSTORE SWAP1 KECCAK256 SLOAD PUSH1 0xFF AND ISZERO PUSH2 0x16C1 JUMPI POP JUMP JUMPDEST PUSH4 0xE2517D3F PUSH1 0xE0 SHL PUSH0 MSTORE CALLER PUSH1 0x4 MSTORE PUSH1 0x24 MSTORE PUSH1 0x44 PUSH0 REVERT JUMPDEST PUSH0 DUP2 DUP2 MSTORE PUSH1 0x6 PUSH1 0x20 SWAP1 DUP2 MSTORE PUSH1 0x40 DUP1 DUP4 KECCAK256 PUSH1 0x1 PUSH1 0x1 PUSH1 0xA0 SHL SUB DUP7 AND DUP5 MSTORE SWAP1 SWAP2 MSTORE SWAP1 KECCAK256 SLOAD PUSH1 0xFF AND PUSH2 0x175D JUMPI PUSH0 DUP2 DUP2 MSTORE PUSH1 0x6 PUSH1 0x20 SWAP1 DUP2 MSTORE PUSH1 0x40 DUP1 DUP4 KECCAK256 PUSH1 0x1 PUSH1 0x1 PUSH1 0xA0 SHL SUB SWAP6 SWAP1 SWAP6 AND DUP1 DUP5 MSTORE SWAP5 SWAP1 SWAP2 MSTORE DUP2 KECCAK256 DUP1 SLOAD PUSH1 0xFF NOT AND PUSH1 0x1 OR SWAP1 SSTORE CALLER SWAP3 SWAP2 SWAP1 PUSH32 0x2F8788117E7EFF1D82E926EC794901D17C78024A50270940304540A733656F0D SWAP1 DUP1 LOG4 PUSH1 0x1 SWAP1 JUMP JUMPDEST POP POP PUSH0 SWAP1 JUMP JUMPDEST PUSH0 DUP2 DUP2 MSTORE PUSH1 0x6 PUSH1 0x20 SWAP1 DUP2 MSTORE PUSH1 0x40 DUP1 DUP4 KECCAK256 PUSH1 0x1 PUSH1 0x1 PUSH1 0xA0 SHL SUB DUP7 AND DUP5 MSTORE SWAP1 SWAP2 MSTORE SWAP1 KECCAK256 SLOAD PUSH1 0xFF AND ISZERO PUSH2 0x175D JUMPI PUSH0 DUP2 DUP2 MSTORE PUSH1 0x6 PUSH1 0x20 SWAP1 DUP2 MSTORE PUSH1 0x40 DUP1 DUP4 KECCAK256 PUSH1 0x1 PUSH1 0x1 PUSH1 0xA0 SHL SUB SWAP6 SWAP1 SWAP6 AND DUP1 DUP5 MSTORE SWAP5 SWAP1 SWAP2 MSTORE DUP2 KECCAK256 DUP1 SLOAD PUSH1 0xFF NOT AND SWAP1 SSTORE CALLER SWAP3 SWAP2 SWAP1 PUSH32 0xF6391F5C32D9C69D2A47EA670B442974B53935D1EDC7FD64EB21E047A839171B SWAP1 DUP1 LOG4 PUSH1 0x1 SWAP1 JUMP JUMPDEST PUSH1 0x2 PUSH0 DUP1 MLOAD PUSH1 0x20 PUSH2 0x1C3C DUP4 CODECOPY DUP2 MLOAD SWAP2 MSTORE SLOAD EQ PUSH2 0x1810 JUMPI PUSH1 0x2 PUSH0 DUP1 MLOAD PUSH1 0x20 PUSH2 0x1C3C DUP4 CODECOPY DUP2 MLOAD SWAP2 MSTORE SSTORE JUMP JUMPDEST PUSH4 0x3EE5AEB5 PUSH1 0xE0 SHL PUSH0 MSTORE PUSH1 0x4 PUSH0 REVERT JUMPDEST PUSH1 0xFF PUSH1 0x7 SLOAD AND PUSH2 0x182B JUMPI JUMP JUMPDEST PUSH4 0xD93C0665 PUSH1 0xE0 SHL PUSH0 MSTORE PUSH1 0x4 PUSH0 REVERT JUMPDEST PUSH1 0x1 PUSH1 0x1 PUSH1 0xA0 SHL SUB DUP3 AND SWAP5 SWAP4 SWAP2 SWAP3 SWAP2 DUP6 ISZERO PUSH2 0x1B05 JUMPI PUSH1 0x8 SLOAD SWAP6 PUSH1 0x1 DUP8 ADD DUP1 DUP9 GT PUSH2 0x1999 JUMPI PUSH1 0x8 SSTORE PUSH1 0x40 MLOAD PUSH1 0x20 SWAP6 PUSH2 0x1871 DUP8 DUP4 PUSH2 0x1376 JUMP JUMPDEST PUSH0 DUP1 DUP4 MSTORE DUP10 DUP2 MSTORE PUSH1 0x2 DUP9 MSTORE PUSH1 0x40 SWAP1 KECCAK256 SLOAD PUSH1 0x1 PUSH1 0x1 PUSH1 0xA0 SHL SUB AND DUP1 ISZERO ISZERO SWAP1 DUP2 PUSH2 0x1AD4 JUMPI JUMPDEST DUP5 PUSH2 0x1ABD JUMPI JUMPDEST DUP11 PUSH0 MSTORE PUSH1 0x2 DUP10 MSTORE PUSH1 0x40 PUSH0 KECCAK256 DUP6 PUSH12 0xFFFFFFFFFFFFFFFFFFFFFFFF PUSH1 0xA0 SHL DUP3 SLOAD AND OR SWAP1 SSTORE DUP11 DUP6 DUP3 PUSH32 0xDDF252AD1BE2C89B69C2B068FC378DAA952BA7F163C4A11628F55A4DF523B3EF PUSH0 DUP1 LOG4 POP PUSH2 0x1AAA JUMPI EXTCODESIZE PUSH2 0x19AD JUMPI JUMPDEST POP POP PUSH1 0x1 PUSH1 0x1 PUSH1 0x40 SHL SUB AND PUSH1 0x1 PUSH1 0x1 PUSH1 0x40 SHL SUB TIMESTAMP AND ADD SWAP3 PUSH1 0x1 PUSH1 0x1 PUSH1 0x40 SHL SUB DUP5 GT PUSH2 0x1999 JUMPI PUSH1 0x40 MLOAD SWAP2 PUSH1 0x60 DUP4 ADD SWAP3 DUP1 DUP5 LT PUSH1 0x1 PUSH1 0x1 PUSH1 0x40 SHL SUB DUP6 GT OR PUSH2 0x1362 JUMPI PUSH1 0xA PUSH1 0x1 PUSH1 0x1 PUSH1 0x40 SHL SUB SWAP5 SWAP4 PUSH1 0x1 SWAP4 DUP7 SWAP6 PUSH1 0x40 MSTORE DUP4 MSTORE DUP5 DUP2 DUP5 ADD SWAP9 AND DUP9 MSTORE PUSH4 0xFFFFFFFF PUSH1 0x40 DUP5 ADD SWAP8 AND DUP8 MSTORE DUP10 PUSH0 MSTORE MSTORE PUSH1 0x40 PUSH0 KECCAK256 SWAP1 MLOAD DUP2 SSTORE ADD SWAP4 MLOAD AND AND PUSH1 0x1 PUSH1 0x1 PUSH1 0x40 SHL SUB NOT DUP4 SLOAD AND OR DUP3 SSTORE MLOAD PUSH4 0xFFFFFFFF PUSH1 0x40 SHL DUP3 SLOAD SWAP2 PUSH1 0x40 SHL AND SWAP1 PUSH4 0xFFFFFFFF PUSH1 0x40 SHL NOT AND OR SWAP1 SSTORE JUMP JUMPDEST PUSH4 0x4E487B71 PUSH1 0xE0 SHL PUSH0 MSTORE PUSH1 0x11 PUSH1 0x4 MSTORE PUSH1 0x24 PUSH0 REVERT JUMPDEST DUP6 PUSH2 0x19EE SWAP2 PUSH1 0x40 SWAP10 SWAP8 SWAP9 SWAP7 SWAP6 SWAP5 SWAP4 SWAP10 MLOAD DUP1 SWAP4 DUP2 SWAP3 PUSH4 0xA85BD01 PUSH1 0xE1 SHL DUP4 MSTORE CALLER PUSH1 0x4 DUP5 ADD MSTORE PUSH0 PUSH1 0x24 DUP5 ADD MSTORE DUP11 PUSH1 0x44 DUP5 ADD MSTORE PUSH1 0x80 PUSH1 0x64 DUP5 ADD MSTORE PUSH1 0x84 DUP4 ADD SWAP1 PUSH2 0x1286 JUMP JUMPDEST SUB DUP2 PUSH0 DUP13 GAS CALL PUSH0 SWAP2 DUP2 PUSH2 0x1A6A JUMPI JUMPDEST POP PUSH2 0x1A2A JUMPI DUP8 DUP8 PUSH2 0x1A0B PUSH2 0x15CB JUMP JUMPDEST DUP1 MLOAD SWAP2 SWAP1 DUP3 PUSH2 0x1A27 JUMPI DUP4 PUSH4 0x32505749 PUSH1 0xE1 SHL PUSH0 MSTORE PUSH1 0x4 MSTORE PUSH1 0x24 PUSH0 REVERT JUMPDEST ADD REVERT JUMPDEST PUSH4 0xA85BD01 PUSH1 0xE1 SWAP9 SWAP3 SWAP4 SWAP5 SWAP6 SWAP8 SWAP7 SWAP9 SHL SWAP1 PUSH4 0xFFFFFFFF PUSH1 0xE0 SHL AND SUB PUSH2 0x1A58 JUMPI POP PUSH1 0x1 PUSH1 0x1 PUSH1 0x40 SHL SUB PUSH0 PUSH2 0x18EE JUMP JUMPDEST PUSH4 0x32505749 PUSH1 0xE1 SHL PUSH0 MSTORE PUSH1 0x4 MSTORE PUSH1 0x24 PUSH0 REVERT JUMPDEST SWAP1 SWAP2 POP DUP8 DUP2 DUP2 RETURNDATASIZE DUP4 GT PUSH2 0x1AA3 JUMPI JUMPDEST PUSH2 0x1A82 DUP2 DUP4 PUSH2 0x1376 JUMP JUMPDEST DUP2 ADD SUB SLT PUSH2 0x455 JUMPI MLOAD PUSH1 0x1 PUSH1 0x1 PUSH1 0xE0 SHL SUB NOT DUP2 AND DUP2 SUB PUSH2 0x455 JUMPI SWAP1 PUSH0 PUSH2 0x19FC JUMP JUMPDEST POP RETURNDATASIZE PUSH2 0x1A78 JUMP JUMPDEST PUSH4 0x39E35637 PUSH1 0xE1 SHL PUSH0 MSTORE PUSH0 PUSH1 0x4 MSTORE PUSH1 0x24 PUSH0 REVERT JUMPDEST DUP5 PUSH0 MSTORE PUSH1 0x3 DUP10 MSTORE PUSH1 0x40 PUSH0 KECCAK256 PUSH1 0x1 DUP2 SLOAD ADD SWAP1 SSTORE PUSH2 0x189A JUMP JUMPDEST PUSH0 DUP12 DUP2 MSTORE PUSH1 0x4 PUSH1 0x20 MSTORE PUSH1 0x40 DUP1 DUP3 KECCAK256 DUP1 SLOAD PUSH1 0x1 PUSH1 0x1 PUSH1 0xA0 SHL SUB NOT AND SWAP1 SSTORE DUP3 DUP3 MSTORE PUSH1 0x3 DUP12 MSTORE SWAP1 KECCAK256 DUP1 SLOAD PUSH0 NOT ADD SWAP1 SSTORE PUSH2 0x1894 JUMP JUMPDEST PUSH1 0x40 MLOAD PUSH3 0x461BCD PUSH1 0xE5 SHL DUP2 MSTORE PUSH1 0x20 PUSH1 0x4 DUP3 ADD MSTORE PUSH1 0x11 PUSH1 0x24 DUP3 ADD MSTORE PUSH17 0x125B9D985B1A59081C9958DA5C1A595B9D PUSH1 0x7A SHL PUSH1 0x44 DUP3 ADD MSTORE PUSH1 0x64 SWAP1 REVERT JUMPDEST DUP3 EXTCODESIZE PUSH2 0x1B4C JUMPI JUMPDEST POP POP POP POP POP JUMP JUMPDEST PUSH1 0x40 MLOAD PUSH4 0xA85BD01 PUSH1 0xE1 SHL DUP2 MSTORE PUSH1 0x1 PUSH1 0x1 PUSH1 0xA0 SHL SUB SWAP2 DUP3 AND PUSH1 0x4 DUP3 ADD MSTORE SWAP2 DUP2 AND PUSH1 0x24 DUP4 ADD MSTORE PUSH1 0x44 DUP3 ADD SWAP4 SWAP1 SWAP4 MSTORE PUSH1 0x80 PUSH1 0x64 DUP3 ADD MSTORE SWAP2 AND SWAP2 PUSH1 0x20 SWAP1 DUP3 SWAP1 DUP2 SWAP1 PUSH2 0x1B98 SWAP1 PUSH1 0x84 DUP4 ADD SWAP1 PUSH2 0x1286 JUMP JUMPDEST SUB DUP2 PUSH0 DUP7 GAS CALL PUSH0 SWAP2 DUP2 PUSH2 0x1BF6 JUMPI JUMPDEST POP PUSH2 0x1BD4 JUMPI POP PUSH2 0x1BB4 PUSH2 0x15CB JUMP JUMPDEST DUP1 MLOAD SWAP1 DUP2 PUSH2 0x1BCF JUMPI DUP3 PUSH4 0x32505749 PUSH1 0xE1 SHL PUSH0 MSTORE PUSH1 0x4 MSTORE PUSH1 0x24 PUSH0 REVERT JUMPDEST PUSH1 0x20 ADD REVERT JUMPDEST PUSH1 0x1 PUSH1 0x1 PUSH1 0xE0 SHL SUB NOT AND PUSH4 0x757A42FF PUSH1 0xE1 SHL ADD PUSH2 0x1A58 JUMPI POP PUSH0 DUP1 DUP1 DUP1 DUP1 PUSH2 0x1B45 JUMP JUMPDEST SWAP1 SWAP2 POP PUSH1 0x20 DUP2 RETURNDATASIZE PUSH1 0x20 GT PUSH2 0x1C33 JUMPI JUMPDEST DUP2 PUSH2 0x1C12 PUSH1 0x20 SWAP4 DUP4 PUSH2 0x1376 JUMP JUMPDEST DUP2 ADD SUB SLT PUSH2 0x455 JUMPI MLOAD PUSH1 0x1 PUSH1 0x1 PUSH1 0xE0 SHL SUB NOT DUP2 AND DUP2 SUB PUSH2 0x455 JUMPI SWAP1 PUSH0 PUSH2 0x1BA6 JUMP JUMPDEST RETURNDATASIZE SWAP2 POP PUSH2 0x1C05 JUMP INVALID SWAP12 PUSH24 0x9B17422D0DF92223018B32B4D1FA46E071723D6817E2486D STOP EXTCODESIZE 0xEC 0xC5 PUSH0 STOP LOG2 PUSH5 0x6970667358 0x22 SLT KECCAK256 0x4C SLT MSTORE DUP2 DUP5 BYTE DUP14 0xCE 0xAA 0x2A CALLDATALOAD MUL DUP15 PUSH4 0xA68A4DC4 EXTCODEHASH PUSH27 0xAAE77B2B917ABCFDF381708964736F6C634300081A00332F878811 PUSH31 0x7EFF1D82E926EC794901D17C78024A50270940304540A733656F0DE09F975E ISZERO 0xF8 CREATE2 EXTCODEHASH 0x24 0xCB 0xBC 0x28 0x2B SGT 0xC4 SIGNEXTEND DUP5 0xDF BASEFEE PUSH0 0xCD 0xB8 0xD3 SWAP10 PUSH32 0xA103DC5A4EF84121B746F97E1679A3E88A18D3DEC6BEFA7BBC6F2977A2ECB1C7 SWAP2 PUSH18 0x39835D6AEE54CDD369E4E8A8515E52CA72EC DUP2 PUSH13 0x2101831AD1F18BF44102ED1714 MSIZE 0xC9 0xB4 0xF8 "},"methodIdentifiers":{"DEFAULT_ADMIN_ROLE()":"a217fddf","PAUSER_ROLE()":"e63ab1e9","TREASURY_ROLE()":"d11a57ec","approve(address,uint256)":"095ea7b3","balanceOf(address)":"70a08231","buyWithNative(bytes32,address,uint32)":"927e38d2","buyWithStable(bytes32,address,uint32)":"bd318e28","getApproved(uint256)":"081812fc","getRoleAdmin(bytes32)":"248a9ca3","grantRole(bytes32,address)":"2f2ff15d","hasRole(bytes32,address)":"91d14854","isApprovedForAll(address,address)":"e985e9c5","isLicenseActive(uint256)":"e705c2b8","licenses(uint256)":"33790845","name()":"06fdde03","ownerOf(uint256)":"6352211e","pause()":"8456cb59","paused()":"5c975abb","plans(bytes32)":"aa4f2653","renounceRole(bytes32,address)":"36568abe","revokeRole(bytes32,address)":"d547741f","safeTransferFrom(address,address,uint256)":"42842e0e","safeTransferFrom(address,address,uint256,bytes)":"b88d4fde","setApprovalForAll(address,bool)":"a22cb465","setPlan(bytes32,uint256,uint256,uint64,bool)":"6ebe77b2","setTreasury(address)":"f0f44260","stableToken()":"a9d75b2b","supportsInterface(bytes4)":"01ffc9a7","symbol()":"95d89b41","tokenURI(uint256)":"c87b56dd","transferFrom(address,address,uint256)":"23b872dd","treasury()":"61d027b3","unpause()":"3f4ba83a"}}}}}