{"contracts/BountyEscrow.sol":{"BountyEscrow":{"abi":[{"inputs":[{"internalType":"address","name":"admin","type":"address"}],"stateMutability":"nonpayable","type":"constructor"},{"inputs":[],"name":"AccessControlBadConfirmation","type":"error"},{"inputs":[{"internalType":"address","name":"account","type":"address"},{"internalType":"bytes32","name":"neededRole","type":"bytes32"}],"name":"AccessControlUnauthorizedAccount","type":"error"},{"inputs":[],"name":"EnforcedPause","type":"error"},{"inputs":[],"name":"ExpectedPause","type":"error"},{"inputs":[],"name":"ReentrancyGuardReentrantCall","type":"error"},{"anonymous":false,"inputs":[{"indexed":true,"internalType":"uint256","name":"bountyId","type":"uint256"},{"indexed":true,"internalType":"address","name":"creator","type":"address"},{"indexed":true,"internalType":"address","name":"token","type":"address"},{"indexed":false,"internalType":"uint256","name":"amount","type":"uint256"},{"indexed":false,"internalType":"uint64","name":"deadline","type":"uint64"}],"name":"BountyCreated","type":"event"},{"anonymous":false,"inputs":[{"indexed":true,"internalType":"uint256","name":"bountyId","type":"uint256"},{"indexed":true,"internalType":"address","name":"creator","type":"address"},{"indexed":false,"internalType":"uint256","name":"amount","type":"uint256"}],"name":"BountyRefunded","type":"event"},{"anonymous":false,"inputs":[{"indexed":true,"internalType":"uint256","name":"bountyId","type":"uint256"},{"indexed":true,"internalType":"address","name":"hunter","type":"address"},{"indexed":false,"internalType":"uint256","name":"amount","type":"uint256"}],"name":"ClaimApproved","type":"event"},{"anonymous":false,"inputs":[{"indexed":true,"internalType":"uint256","name":"bountyId","type":"uint256"},{"indexed":true,"internalType":"address","name":"caller","type":"address"}],"name":"ClaimDisputed","type":"event"},{"anonymous":false,"inputs":[{"indexed":true,"internalType":"uint256","name":"bountyId","type":"uint256"},{"indexed":true,"internalType":"address","name":"hunter","type":"address"},{"indexed":false,"internalType":"string","name":"cid","type":"string"},{"indexed":false,"internalType":"bytes32","name":"contentHash","type":"bytes32"}],"name":"ClaimSubmitted","type":"event"},{"anonymous":false,"inputs":[{"indexed":false,"internalType":"address","name":"account","type":"address"}],"name":"Paused","type":"event"},{"anonymous":false,"inputs":[{"indexed":true,"internalType":"bytes32","name":"role","type":"bytes32"},{"indexed":true,"internalType":"bytes32","name":"previousAdminRole","type":"bytes32"},{"indexed":true,"internalType":"bytes32","name":"newAdminRole","type":"bytes32"}],"name":"RoleAdminChanged","type":"event"},{"anonymous":false,"inputs":[{"indexed":true,"internalType":"bytes32","name":"role","type":"bytes32"},{"indexed":true,"internalType":"address","name":"account","type":"address"},{"indexed":true,"internalType":"address","name":"sender","type":"address"}],"name":"RoleGranted","type":"event"},{"anonymous":false,"inputs":[{"indexed":true,"internalType":"bytes32","name":"role","type":"bytes32"},{"indexed":true,"internalType":"address","name":"account","type":"address"},{"indexed":true,"internalType":"address","name":"sender","type":"address"}],"name":"RoleRevoked","type":"event"},{"anonymous":false,"inputs":[{"indexed":false,"internalType":"address","name":"account","type":"address"}],"name":"Unpaused","type":"event"},{"inputs":[],"name":"DEFAULT_ADMIN_ROLE","outputs":[{"internalType":"bytes32","name":"","type":"bytes32"}],"stateMutability":"view","type":"function"},{"inputs":[],"name":"PAUSER_ROLE","outputs":[{"internalType":"bytes32","name":"","type":"bytes32"}],"stateMutability":"view","type":"function"},{"inputs":[],"name":"REVIEWER_ROLE","outputs":[{"internalType":"bytes32","name":"","type":"bytes32"}],"stateMutability":"view","type":"function"},{"inputs":[{"internalType":"uint256","name":"bountyId","type":"uint256"}],"name":"approveClaim","outputs":[],"stateMutability":"nonpayable","type":"function"},{"inputs":[{"internalType":"uint256","name":"","type":"uint256"}],"name":"bounties","outputs":[{"internalType":"address","name":"creator","type":"address"},{"internalType":"address","name":"token","type":"address"},{"internalType":"uint256","name":"amount","type":"uint256"},{"internalType":"uint64","name":"deadline","type":"uint64"},{"internalType":"enum BountyEscrow.BountyState","name":"state","type":"uint8"}],"stateMutability":"view","type":"function"},{"inputs":[{"internalType":"uint256","name":"","type":"uint256"}],"name":"claims","outputs":[{"internalType":"address","name":"hunter","type":"address"},{"internalType":"string","name":"cid","type":"string"},{"internalType":"bytes32","name":"contentHash","type":"bytes32"},{"internalType":"bool","name":"exists","type":"bool"}],"stateMutability":"view","type":"function"},{"inputs":[{"internalType":"uint64","name":"deadline","type":"uint64"}],"name":"createNativeBounty","outputs":[{"internalType":"uint256","name":"bountyId","type":"uint256"}],"stateMutability":"payable","type":"function"},{"inputs":[{"internalType":"address","name":"token","type":"address"},{"internalType":"uint256","name":"amount","type":"uint256"},{"internalType":"uint64","name":"deadline","type":"uint64"}],"name":"createTokenBounty","outputs":[{"internalType":"uint256","name":"bountyId","type":"uint256"}],"stateMutability":"nonpayable","type":"function"},{"inputs":[{"internalType":"uint256","name":"bountyId","type":"uint256"}],"name":"disputeClaim","outputs":[],"stateMutability":"nonpayable","type":"function"},{"inputs":[{"internalType":"bytes32","name":"role","type":"bytes32"}],"name":"getRoleAdmin","outputs":[{"internalType":"bytes32","name":"","type":"bytes32"}],"stateMutability":"view","type":"function"},{"inputs":[{"internalType":"bytes32","name":"role","type":"bytes32"},{"internalType":"address","name":"account","type":"address"}],"name":"grantRole","outputs":[],"stateMutability":"nonpayable","type":"function"},{"inputs":[{"internalType":"bytes32","name":"role","type":"bytes32"},{"internalType":"address","name":"account","type":"address"}],"name":"hasRole","outputs":[{"internalType":"bool","name":"","type":"bool"}],"stateMutability":"view","type":"function"},{"inputs":[],"name":"nextBountyId","outputs":[{"internalType":"uint256","name":"","type":"uint256"}],"stateMutability":"view","type":"function"},{"inputs":[],"name":"pause","outputs":[],"stateMutability":"nonpayable","type":"function"},{"inputs":[],"name":"paused","outputs":[{"internalType":"bool","name":"","type":"bool"}],"stateMutability":"view","type":"function"},{"inputs":[{"internalType":"uint256","name":"bountyId","type":"uint256"}],"name":"refundExpiredBounty","outputs":[],"stateMutability":"nonpayable","type":"function"},{"inputs":[{"internalType":"bytes32","name":"role","type":"bytes32"},{"internalType":"address","name":"callerConfirmation","type":"address"}],"name":"renounceRole","outputs":[],"stateMutability":"nonpayable","type":"function"},{"inputs":[{"internalType":"bytes32","name":"role","type":"bytes32"},{"internalType":"address","name":"account","type":"address"}],"name":"revokeRole","outputs":[],"stateMutability":"nonpayable","type":"function"},{"inputs":[{"internalType":"uint256","name":"bountyId","type":"uint256"},{"internalType":"string","name":"cid","type":"string"},{"internalType":"bytes32","name":"contentHash","type":"bytes32"}],"name":"submitClaim","outputs":[],"stateMutability":"nonpayable","type":"function"},{"inputs":[{"internalType":"bytes4","name":"interfaceId","type":"bytes4"}],"name":"supportsInterface","outputs":[{"internalType":"bool","name":"","type":"bool"}],"stateMutability":"view","type":"function"},{"inputs":[],"name":"unpause","outputs":[],"stateMutability":"nonpayable","type":"function"}],"evm":{"bytecode":{"linkReferences":{},"object":"6080346100a557601f611add38819003918201601f19168301916001600160401b038311848410176100a9578084926020946040528339810103126100a557516001600160a01b03811681036100a5576100959060017f9b779b17422d0df92223018b32b4d1fa46e071723d6817e2486d003becc55f00556001600255610085816100bd565b5061008f81610133565b506101c6565b50604051611803908161025a8239f35b5f80fd5b634e487b7160e01b5f52604160045260245ffd5b6001600160a01b0381165f9081525f80516020611abd833981519152602052604090205460ff1661012e576001600160a01b03165f8181525f80516020611abd83398151915260205260408120805460ff191660011790553391905f80516020611a5d8339815191528180a4600190565b505f90565b6001600160a01b0381165f9081525f80516020611a7d833981519152602052604090205460ff1661012e576001600160a01b03165f8181525f80516020611a7d83398151915260205260408120805460ff191660011790553391907fc10c77be35aff266144ed64c26a1fa104bae2f284ae99ac4a34203454704a185905f80516020611a5d8339815191529080a4600190565b6001600160a01b0381165f9081525f80516020611a9d833981519152602052604090205460ff1661012e576001600160a01b03165f8181525f80516020611a9d83398151915260205260408120805460ff191660011790553391907f65d7a28e3265b37a6474929f336521b332c1681b933f6cb9f3376673440d862a905f80516020611a5d8339815191529080a460019056fe6080806040526004361015610012575f80fd5b5f3560e01c90816301ffc9a714611352575080630f2aff03146110bb578063248a9ca3146110895780632f2ff15d1461104c57806336568abe146110085780633b129a5614610fce5780633f4ba83a14610f6857806346e3013514610ceb5780634b452d3614610ba55780635c975abb14610b8357806375cbbcf0146109145780638456cb59146108bc5780638f7e9eb1146104c057806391d14854146104785780639302f1041461035c578063a217fddf14610342578063a888c2cd14610231578063d547741f146101ed578063dc2f87441461015e578063e63ab1e9146101245763fd14fad414610103575f80fd5b34610120575f366003190112610120576020600254604051908152f35b5f80fd5b34610120575f3660031901126101205760206040517f65d7a28e3265b37a6474929f336521b332c1681b933f6cb9f3376673440d862a8152f35b34610120576020366003190112610120576004355f52600360205260405f2060018060a01b038154166001600160401b0360018060a01b0360018401541692600360028201549101549060ff8260401c16946040519485526020850152604084015216606082015260048210156101d95760a0916080820152f35b634e487b7160e01b5f52602160045260245ffd5b346101205760403660031901126101205761022f60043561020c6113a5565b9061022a610225825f525f602052600160405f20015490565b611652565b611712565b005b34610120576020366003190112610120576004355f52600460205260405f2060018060a01b038154166001820190604051915f93815491610271836113bb565b9081865260208601936001811690815f1461032557506001146102eb575b50506102a08460a09596038661140e565b60ff6003600283015492015416906040519586948552608060208601525180938160808701528686015e5f848401860152604084015215156060830152601f01601f19168101030190f35b9095505f5260205f205f905b86821061030f5750840160200194506102a08461028f565b6001816020925483858a010152019101906102f7565b60ff191685525050151560051b840160200194506102a08461028f565b34610120575f3660031901126101205760206040515f8152f35b3461012057602036600319011261012057600435805f52600360205260405f2060018060a01b0381541633148015610441575b1561040b5760030160ff815460401c1660048110156101d9576103b290156114b4565b815f5260046020526103cd60ff600360405f200154166114f2565b805460ff60401b19166802000000000000000017905533907f8a46e053617eb5508519fd173444f6b34a1a1ddbe2713bff5451ebc7d6203bd25f80a3005b60405162461bcd60e51b815260206004820152600e60248201526d139bdd08185d5d1a1bdc9a5e995960921b6044820152606490fd5b50335f9081527f5c91a81dd90adcbb976f07115cdaa60f95931610e4c2893856278a1e5607a9cc602052604090205460ff1661038f565b34610120576040366003190112610120576104916113a5565b6004355f525f60205260405f209060018060a01b03165f52602052602060ff60405f2054166040519015158152f35b34610120576060366003190112610120576024356004356001600160401b0382116101205736602383011215610120578160040135906001600160401b03821161012057602483019260248336920101116101205760443592610521611792565b5f82815260036020526040902080546001600160a01b031615610886576003015460ff8160401c169060048210156101d9576105656001600160401b0392156114b4565b16421161085057815f52600460205260ff600360405f2001541661080b5782156107d75760405193608085018581106001600160401b038211176107c3576040523385526105b28461146a565b946105c0604051968761140e565b848652848360208801375f60208688010152602081019586526040810190828252606081019160018352855f52600460205260405f209160018060a01b039060018060a01b03905116166bffffffffffffffffffffffff60a01b8354161782556001820197519788516001600160401b0381116107c35761064182546113bb565b601f811161077e575b506020601f82116001146106f55790806003959493927ff975939e3c381cc7adeb624d3922c3f8f9743c4419ea9bb9ab48d999249466f39a9b9c5f926106ea575b50508160011b915f1990871b1c19161790555b516002820155019051151560ff8019835416911617905584604051926040845281604085015260608401375f6060868401015260208201526060813395601f80199101168101030190a3005b015190508c8061068b565b601f1982169a835f52815f209b5f5b81811061076657509b60019284926003989796957ff975939e3c381cc7adeb624d3922c3f8f9743c4419ea9bb9ab48d999249466f39d9e9f1061074f575b505050811b01905561069e565b01515f1983891b60f8161c191690558c8080610742565b838301518e556001909d019c60209384019301610704565b825f5260205f20601f830160051c810191602084106107b9575b601f0160051c01905b8181106107ae575061064a565b5f81556001016107a1565b9091508190610798565b634e487b7160e01b5f52604160045260245ffd5b60405162461bcd60e51b815260206004820152600c60248201526b10d251081c995c5d5a5c995960a21b6044820152606490fd5b60405162461bcd60e51b815260206004820152601760248201527f436c61696d20616c7265616479207375626d69747465640000000000000000006044820152606490fd5b60405162461bcd60e51b815260206004820152600e60248201526d109bdd5b9d1e48195e1c1a5c995960921b6044820152606490fd5b60405162461bcd60e51b815260206004820152600e60248201526d426f756e7479206d697373696e6760901b6044820152606490fd5b34610120575f366003190112610120576108d46115e3565b6108dc611792565b600160ff19815416176001557f62e78cea01bee320cd4e420270b5ea74000d11b0c9f74754ebdbfc544b05a2586020604051338152a1005b34610120576060366003190112610120576004356001600160a01b03811690819003610120576044356001600160401b038116916024358383036101205761095a611792565b8115610b4e5761096b81151561152e565b61097642851161156c565b6040516323b872dd60e01b8152336004820152306024820152604481018290526020816064815f875af1908115610b43575f91610b14575b5015610ad7576002549260018401808511610ac3576002556040516109d2816113f3565b3381526020808201858152604080840186815260608501998a525f608086018181528a8252600395869052929020945185546001600160a01b03199081166001600160a01b0392831617875593516001870180549095169116179092559051600284015596519101805467ffffffffffffffff19166001600160401b039290921691909117815594519460048610156101d957610ab88592610a976020987fef5aa6fec12deed7db95f096e3c3cd32ac01017be011694877ec63f9cba1a2dd9461142f565b604080519586526001600160401b0390911660208601523394918291820190565b0390a4604051908152f35b634e487b7160e01b5f52601160045260245ffd5b60405162461bcd60e51b8152602060048201526015602482015274151bdad95b881d1c985b9cd9995c8819985a5b1959605a1b6044820152606490fd5b610b36915060203d602011610b3c575b610b2e818361140e565b810190611452565b856109ae565b503d610b24565b6040513d5f823e3d90fd5b60405162461bcd60e51b815260206004820152600d60248201526c24b73b30b634b2103a37b5b2b760991b6044820152606490fd5b34610120575f36600319011261012057602060ff600154166040519015158152f35b6020366003190112610120576004356001600160401b0381169081810361012057610bce611792565b610bd934151561152e565b610be442831161156c565b6002549060018201808311610ac357600255604051610c02816113f3565b3381525f602080830182815234604080860191825260608601988952608086018581528886526003948590529420945185546001600160a01b03199081166001600160a01b039283161787559251600187018054909416911617909155516002840155945191909401805467ffffffffffffffff19166001600160401b039290921691909117815592519060048210156101d957610ca35f9260209561142f565b827fef5aa6fec12deed7db95f096e3c3cd32ac01017be011694877ec63f9cba1a2dd60405180610ab8339534839092916001600160401b036020916040840195845216910152565b3461012057602036600319011261012057600435610d076115ab565b335f9081527f5c91a81dd90adcbb976f07115cdaa60f95931610e4c2893856278a1e5607a9cc602052604090205460ff1615610f3157805f52600360205260405f2090805f52600460205260405f206003830160ff815460401c1660048110156101d957610d7590156114b4565b610d8560ff6003840154166114f2565b805460ff60401b19166801000000000000000017905560018301546001600160a01b031680610e6057505f80808060018060a01b038554166002880154905af1610dcd611485565b5015610e2457602060027f0b582d60859bb6c5e17bb049bc83044c0c8dab7d0a026b4e3a4a2966d8926de5925b549401546040519081526001600160a01b0390941693a360015f805160206117ae83398151915255005b60405162461bcd60e51b815260206004820152601460248201527313985d1a5d99481c185e5bdd5d0819985a5b195960621b6044820152606490fd5b8154600285015460405163a9059cbb60e01b81526001600160a01b039092166004830152602482015290602090829060449082905f905af1908115610b43575f91610f12575b5015610ed757602060027f0b582d60859bb6c5e17bb049bc83044c0c8dab7d0a026b4e3a4a2966d8926de592610dfa565b60405162461bcd60e51b8152602060048201526013602482015272151bdad95b881c185e5bdd5d0819985a5b1959606a1b6044820152606490fd5b610f2b915060203d602011610b3c57610b2e818361140e565b84610ea6565b63e2517d3f60e01b5f52336004527fc10c77be35aff266144ed64c26a1fa104bae2f284ae99ac4a34203454704a18560245260445ffd5b34610120575f36600319011261012057610f806115e3565b60015460ff811615610fbf5760ff19166001557f5db9ee0a495bf2e6ff9c91a7834c1ba4fdd244a5e8aa4e537bd38aeae4b073aa6020604051338152a1005b638dfc202b60e01b5f5260045ffd5b34610120575f3660031901126101205760206040517fc10c77be35aff266144ed64c26a1fa104bae2f284ae99ac4a34203454704a1858152f35b34610120576040366003190112610120576110216113a5565b336001600160a01b0382160361103d5761022f90600435611712565b63334bd91960e11b5f5260045ffd5b346101205760403660031901126101205761022f60043561106b6113a5565b90611084610225825f525f602052600160405f20015490565b61168a565b346101205760203660031901126101205760206110b36004355f525f602052600160405f20015490565b604051908152f35b34610120576020366003190112610120576004356110d76115ab565b5f81815260036020526040902080549091906001600160a01b0316330361131f576003820180546001600160401b0381164211156112ea5760401c60ff1660048110156101d95780159081156112df575b50156112aa57805460ff60401b19166803000000000000000017905560018201546001600160a01b03168061120557505f80808060018060a01b038654166002870154905af1611176611485565b50156111c9575b7ff1ed347f033f54c0d6f1589c933d81b4256cf2f72a785106e3653a565f7433a26020600260018060a01b03855416940154604051908152a360015f805160206117ae83398151915255005b60405162461bcd60e51b815260206004820152601460248201527313985d1a5d99481c99599d5b990819985a5b195960621b6044820152606490fd5b8254600284015460405163a9059cbb60e01b81526001600160a01b039092166004830152602482015290602090829060449082905f905af1908115610b43575f9161128b575b5061117d5760405162461bcd60e51b8152602060048201526013602482015272151bdad95b881c99599d5b990819985a5b1959606a1b6044820152606490fd5b6112a4915060203d602011610b3c57610b2e818361140e565b8361124b565b60405162461bcd60e51b815260206004820152600d60248201526c10d85b9b9bdd081c99599d5b99609a1b6044820152606490fd5b600291501484611128565b60405162461bcd60e51b815260206004820152600d60248201526c426f756e74792061637469766560981b6044820152606490fd5b60405162461bcd60e51b815260206004820152600b60248201526a2737ba1031b932b0ba37b960a91b6044820152606490fd5b34610120576020366003190112610120576004359063ffffffff60e01b821680920361012057602091637965db0b60e01b8114908115611394575b5015158152f35b6301ffc9a760e01b1490508361138d565b602435906001600160a01b038216820361012057565b90600182811c921680156113e9575b60208310146113d557565b634e487b7160e01b5f52602260045260245ffd5b91607f16916113ca565b60a081019081106001600160401b038211176107c357604052565b90601f801991011681019081106001600160401b038211176107c357604052565b9060048110156101d95760ff60401b82549160401b169060ff60401b1916179055565b90816020910312610120575180151581036101205790565b6001600160401b0381116107c357601f01601f191660200190565b3d156114af573d906114968261146a565b916114a4604051938461140e565b82523d5f602084013e565b606090565b156114bb57565b60405162461bcd60e51b815260206004820152600f60248201526e2137bab73a3c903737ba1037b832b760891b6044820152606490fd5b156114f957565b60405162461bcd60e51b815260206004820152600d60248201526c436c61696d206d697373696e6760981b6044820152606490fd5b1561153557565b60405162461bcd60e51b815260206004820152600f60248201526e105b5bdd5b9d081c995c5d5a5c9959608a1b6044820152606490fd5b1561157357565b60405162461bcd60e51b815260206004820152601060248201526f111958591b1a5b99481a5b881c185cdd60821b6044820152606490fd5b60025f805160206117ae83398151915254146115d45760025f805160206117ae83398151915255565b633ee5aeb560e01b5f5260045ffd5b335f9081527ff7c9542c591017a21c74b6f3fab6263c7952fc0aaf9db4c22a2a04ddc7f8674f602052604090205460ff161561161b57565b63e2517d3f60e01b5f52336004527f65d7a28e3265b37a6474929f336521b332c1681b933f6cb9f3376673440d862a60245260445ffd5b5f8181526020818152604080832033845290915290205460ff16156116745750565b63e2517d3f60e01b5f523360045260245260445ffd5b5f818152602081815260408083206001600160a01b038616845290915290205460ff1661170c575f818152602081815260408083206001600160a01b0395909516808452949091528120805460ff19166001179055339291907f2f8788117e7eff1d82e926ec794901d17c78024a50270940304540a733656f0d9080a4600190565b50505f90565b5f818152602081815260408083206001600160a01b038616845290915290205460ff161561170c575f818152602081815260408083206001600160a01b0395909516808452949091528120805460ff19169055339291907ff6391f5c32d9c69d2a47ea670b442974b53935d1edc7fd64eb21e047a839171b9080a4600190565b60ff6001541661179e57565b63d93c066560e01b5f5260045ffdfe9b779b17422d0df92223018b32b4d1fa46e071723d6817e2486d003becc55f00a26469706673582212205ab5198bf442c0114116ce640a646d87b3d3ac15ec9f12436be1c85580482db264736f6c634300081a00332f8788117e7eff1d82e926ec794901d17c78024a50270940304540a733656f0d5c91a81dd90adcbb976f07115cdaa60f95931610e4c2893856278a1e5607a9ccf7c9542c591017a21c74b6f3fab6263c7952fc0aaf9db4c22a2a04ddc7f8674fad3228b676f7d3cd4284a5443f17f1962b36e491b30a40b2405849e597ba5fb5","opcodes":"PUSH1 0x80 CALLVALUE PUSH2 0xA5 JUMPI PUSH1 0x1F PUSH2 0x1ADD CODESIZE DUP2 SWAP1 SUB SWAP2 DUP3 ADD PUSH1 0x1F NOT AND DUP4 ADD SWAP2 PUSH1 0x1 PUSH1 0x1 PUSH1 0x40 SHL SUB DUP4 GT DUP5 DUP5 LT OR PUSH2 0xA9 JUMPI DUP1 DUP5 SWAP3 PUSH1 0x20 SWAP5 PUSH1 0x40 MSTORE DUP4 CODECOPY DUP2 ADD SUB SLT PUSH2 0xA5 JUMPI MLOAD PUSH1 0x1 PUSH1 0x1 PUSH1 0xA0 SHL SUB DUP2 AND DUP2 SUB PUSH2 0xA5 JUMPI PUSH2 0x95 SWAP1 PUSH1 0x1 PUSH32 0x9B779B17422D0DF92223018B32B4D1FA46E071723D6817E2486D003BECC55F00 SSTORE PUSH1 0x1 PUSH1 0x2 SSTORE PUSH2 0x85 DUP2 PUSH2 0xBD JUMP JUMPDEST POP PUSH2 0x8F DUP2 PUSH2 0x133 JUMP JUMPDEST POP PUSH2 0x1C6 JUMP JUMPDEST POP PUSH1 0x40 MLOAD PUSH2 0x1803 SWAP1 DUP2 PUSH2 0x25A DUP3 CODECOPY RETURN JUMPDEST PUSH0 DUP1 REVERT JUMPDEST PUSH4 0x4E487B71 PUSH1 0xE0 SHL PUSH0 MSTORE PUSH1 0x41 PUSH1 0x4 MSTORE PUSH1 0x24 PUSH0 REVERT JUMPDEST PUSH1 0x1 PUSH1 0x1 PUSH1 0xA0 SHL SUB DUP2 AND PUSH0 SWAP1 DUP2 MSTORE PUSH0 DUP1 MLOAD PUSH1 0x20 PUSH2 0x1ABD DUP4 CODECOPY DUP2 MLOAD SWAP2 MSTORE PUSH1 0x20 MSTORE PUSH1 0x40 SWAP1 KECCAK256 SLOAD PUSH1 0xFF AND PUSH2 0x12E JUMPI PUSH1 0x1 PUSH1 0x1 PUSH1 0xA0 SHL SUB AND PUSH0 DUP2 DUP2 MSTORE PUSH0 DUP1 MLOAD PUSH1 0x20 PUSH2 0x1ABD DUP4 CODECOPY DUP2 MLOAD SWAP2 MSTORE PUSH1 0x20 MSTORE PUSH1 0x40 DUP2 KECCAK256 DUP1 SLOAD PUSH1 0xFF NOT AND PUSH1 0x1 OR SWAP1 SSTORE CALLER SWAP2 SWAP1 PUSH0 DUP1 MLOAD PUSH1 0x20 PUSH2 0x1A5D DUP4 CODECOPY DUP2 MLOAD SWAP2 MSTORE DUP2 DUP1 LOG4 PUSH1 0x1 SWAP1 JUMP JUMPDEST POP PUSH0 SWAP1 JUMP JUMPDEST PUSH1 0x1 PUSH1 0x1 PUSH1 0xA0 SHL SUB DUP2 AND PUSH0 SWAP1 DUP2 MSTORE PUSH0 DUP1 MLOAD PUSH1 0x20 PUSH2 0x1A7D DUP4 CODECOPY DUP2 MLOAD SWAP2 MSTORE PUSH1 0x20 MSTORE PUSH1 0x40 SWAP1 KECCAK256 SLOAD PUSH1 0xFF AND PUSH2 0x12E JUMPI PUSH1 0x1 PUSH1 0x1 PUSH1 0xA0 SHL SUB AND PUSH0 DUP2 DUP2 MSTORE PUSH0 DUP1 MLOAD PUSH1 0x20 PUSH2 0x1A7D DUP4 CODECOPY DUP2 MLOAD SWAP2 MSTORE PUSH1 0x20 MSTORE PUSH1 0x40 DUP2 KECCAK256 DUP1 SLOAD PUSH1 0xFF NOT AND PUSH1 0x1 OR SWAP1 SSTORE CALLER SWAP2 SWAP1 PUSH32 0xC10C77BE35AFF266144ED64C26A1FA104BAE2F284AE99AC4A34203454704A185 SWAP1 PUSH0 DUP1 MLOAD PUSH1 0x20 PUSH2 0x1A5D DUP4 CODECOPY DUP2 MLOAD SWAP2 MSTORE SWAP1 DUP1 LOG4 PUSH1 0x1 SWAP1 JUMP JUMPDEST PUSH1 0x1 PUSH1 0x1 PUSH1 0xA0 SHL SUB DUP2 AND PUSH0 SWAP1 DUP2 MSTORE PUSH0 DUP1 MLOAD PUSH1 0x20 PUSH2 0x1A9D DUP4 CODECOPY DUP2 MLOAD SWAP2 MSTORE PUSH1 0x20 MSTORE PUSH1 0x40 SWAP1 KECCAK256 SLOAD PUSH1 0xFF AND PUSH2 0x12E JUMPI PUSH1 0x1 PUSH1 0x1 PUSH1 0xA0 SHL SUB AND PUSH0 DUP2 DUP2 MSTORE PUSH0 DUP1 MLOAD PUSH1 0x20 PUSH2 0x1A9D DUP4 CODECOPY DUP2 MLOAD SWAP2 MSTORE PUSH1 0x20 MSTORE PUSH1 0x40 DUP2 KECCAK256 DUP1 SLOAD PUSH1 0xFF NOT AND PUSH1 0x1 OR SWAP1 SSTORE CALLER SWAP2 SWAP1 PUSH32 0x65D7A28E3265B37A6474929F336521B332C1681B933F6CB9F3376673440D862A SWAP1 PUSH0 DUP1 MLOAD PUSH1 0x20 PUSH2 0x1A5D DUP4 CODECOPY DUP2 MLOAD SWAP2 MSTORE SWAP1 DUP1 LOG4 PUSH1 0x1 SWAP1 JUMP INVALID PUSH1 0x80 DUP1 PUSH1 0x40 MSTORE PUSH1 0x4 CALLDATASIZE LT ISZERO PUSH2 0x12 JUMPI PUSH0 DUP1 REVERT JUMPDEST PUSH0 CALLDATALOAD PUSH1 0xE0 SHR SWAP1 DUP2 PUSH4 0x1FFC9A7 EQ PUSH2 0x1352 JUMPI POP DUP1 PUSH4 0xF2AFF03 EQ PUSH2 0x10BB JUMPI DUP1 PUSH4 0x248A9CA3 EQ PUSH2 0x1089 JUMPI DUP1 PUSH4 0x2F2FF15D EQ PUSH2 0x104C JUMPI DUP1 PUSH4 0x36568ABE EQ PUSH2 0x1008 JUMPI DUP1 PUSH4 0x3B129A56 EQ PUSH2 0xFCE JUMPI DUP1 PUSH4 0x3F4BA83A EQ PUSH2 0xF68 JUMPI DUP1 PUSH4 0x46E30135 EQ PUSH2 0xCEB JUMPI DUP1 PUSH4 0x4B452D36 EQ PUSH2 0xBA5 JUMPI DUP1 PUSH4 0x5C975ABB EQ PUSH2 0xB83 JUMPI DUP1 PUSH4 0x75CBBCF0 EQ PUSH2 0x914 JUMPI DUP1 PUSH4 0x8456CB59 EQ PUSH2 0x8BC JUMPI DUP1 PUSH4 0x8F7E9EB1 EQ PUSH2 0x4C0 JUMPI DUP1 PUSH4 0x91D14854 EQ PUSH2 0x478 JUMPI DUP1 PUSH4 0x9302F104 EQ PUSH2 0x35C JUMPI DUP1 PUSH4 0xA217FDDF EQ PUSH2 0x342 JUMPI DUP1 PUSH4 0xA888C2CD EQ PUSH2 0x231 JUMPI DUP1 PUSH4 0xD547741F EQ PUSH2 0x1ED JUMPI DUP1 PUSH4 0xDC2F8744 EQ PUSH2 0x15E JUMPI DUP1 PUSH4 0xE63AB1E9 EQ PUSH2 0x124 JUMPI PUSH4 0xFD14FAD4 EQ PUSH2 0x103 JUMPI PUSH0 DUP1 REVERT JUMPDEST CALLVALUE PUSH2 0x120 JUMPI PUSH0 CALLDATASIZE PUSH1 0x3 NOT ADD SLT PUSH2 0x120 JUMPI PUSH1 0x20 PUSH1 0x2 SLOAD PUSH1 0x40 MLOAD SWAP1 DUP2 MSTORE RETURN JUMPDEST PUSH0 DUP1 REVERT JUMPDEST CALLVALUE PUSH2 0x120 JUMPI PUSH0 CALLDATASIZE PUSH1 0x3 NOT ADD SLT PUSH2 0x120 JUMPI PUSH1 0x20 PUSH1 0x40 MLOAD PUSH32 0x65D7A28E3265B37A6474929F336521B332C1681B933F6CB9F3376673440D862A DUP2 MSTORE RETURN JUMPDEST CALLVALUE PUSH2 0x120 JUMPI PUSH1 0x20 CALLDATASIZE PUSH1 0x3 NOT ADD SLT PUSH2 0x120 JUMPI PUSH1 0x4 CALLDATALOAD PUSH0 MSTORE PUSH1 0x3 PUSH1 0x20 MSTORE PUSH1 0x40 PUSH0 KECCAK256 PUSH1 0x1 DUP1 PUSH1 0xA0 SHL SUB DUP2 SLOAD AND PUSH1 0x1 PUSH1 0x1 PUSH1 0x40 SHL SUB PUSH1 0x1 DUP1 PUSH1 0xA0 SHL SUB PUSH1 0x1 DUP5 ADD SLOAD AND SWAP3 PUSH1 0x3 PUSH1 0x2 DUP3 ADD SLOAD SWAP2 ADD SLOAD SWAP1 PUSH1 0xFF DUP3 PUSH1 0x40 SHR AND SWAP5 PUSH1 0x40 MLOAD SWAP5 DUP6 MSTORE PUSH1 0x20 DUP6 ADD MSTORE PUSH1 0x40 DUP5 ADD MSTORE AND PUSH1 0x60 DUP3 ADD MSTORE PUSH1 0x4 DUP3 LT ISZERO PUSH2 0x1D9 JUMPI PUSH1 0xA0 SWAP2 PUSH1 0x80 DUP3 ADD MSTORE RETURN JUMPDEST PUSH4 0x4E487B71 PUSH1 0xE0 SHL PUSH0 MSTORE PUSH1 0x21 PUSH1 0x4 MSTORE PUSH1 0x24 PUSH0 REVERT JUMPDEST CALLVALUE PUSH2 0x120 JUMPI PUSH1 0x40 CALLDATASIZE PUSH1 0x3 NOT ADD SLT PUSH2 0x120 JUMPI PUSH2 0x22F PUSH1 0x4 CALLDATALOAD PUSH2 0x20C PUSH2 0x13A5 JUMP JUMPDEST SWAP1 PUSH2 0x22A PUSH2 0x225 DUP3 PUSH0 MSTORE PUSH0 PUSH1 0x20 MSTORE PUSH1 0x1 PUSH1 0x40 PUSH0 KECCAK256 ADD SLOAD SWAP1 JUMP JUMPDEST PUSH2 0x1652 JUMP JUMPDEST PUSH2 0x1712 JUMP JUMPDEST STOP JUMPDEST CALLVALUE PUSH2 0x120 JUMPI PUSH1 0x20 CALLDATASIZE PUSH1 0x3 NOT ADD SLT PUSH2 0x120 JUMPI PUSH1 0x4 CALLDATALOAD PUSH0 MSTORE PUSH1 0x4 PUSH1 0x20 MSTORE PUSH1 0x40 PUSH0 KECCAK256 PUSH1 0x1 DUP1 PUSH1 0xA0 SHL SUB DUP2 SLOAD AND PUSH1 0x1 DUP3 ADD SWAP1 PUSH1 0x40 MLOAD SWAP2 PUSH0 SWAP4 DUP2 SLOAD SWAP2 PUSH2 0x271 DUP4 PUSH2 0x13BB JUMP JUMPDEST SWAP1 DUP2 DUP7 MSTORE PUSH1 0x20 DUP7 ADD SWAP4 PUSH1 0x1 DUP2 AND SWAP1 DUP2 PUSH0 EQ PUSH2 0x325 JUMPI POP PUSH1 0x1 EQ PUSH2 0x2EB JUMPI JUMPDEST POP POP PUSH2 0x2A0 DUP5 PUSH1 0xA0 SWAP6 SWAP7 SUB DUP7 PUSH2 0x140E JUMP JUMPDEST PUSH1 0xFF PUSH1 0x3 PUSH1 0x2 DUP4 ADD SLOAD SWAP3 ADD SLOAD AND SWAP1 PUSH1 0x40 MLOAD SWAP6 DUP7 SWAP5 DUP6 MSTORE PUSH1 0x80 PUSH1 0x20 DUP7 ADD MSTORE MLOAD DUP1 SWAP4 DUP2 PUSH1 0x80 DUP8 ADD MSTORE DUP7 DUP7 ADD MCOPY PUSH0 DUP5 DUP5 ADD DUP7 ADD MSTORE PUSH1 0x40 DUP5 ADD MSTORE ISZERO ISZERO PUSH1 0x60 DUP4 ADD MSTORE PUSH1 0x1F ADD PUSH1 0x1F NOT AND DUP2 ADD SUB ADD SWAP1 RETURN JUMPDEST SWAP1 SWAP6 POP PUSH0 MSTORE PUSH1 0x20 PUSH0 KECCAK256 PUSH0 SWAP1 JUMPDEST DUP7 DUP3 LT PUSH2 0x30F JUMPI POP DUP5 ADD PUSH1 0x20 ADD SWAP5 POP PUSH2 0x2A0 DUP5 PUSH2 0x28F JUMP JUMPDEST PUSH1 0x1 DUP2 PUSH1 0x20 SWAP3 SLOAD DUP4 DUP6 DUP11 ADD ADD MSTORE ADD SWAP2 ADD SWAP1 PUSH2 0x2F7 JUMP JUMPDEST PUSH1 0xFF NOT AND DUP6 MSTORE POP POP ISZERO ISZERO PUSH1 0x5 SHL DUP5 ADD PUSH1 0x20 ADD SWAP5 POP PUSH2 0x2A0 DUP5 PUSH2 0x28F JUMP JUMPDEST CALLVALUE PUSH2 0x120 JUMPI PUSH0 CALLDATASIZE PUSH1 0x3 NOT ADD SLT PUSH2 0x120 JUMPI PUSH1 0x20 PUSH1 0x40 MLOAD PUSH0 DUP2 MSTORE RETURN JUMPDEST CALLVALUE PUSH2 0x120 JUMPI PUSH1 0x20 CALLDATASIZE PUSH1 0x3 NOT ADD SLT PUSH2 0x120 JUMPI PUSH1 0x4 CALLDATALOAD DUP1 PUSH0 MSTORE PUSH1 0x3 PUSH1 0x20 MSTORE PUSH1 0x40 PUSH0 KECCAK256 PUSH1 0x1 DUP1 PUSH1 0xA0 SHL SUB DUP2 SLOAD AND CALLER EQ DUP1 ISZERO PUSH2 0x441 JUMPI JUMPDEST ISZERO PUSH2 0x40B JUMPI PUSH1 0x3 ADD PUSH1 0xFF DUP2 SLOAD PUSH1 0x40 SHR AND PUSH1 0x4 DUP2 LT ISZERO PUSH2 0x1D9 JUMPI PUSH2 0x3B2 SWAP1 ISZERO PUSH2 0x14B4 JUMP JUMPDEST DUP2 PUSH0 MSTORE PUSH1 0x4 PUSH1 0x20 MSTORE PUSH2 0x3CD PUSH1 0xFF PUSH1 0x3 PUSH1 0x40 PUSH0 KECCAK256 ADD SLOAD AND PUSH2 0x14F2 JUMP JUMPDEST DUP1 SLOAD PUSH1 0xFF PUSH1 0x40 SHL NOT AND PUSH9 0x20000000000000000 OR SWAP1 SSTORE CALLER SWAP1 PUSH32 0x8A46E053617EB5508519FD173444F6B34A1A1DDBE2713BFF5451EBC7D6203BD2 PUSH0 DUP1 LOG3 STOP JUMPDEST PUSH1 0x40 MLOAD PUSH3 0x461BCD PUSH1 0xE5 SHL DUP2 MSTORE PUSH1 0x20 PUSH1 0x4 DUP3 ADD MSTORE PUSH1 0xE PUSH1 0x24 DUP3 ADD MSTORE PUSH14 0x139BDD08185D5D1A1BDC9A5E9959 PUSH1 0x92 SHL PUSH1 0x44 DUP3 ADD MSTORE PUSH1 0x64 SWAP1 REVERT JUMPDEST POP CALLER PUSH0 SWAP1 DUP2 MSTORE PUSH32 0x5C91A81DD90ADCBB976F07115CDAA60F95931610E4C2893856278A1E5607A9CC PUSH1 0x20 MSTORE PUSH1 0x40 SWAP1 KECCAK256 SLOAD PUSH1 0xFF AND PUSH2 0x38F JUMP JUMPDEST CALLVALUE PUSH2 0x120 JUMPI PUSH1 0x40 CALLDATASIZE PUSH1 0x3 NOT ADD SLT PUSH2 0x120 JUMPI PUSH2 0x491 PUSH2 0x13A5 JUMP JUMPDEST PUSH1 0x4 CALLDATALOAD PUSH0 MSTORE PUSH0 PUSH1 0x20 MSTORE PUSH1 0x40 PUSH0 KECCAK256 SWAP1 PUSH1 0x1 DUP1 PUSH1 0xA0 SHL SUB AND PUSH0 MSTORE PUSH1 0x20 MSTORE PUSH1 0x20 PUSH1 0xFF PUSH1 0x40 PUSH0 KECCAK256 SLOAD AND PUSH1 0x40 MLOAD SWAP1 ISZERO ISZERO DUP2 MSTORE RETURN JUMPDEST CALLVALUE PUSH2 0x120 JUMPI PUSH1 0x60 CALLDATASIZE PUSH1 0x3 NOT ADD SLT PUSH2 0x120 JUMPI PUSH1 0x24 CALLDATALOAD PUSH1 0x4 CALLDATALOAD PUSH1 0x1 PUSH1 0x1 PUSH1 0x40 SHL SUB DUP3 GT PUSH2 0x120 JUMPI CALLDATASIZE PUSH1 0x23 DUP4 ADD SLT ISZERO PUSH2 0x120 JUMPI DUP2 PUSH1 0x4 ADD CALLDATALOAD SWAP1 PUSH1 0x1 PUSH1 0x1 PUSH1 0x40 SHL SUB DUP3 GT PUSH2 0x120 JUMPI PUSH1 0x24 DUP4 ADD SWAP3 PUSH1 0x24 DUP4 CALLDATASIZE SWAP3 ADD ADD GT PUSH2 0x120 JUMPI PUSH1 0x44 CALLDATALOAD SWAP3 PUSH2 0x521 PUSH2 0x1792 JUMP JUMPDEST PUSH0 DUP3 DUP2 MSTORE PUSH1 0x3 PUSH1 0x20 MSTORE PUSH1 0x40 SWAP1 KECCAK256 DUP1 SLOAD PUSH1 0x1 PUSH1 0x1 PUSH1 0xA0 SHL SUB AND ISZERO PUSH2 0x886 JUMPI PUSH1 0x3 ADD SLOAD PUSH1 0xFF DUP2 PUSH1 0x40 SHR AND SWAP1 PUSH1 0x4 DUP3 LT ISZERO PUSH2 0x1D9 JUMPI PUSH2 0x565 PUSH1 0x1 PUSH1 0x1 PUSH1 0x40 SHL SUB SWAP3 ISZERO PUSH2 0x14B4 JUMP JUMPDEST AND TIMESTAMP GT PUSH2 0x850 JUMPI DUP2 PUSH0 MSTORE PUSH1 0x4 PUSH1 0x20 MSTORE PUSH1 0xFF PUSH1 0x3 PUSH1 0x40 PUSH0 KECCAK256 ADD SLOAD AND PUSH2 0x80B JUMPI DUP3 ISZERO PUSH2 0x7D7 JUMPI PUSH1 0x40 MLOAD SWAP4 PUSH1 0x80 DUP6 ADD DUP6 DUP2 LT PUSH1 0x1 PUSH1 0x1 PUSH1 0x40 SHL SUB DUP3 GT OR PUSH2 0x7C3 JUMPI PUSH1 0x40 MSTORE CALLER DUP6 MSTORE PUSH2 0x5B2 DUP5 PUSH2 0x146A JUMP JUMPDEST SWAP5 PUSH2 0x5C0 PUSH1 0x40 MLOAD SWAP7 DUP8 PUSH2 0x140E JUMP JUMPDEST DUP5 DUP7 MSTORE DUP5 DUP4 PUSH1 0x20 DUP9 ADD CALLDATACOPY PUSH0 PUSH1 0x20 DUP7 DUP9 ADD ADD MSTORE PUSH1 0x20 DUP2 ADD SWAP6 DUP7 MSTORE PUSH1 0x40 DUP2 ADD SWAP1 DUP3 DUP3 MSTORE PUSH1 0x60 DUP2 ADD SWAP2 PUSH1 0x1 DUP4 MSTORE DUP6 PUSH0 MSTORE PUSH1 0x4 PUSH1 0x20 MSTORE PUSH1 0x40 PUSH0 KECCAK256 SWAP2 PUSH1 0x1 DUP1 PUSH1 0xA0 SHL SUB SWAP1 PUSH1 0x1 DUP1 PUSH1 0xA0 SHL SUB SWAP1 MLOAD AND AND PUSH12 0xFFFFFFFFFFFFFFFFFFFFFFFF PUSH1 0xA0 SHL DUP4 SLOAD AND OR DUP3 SSTORE PUSH1 0x1 DUP3 ADD SWAP8 MLOAD SWAP8 DUP9 MLOAD PUSH1 0x1 PUSH1 0x1 PUSH1 0x40 SHL SUB DUP2 GT PUSH2 0x7C3 JUMPI PUSH2 0x641 DUP3 SLOAD PUSH2 0x13BB JUMP JUMPDEST PUSH1 0x1F DUP2 GT PUSH2 0x77E JUMPI JUMPDEST POP PUSH1 0x20 PUSH1 0x1F DUP3 GT PUSH1 0x1 EQ PUSH2 0x6F5 JUMPI SWAP1 DUP1 PUSH1 0x3 SWAP6 SWAP5 SWAP4 SWAP3 PUSH32 0xF975939E3C381CC7ADEB624D3922C3F8F9743C4419EA9BB9AB48D999249466F3 SWAP11 SWAP12 SWAP13 PUSH0 SWAP3 PUSH2 0x6EA JUMPI JUMPDEST POP POP DUP2 PUSH1 0x1 SHL SWAP2 PUSH0 NOT SWAP1 DUP8 SHL SHR NOT AND OR SWAP1 SSTORE JUMPDEST MLOAD PUSH1 0x2 DUP3 ADD SSTORE ADD SWAP1 MLOAD ISZERO ISZERO PUSH1 0xFF DUP1 NOT DUP4 SLOAD AND SWAP2 AND OR SWAP1 SSTORE DUP5 PUSH1 0x40 MLOAD SWAP3 PUSH1 0x40 DUP5 MSTORE DUP2 PUSH1 0x40 DUP6 ADD MSTORE PUSH1 0x60 DUP5 ADD CALLDATACOPY PUSH0 PUSH1 0x60 DUP7 DUP5 ADD ADD MSTORE PUSH1 0x20 DUP3 ADD MSTORE PUSH1 0x60 DUP2 CALLER SWAP6 PUSH1 0x1F DUP1 NOT SWAP2 ADD AND DUP2 ADD SUB ADD SWAP1 LOG3 STOP JUMPDEST ADD MLOAD SWAP1 POP DUP13 DUP1 PUSH2 0x68B JUMP JUMPDEST PUSH1 0x1F NOT DUP3 AND SWAP11 DUP4 PUSH0 MSTORE DUP2 PUSH0 KECCAK256 SWAP12 PUSH0 JUMPDEST DUP2 DUP2 LT PUSH2 0x766 JUMPI POP SWAP12 PUSH1 0x1 SWAP3 DUP5 SWAP3 PUSH1 0x3 SWAP9 SWAP8 SWAP7 SWAP6 PUSH32 0xF975939E3C381CC7ADEB624D3922C3F8F9743C4419EA9BB9AB48D999249466F3 SWAP14 SWAP15 SWAP16 LT PUSH2 0x74F JUMPI JUMPDEST POP POP POP DUP2 SHL ADD SWAP1 SSTORE PUSH2 0x69E JUMP JUMPDEST ADD MLOAD PUSH0 NOT DUP4 DUP10 SHL PUSH1 0xF8 AND SHR NOT AND SWAP1 SSTORE DUP13 DUP1 DUP1 PUSH2 0x742 JUMP JUMPDEST DUP4 DUP4 ADD MLOAD DUP15 SSTORE PUSH1 0x1 SWAP1 SWAP14 ADD SWAP13 PUSH1 0x20 SWAP4 DUP5 ADD SWAP4 ADD PUSH2 0x704 JUMP JUMPDEST DUP3 PUSH0 MSTORE PUSH1 0x20 PUSH0 KECCAK256 PUSH1 0x1F DUP4 ADD PUSH1 0x5 SHR DUP2 ADD SWAP2 PUSH1 0x20 DUP5 LT PUSH2 0x7B9 JUMPI JUMPDEST PUSH1 0x1F ADD PUSH1 0x5 SHR ADD SWAP1 JUMPDEST DUP2 DUP2 LT PUSH2 0x7AE JUMPI POP PUSH2 0x64A JUMP JUMPDEST PUSH0 DUP2 SSTORE PUSH1 0x1 ADD PUSH2 0x7A1 JUMP JUMPDEST SWAP1 SWAP2 POP DUP2 SWAP1 PUSH2 0x798 JUMP JUMPDEST PUSH4 0x4E487B71 PUSH1 0xE0 SHL PUSH0 MSTORE PUSH1 0x41 PUSH1 0x4 MSTORE PUSH1 0x24 PUSH0 REVERT JUMPDEST PUSH1 0x40 MLOAD PUSH3 0x461BCD PUSH1 0xE5 SHL DUP2 MSTORE PUSH1 0x20 PUSH1 0x4 DUP3 ADD MSTORE PUSH1 0xC PUSH1 0x24 DUP3 ADD MSTORE PUSH12 0x10D251081C995C5D5A5C9959 PUSH1 0xA2 SHL PUSH1 0x44 DUP3 ADD MSTORE PUSH1 0x64 SWAP1 REVERT JUMPDEST PUSH1 0x40 MLOAD PUSH3 0x461BCD PUSH1 0xE5 SHL DUP2 MSTORE PUSH1 0x20 PUSH1 0x4 DUP3 ADD MSTORE PUSH1 0x17 PUSH1 0x24 DUP3 ADD MSTORE PUSH32 0x436C61696D20616C7265616479207375626D6974746564000000000000000000 PUSH1 0x44 DUP3 ADD MSTORE PUSH1 0x64 SWAP1 REVERT JUMPDEST PUSH1 0x40 MLOAD PUSH3 0x461BCD PUSH1 0xE5 SHL DUP2 MSTORE PUSH1 0x20 PUSH1 0x4 DUP3 ADD MSTORE PUSH1 0xE PUSH1 0x24 DUP3 ADD MSTORE PUSH14 0x109BDD5B9D1E48195E1C1A5C9959 PUSH1 0x92 SHL PUSH1 0x44 DUP3 ADD MSTORE PUSH1 0x64 SWAP1 REVERT JUMPDEST PUSH1 0x40 MLOAD PUSH3 0x461BCD PUSH1 0xE5 SHL DUP2 MSTORE PUSH1 0x20 PUSH1 0x4 DUP3 ADD MSTORE PUSH1 0xE PUSH1 0x24 DUP3 ADD MSTORE PUSH14 0x426F756E7479206D697373696E67 PUSH1 0x90 SHL PUSH1 0x44 DUP3 ADD MSTORE PUSH1 0x64 SWAP1 REVERT JUMPDEST CALLVALUE PUSH2 0x120 JUMPI PUSH0 CALLDATASIZE PUSH1 0x3 NOT ADD SLT PUSH2 0x120 JUMPI PUSH2 0x8D4 PUSH2 0x15E3 JUMP JUMPDEST PUSH2 0x8DC PUSH2 0x1792 JUMP JUMPDEST PUSH1 0x1 PUSH1 0xFF NOT DUP2 SLOAD AND OR PUSH1 0x1 SSTORE PUSH32 0x62E78CEA01BEE320CD4E420270B5EA74000D11B0C9F74754EBDBFC544B05A258 PUSH1 0x20 PUSH1 0x40 MLOAD CALLER DUP2 MSTORE LOG1 STOP JUMPDEST CALLVALUE PUSH2 0x120 JUMPI PUSH1 0x60 CALLDATASIZE PUSH1 0x3 NOT ADD SLT PUSH2 0x120 JUMPI PUSH1 0x4 CALLDATALOAD PUSH1 0x1 PUSH1 0x1 PUSH1 0xA0 SHL SUB DUP2 AND SWAP1 DUP2 SWAP1 SUB PUSH2 0x120 JUMPI PUSH1 0x44 CALLDATALOAD PUSH1 0x1 PUSH1 0x1 PUSH1 0x40 SHL SUB DUP2 AND SWAP2 PUSH1 0x24 CALLDATALOAD DUP4 DUP4 SUB PUSH2 0x120 JUMPI PUSH2 0x95A PUSH2 0x1792 JUMP JUMPDEST DUP2 ISZERO PUSH2 0xB4E JUMPI PUSH2 0x96B DUP2 ISZERO ISZERO PUSH2 0x152E JUMP JUMPDEST PUSH2 0x976 TIMESTAMP DUP6 GT PUSH2 0x156C JUMP JUMPDEST PUSH1 0x40 MLOAD PUSH4 0x23B872DD PUSH1 0xE0 SHL DUP2 MSTORE CALLER PUSH1 0x4 DUP3 ADD MSTORE ADDRESS PUSH1 0x24 DUP3 ADD MSTORE PUSH1 0x44 DUP2 ADD DUP3 SWAP1 MSTORE PUSH1 0x20 DUP2 PUSH1 0x64 DUP2 PUSH0 DUP8 GAS CALL SWAP1 DUP2 ISZERO PUSH2 0xB43 JUMPI PUSH0 SWAP2 PUSH2 0xB14 JUMPI JUMPDEST POP ISZERO PUSH2 0xAD7 JUMPI PUSH1 0x2 SLOAD SWAP3 PUSH1 0x1 DUP5 ADD DUP1 DUP6 GT PUSH2 0xAC3 JUMPI PUSH1 0x2 SSTORE PUSH1 0x40 MLOAD PUSH2 0x9D2 DUP2 PUSH2 0x13F3 JUMP JUMPDEST CALLER DUP2 MSTORE PUSH1 0x20 DUP1 DUP3 ADD DUP6 DUP2 MSTORE PUSH1 0x40 DUP1 DUP5 ADD DUP7 DUP2 MSTORE PUSH1 0x60 DUP6 ADD SWAP10 DUP11 MSTORE PUSH0 PUSH1 0x80 DUP7 ADD DUP2 DUP2 MSTORE DUP11 DUP3 MSTORE PUSH1 0x3 SWAP6 DUP7 SWAP1 MSTORE SWAP3 SWAP1 KECCAK256 SWAP5 MLOAD DUP6 SLOAD PUSH1 0x1 PUSH1 0x1 PUSH1 0xA0 SHL SUB NOT SWAP1 DUP2 AND PUSH1 0x1 PUSH1 0x1 PUSH1 0xA0 SHL SUB SWAP3 DUP4 AND OR DUP8 SSTORE SWAP4 MLOAD PUSH1 0x1 DUP8 ADD DUP1 SLOAD SWAP1 SWAP6 AND SWAP2 AND OR SWAP1 SWAP3 SSTORE SWAP1 MLOAD PUSH1 0x2 DUP5 ADD SSTORE SWAP7 MLOAD SWAP2 ADD DUP1 SLOAD PUSH8 0xFFFFFFFFFFFFFFFF NOT AND PUSH1 0x1 PUSH1 0x1 PUSH1 0x40 SHL SUB SWAP3 SWAP1 SWAP3 AND SWAP2 SWAP1 SWAP2 OR DUP2 SSTORE SWAP5 MLOAD SWAP5 PUSH1 0x4 DUP7 LT ISZERO PUSH2 0x1D9 JUMPI PUSH2 0xAB8 DUP6 SWAP3 PUSH2 0xA97 PUSH1 0x20 SWAP9 PUSH32 0xEF5AA6FEC12DEED7DB95F096E3C3CD32AC01017BE011694877EC63F9CBA1A2DD SWAP5 PUSH2 0x142F JUMP JUMPDEST PUSH1 0x40 DUP1 MLOAD SWAP6 DUP7 MSTORE PUSH1 0x1 PUSH1 0x1 PUSH1 0x40 SHL SUB SWAP1 SWAP2 AND PUSH1 0x20 DUP7 ADD MSTORE CALLER SWAP5 SWAP2 DUP3 SWAP2 DUP3 ADD SWAP1 JUMP JUMPDEST SUB SWAP1 LOG4 PUSH1 0x40 MLOAD SWAP1 DUP2 MSTORE RETURN JUMPDEST PUSH4 0x4E487B71 PUSH1 0xE0 SHL PUSH0 MSTORE PUSH1 0x11 PUSH1 0x4 MSTORE PUSH1 0x24 PUSH0 REVERT JUMPDEST PUSH1 0x40 MLOAD PUSH3 0x461BCD PUSH1 0xE5 SHL DUP2 MSTORE PUSH1 0x20 PUSH1 0x4 DUP3 ADD MSTORE PUSH1 0x15 PUSH1 0x24 DUP3 ADD MSTORE PUSH21 0x151BDAD95B881D1C985B9CD9995C8819985A5B1959 PUSH1 0x5A SHL PUSH1 0x44 DUP3 ADD MSTORE PUSH1 0x64 SWAP1 REVERT JUMPDEST PUSH2 0xB36 SWAP2 POP PUSH1 0x20 RETURNDATASIZE PUSH1 0x20 GT PUSH2 0xB3C JUMPI JUMPDEST PUSH2 0xB2E DUP2 DUP4 PUSH2 0x140E JUMP JUMPDEST DUP2 ADD SWAP1 PUSH2 0x1452 JUMP JUMPDEST DUP6 PUSH2 0x9AE JUMP JUMPDEST POP RETURNDATASIZE PUSH2 0xB24 JUMP JUMPDEST PUSH1 0x40 MLOAD RETURNDATASIZE PUSH0 DUP3 RETURNDATACOPY RETURNDATASIZE SWAP1 REVERT JUMPDEST PUSH1 0x40 MLOAD PUSH3 0x461BCD PUSH1 0xE5 SHL DUP2 MSTORE PUSH1 0x20 PUSH1 0x4 DUP3 ADD MSTORE PUSH1 0xD PUSH1 0x24 DUP3 ADD MSTORE PUSH13 0x24B73B30B634B2103A37B5B2B7 PUSH1 0x99 SHL PUSH1 0x44 DUP3 ADD MSTORE PUSH1 0x64 SWAP1 REVERT JUMPDEST CALLVALUE PUSH2 0x120 JUMPI PUSH0 CALLDATASIZE PUSH1 0x3 NOT ADD SLT PUSH2 0x120 JUMPI PUSH1 0x20 PUSH1 0xFF PUSH1 0x1 SLOAD AND PUSH1 0x40 MLOAD SWAP1 ISZERO ISZERO DUP2 MSTORE RETURN JUMPDEST PUSH1 0x20 CALLDATASIZE PUSH1 0x3 NOT ADD SLT PUSH2 0x120 JUMPI PUSH1 0x4 CALLDATALOAD PUSH1 0x1 PUSH1 0x1 PUSH1 0x40 SHL SUB DUP2 AND SWAP1 DUP2 DUP2 SUB PUSH2 0x120 JUMPI PUSH2 0xBCE PUSH2 0x1792 JUMP JUMPDEST PUSH2 0xBD9 CALLVALUE ISZERO ISZERO PUSH2 0x152E JUMP JUMPDEST PUSH2 0xBE4 TIMESTAMP DUP4 GT PUSH2 0x156C JUMP JUMPDEST PUSH1 0x2 SLOAD SWAP1 PUSH1 0x1 DUP3 ADD DUP1 DUP4 GT PUSH2 0xAC3 JUMPI PUSH1 0x2 SSTORE PUSH1 0x40 MLOAD PUSH2 0xC02 DUP2 PUSH2 0x13F3 JUMP JUMPDEST CALLER DUP2 MSTORE PUSH0 PUSH1 0x20 DUP1 DUP4 ADD DUP3 DUP2 MSTORE CALLVALUE PUSH1 0x40 DUP1 DUP7 ADD SWAP2 DUP3 MSTORE PUSH1 0x60 DUP7 ADD SWAP9 DUP10 MSTORE PUSH1 0x80 DUP7 ADD DUP6 DUP2 MSTORE DUP9 DUP7 MSTORE PUSH1 0x3 SWAP5 DUP6 SWAP1 MSTORE SWAP5 KECCAK256 SWAP5 MLOAD DUP6 SLOAD PUSH1 0x1 PUSH1 0x1 PUSH1 0xA0 SHL SUB NOT SWAP1 DUP2 AND PUSH1 0x1 PUSH1 0x1 PUSH1 0xA0 SHL SUB SWAP3 DUP4 AND OR DUP8 SSTORE SWAP3 MLOAD PUSH1 0x1 DUP8 ADD DUP1 SLOAD SWAP1 SWAP5 AND SWAP2 AND OR SWAP1 SWAP2 SSTORE MLOAD PUSH1 0x2 DUP5 ADD SSTORE SWAP5 MLOAD SWAP2 SWAP1 SWAP5 ADD DUP1 SLOAD PUSH8 0xFFFFFFFFFFFFFFFF NOT AND PUSH1 0x1 PUSH1 0x1 PUSH1 0x40 SHL SUB SWAP3 SWAP1 SWAP3 AND SWAP2 SWAP1 SWAP2 OR DUP2 SSTORE SWAP3 MLOAD SWAP1 PUSH1 0x4 DUP3 LT ISZERO PUSH2 0x1D9 JUMPI PUSH2 0xCA3 PUSH0 SWAP3 PUSH1 0x20 SWAP6 PUSH2 0x142F JUMP JUMPDEST DUP3 PUSH32 0xEF5AA6FEC12DEED7DB95F096E3C3CD32AC01017BE011694877EC63F9CBA1A2DD PUSH1 0x40 MLOAD DUP1 PUSH2 0xAB8 CALLER SWAP6 CALLVALUE DUP4 SWAP1 SWAP3 SWAP2 PUSH1 0x1 PUSH1 0x1 PUSH1 0x40 SHL SUB PUSH1 0x20 SWAP2 PUSH1 0x40 DUP5 ADD SWAP6 DUP5 MSTORE AND SWAP2 ADD MSTORE JUMP JUMPDEST CALLVALUE PUSH2 0x120 JUMPI PUSH1 0x20 CALLDATASIZE PUSH1 0x3 NOT ADD SLT PUSH2 0x120 JUMPI PUSH1 0x4 CALLDATALOAD PUSH2 0xD07 PUSH2 0x15AB JUMP JUMPDEST CALLER PUSH0 SWAP1 DUP2 MSTORE PUSH32 0x5C91A81DD90ADCBB976F07115CDAA60F95931610E4C2893856278A1E5607A9CC PUSH1 0x20 MSTORE PUSH1 0x40 SWAP1 KECCAK256 SLOAD PUSH1 0xFF AND ISZERO PUSH2 0xF31 JUMPI DUP1 PUSH0 MSTORE PUSH1 0x3 PUSH1 0x20 MSTORE PUSH1 0x40 PUSH0 KECCAK256 SWAP1 DUP1 PUSH0 MSTORE PUSH1 0x4 PUSH1 0x20 MSTORE PUSH1 0x40 PUSH0 KECCAK256 PUSH1 0x3 DUP4 ADD PUSH1 0xFF DUP2 SLOAD PUSH1 0x40 SHR AND PUSH1 0x4 DUP2 LT ISZERO PUSH2 0x1D9 JUMPI PUSH2 0xD75 SWAP1 ISZERO PUSH2 0x14B4 JUMP JUMPDEST PUSH2 0xD85 PUSH1 0xFF PUSH1 0x3 DUP5 ADD SLOAD AND PUSH2 0x14F2 JUMP JUMPDEST DUP1 SLOAD PUSH1 0xFF PUSH1 0x40 SHL NOT AND PUSH9 0x10000000000000000 OR SWAP1 SSTORE PUSH1 0x1 DUP4 ADD SLOAD PUSH1 0x1 PUSH1 0x1 PUSH1 0xA0 SHL SUB AND DUP1 PUSH2 0xE60 JUMPI POP PUSH0 DUP1 DUP1 DUP1 PUSH1 0x1 DUP1 PUSH1 0xA0 SHL SUB DUP6 SLOAD AND PUSH1 0x2 DUP9 ADD SLOAD SWAP1 GAS CALL PUSH2 0xDCD PUSH2 0x1485 JUMP JUMPDEST POP ISZERO PUSH2 0xE24 JUMPI PUSH1 0x20 PUSH1 0x2 PUSH32 0xB582D60859BB6C5E17BB049BC83044C0C8DAB7D0A026B4E3A4A2966D8926DE5 SWAP3 JUMPDEST SLOAD SWAP5 ADD SLOAD PUSH1 0x40 MLOAD SWAP1 DUP2 MSTORE PUSH1 0x1 PUSH1 0x1 PUSH1 0xA0 SHL SUB SWAP1 SWAP5 AND SWAP4 LOG3 PUSH1 0x1 PUSH0 DUP1 MLOAD PUSH1 0x20 PUSH2 0x17AE DUP4 CODECOPY DUP2 MLOAD SWAP2 MSTORE SSTORE STOP JUMPDEST PUSH1 0x40 MLOAD PUSH3 0x461BCD PUSH1 0xE5 SHL DUP2 MSTORE PUSH1 0x20 PUSH1 0x4 DUP3 ADD MSTORE PUSH1 0x14 PUSH1 0x24 DUP3 ADD MSTORE PUSH20 0x13985D1A5D99481C185E5BDD5D0819985A5B1959 PUSH1 0x62 SHL PUSH1 0x44 DUP3 ADD MSTORE PUSH1 0x64 SWAP1 REVERT JUMPDEST DUP2 SLOAD PUSH1 0x2 DUP6 ADD SLOAD PUSH1 0x40 MLOAD PUSH4 0xA9059CBB PUSH1 0xE0 SHL DUP2 MSTORE PUSH1 0x1 PUSH1 0x1 PUSH1 0xA0 SHL SUB SWAP1 SWAP3 AND PUSH1 0x4 DUP4 ADD MSTORE PUSH1 0x24 DUP3 ADD MSTORE SWAP1 PUSH1 0x20 SWAP1 DUP3 SWAP1 PUSH1 0x44 SWAP1 DUP3 SWAP1 PUSH0 SWAP1 GAS CALL SWAP1 DUP2 ISZERO PUSH2 0xB43 JUMPI PUSH0 SWAP2 PUSH2 0xF12 JUMPI JUMPDEST POP ISZERO PUSH2 0xED7 JUMPI PUSH1 0x20 PUSH1 0x2 PUSH32 0xB582D60859BB6C5E17BB049BC83044C0C8DAB7D0A026B4E3A4A2966D8926DE5 SWAP3 PUSH2 0xDFA JUMP JUMPDEST PUSH1 0x40 MLOAD PUSH3 0x461BCD PUSH1 0xE5 SHL DUP2 MSTORE PUSH1 0x20 PUSH1 0x4 DUP3 ADD MSTORE PUSH1 0x13 PUSH1 0x24 DUP3 ADD MSTORE PUSH19 0x151BDAD95B881C185E5BDD5D0819985A5B1959 PUSH1 0x6A SHL PUSH1 0x44 DUP3 ADD MSTORE PUSH1 0x64 SWAP1 REVERT JUMPDEST PUSH2 0xF2B SWAP2 POP PUSH1 0x20 RETURNDATASIZE PUSH1 0x20 GT PUSH2 0xB3C JUMPI PUSH2 0xB2E DUP2 DUP4 PUSH2 0x140E JUMP JUMPDEST DUP5 PUSH2 0xEA6 JUMP JUMPDEST PUSH4 0xE2517D3F PUSH1 0xE0 SHL PUSH0 MSTORE CALLER PUSH1 0x4 MSTORE PUSH32 0xC10C77BE35AFF266144ED64C26A1FA104BAE2F284AE99AC4A34203454704A185 PUSH1 0x24 MSTORE PUSH1 0x44 PUSH0 REVERT JUMPDEST CALLVALUE PUSH2 0x120 JUMPI PUSH0 CALLDATASIZE PUSH1 0x3 NOT ADD SLT PUSH2 0x120 JUMPI PUSH2 0xF80 PUSH2 0x15E3 JUMP JUMPDEST PUSH1 0x1 SLOAD PUSH1 0xFF DUP2 AND ISZERO PUSH2 0xFBF JUMPI PUSH1 0xFF NOT AND PUSH1 0x1 SSTORE PUSH32 0x5DB9EE0A495BF2E6FF9C91A7834C1BA4FDD244A5E8AA4E537BD38AEAE4B073AA PUSH1 0x20 PUSH1 0x40 MLOAD CALLER DUP2 MSTORE LOG1 STOP JUMPDEST PUSH4 0x8DFC202B PUSH1 0xE0 SHL PUSH0 MSTORE PUSH1 0x4 PUSH0 REVERT JUMPDEST CALLVALUE PUSH2 0x120 JUMPI PUSH0 CALLDATASIZE PUSH1 0x3 NOT ADD SLT PUSH2 0x120 JUMPI PUSH1 0x20 PUSH1 0x40 MLOAD PUSH32 0xC10C77BE35AFF266144ED64C26A1FA104BAE2F284AE99AC4A34203454704A185 DUP2 MSTORE RETURN JUMPDEST CALLVALUE PUSH2 0x120 JUMPI PUSH1 0x40 CALLDATASIZE PUSH1 0x3 NOT ADD SLT PUSH2 0x120 JUMPI PUSH2 0x1021 PUSH2 0x13A5 JUMP JUMPDEST CALLER PUSH1 0x1 PUSH1 0x1 PUSH1 0xA0 SHL SUB DUP3 AND SUB PUSH2 0x103D JUMPI PUSH2 0x22F SWAP1 PUSH1 0x4 CALLDATALOAD PUSH2 0x1712 JUMP JUMPDEST PUSH4 0x334BD919 PUSH1 0xE1 SHL PUSH0 MSTORE PUSH1 0x4 PUSH0 REVERT JUMPDEST CALLVALUE PUSH2 0x120 JUMPI PUSH1 0x40 CALLDATASIZE PUSH1 0x3 NOT ADD SLT PUSH2 0x120 JUMPI PUSH2 0x22F PUSH1 0x4 CALLDATALOAD PUSH2 0x106B PUSH2 0x13A5 JUMP JUMPDEST SWAP1 PUSH2 0x1084 PUSH2 0x225 DUP3 PUSH0 MSTORE PUSH0 PUSH1 0x20 MSTORE PUSH1 0x1 PUSH1 0x40 PUSH0 KECCAK256 ADD SLOAD SWAP1 JUMP JUMPDEST PUSH2 0x168A JUMP JUMPDEST CALLVALUE PUSH2 0x120 JUMPI PUSH1 0x20 CALLDATASIZE PUSH1 0x3 NOT ADD SLT PUSH2 0x120 JUMPI PUSH1 0x20 PUSH2 0x10B3 PUSH1 0x4 CALLDATALOAD PUSH0 MSTORE PUSH0 PUSH1 0x20 MSTORE PUSH1 0x1 PUSH1 0x40 PUSH0 KECCAK256 ADD SLOAD SWAP1 JUMP JUMPDEST PUSH1 0x40 MLOAD SWAP1 DUP2 MSTORE RETURN JUMPDEST CALLVALUE PUSH2 0x120 JUMPI PUSH1 0x20 CALLDATASIZE PUSH1 0x3 NOT ADD SLT PUSH2 0x120 JUMPI PUSH1 0x4 CALLDATALOAD PUSH2 0x10D7 PUSH2 0x15AB JUMP JUMPDEST PUSH0 DUP2 DUP2 MSTORE PUSH1 0x3 PUSH1 0x20 MSTORE PUSH1 0x40 SWAP1 KECCAK256 DUP1 SLOAD SWAP1 SWAP2 SWAP1 PUSH1 0x1 PUSH1 0x1 PUSH1 0xA0 SHL SUB AND CALLER SUB PUSH2 0x131F JUMPI PUSH1 0x3 DUP3 ADD DUP1 SLOAD PUSH1 0x1 PUSH1 0x1 PUSH1 0x40 SHL SUB DUP2 AND TIMESTAMP GT ISZERO PUSH2 0x12EA JUMPI PUSH1 0x40 SHR PUSH1 0xFF AND PUSH1 0x4 DUP2 LT ISZERO PUSH2 0x1D9 JUMPI DUP1 ISZERO SWAP1 DUP2 ISZERO PUSH2 0x12DF JUMPI JUMPDEST POP ISZERO PUSH2 0x12AA JUMPI DUP1 SLOAD PUSH1 0xFF PUSH1 0x40 SHL NOT AND PUSH9 0x30000000000000000 OR SWAP1 SSTORE PUSH1 0x1 DUP3 ADD SLOAD PUSH1 0x1 PUSH1 0x1 PUSH1 0xA0 SHL SUB AND DUP1 PUSH2 0x1205 JUMPI POP PUSH0 DUP1 DUP1 DUP1 PUSH1 0x1 DUP1 PUSH1 0xA0 SHL SUB DUP7 SLOAD AND PUSH1 0x2 DUP8 ADD SLOAD SWAP1 GAS CALL PUSH2 0x1176 PUSH2 0x1485 JUMP JUMPDEST POP ISZERO PUSH2 0x11C9 JUMPI JUMPDEST PUSH32 0xF1ED347F033F54C0D6F1589C933D81B4256CF2F72A785106E3653A565F7433A2 PUSH1 0x20 PUSH1 0x2 PUSH1 0x1 DUP1 PUSH1 0xA0 SHL SUB DUP6 SLOAD AND SWAP5 ADD SLOAD PUSH1 0x40 MLOAD SWAP1 DUP2 MSTORE LOG3 PUSH1 0x1 PUSH0 DUP1 MLOAD PUSH1 0x20 PUSH2 0x17AE DUP4 CODECOPY DUP2 MLOAD SWAP2 MSTORE SSTORE STOP JUMPDEST PUSH1 0x40 MLOAD PUSH3 0x461BCD PUSH1 0xE5 SHL DUP2 MSTORE PUSH1 0x20 PUSH1 0x4 DUP3 ADD MSTORE PUSH1 0x14 PUSH1 0x24 DUP3 ADD MSTORE PUSH20 0x13985D1A5D99481C99599D5B990819985A5B1959 PUSH1 0x62 SHL PUSH1 0x44 DUP3 ADD MSTORE PUSH1 0x64 SWAP1 REVERT JUMPDEST DUP3 SLOAD PUSH1 0x2 DUP5 ADD SLOAD PUSH1 0x40 MLOAD PUSH4 0xA9059CBB PUSH1 0xE0 SHL DUP2 MSTORE PUSH1 0x1 PUSH1 0x1 PUSH1 0xA0 SHL SUB SWAP1 SWAP3 AND PUSH1 0x4 DUP4 ADD MSTORE PUSH1 0x24 DUP3 ADD MSTORE SWAP1 PUSH1 0x20 SWAP1 DUP3 SWAP1 PUSH1 0x44 SWAP1 DUP3 SWAP1 PUSH0 SWAP1 GAS CALL SWAP1 DUP2 ISZERO PUSH2 0xB43 JUMPI PUSH0 SWAP2 PUSH2 0x128B JUMPI JUMPDEST POP PUSH2 0x117D JUMPI PUSH1 0x40 MLOAD PUSH3 0x461BCD PUSH1 0xE5 SHL DUP2 MSTORE PUSH1 0x20 PUSH1 0x4 DUP3 ADD MSTORE PUSH1 0x13 PUSH1 0x24 DUP3 ADD MSTORE PUSH19 0x151BDAD95B881C99599D5B990819985A5B1959 PUSH1 0x6A SHL PUSH1 0x44 DUP3 ADD MSTORE PUSH1 0x64 SWAP1 REVERT JUMPDEST PUSH2 0x12A4 SWAP2 POP PUSH1 0x20 RETURNDATASIZE PUSH1 0x20 GT PUSH2 0xB3C JUMPI PUSH2 0xB2E DUP2 DUP4 PUSH2 0x140E JUMP JUMPDEST DUP4 PUSH2 0x124B JUMP JUMPDEST PUSH1 0x40 MLOAD PUSH3 0x461BCD PUSH1 0xE5 SHL DUP2 MSTORE PUSH1 0x20 PUSH1 0x4 DUP3 ADD MSTORE PUSH1 0xD PUSH1 0x24 DUP3 ADD MSTORE PUSH13 0x10D85B9B9BDD081C99599D5B99 PUSH1 0x9A SHL PUSH1 0x44 DUP3 ADD MSTORE PUSH1 0x64 SWAP1 REVERT JUMPDEST PUSH1 0x2 SWAP2 POP EQ DUP5 PUSH2 0x1128 JUMP JUMPDEST PUSH1 0x40 MLOAD PUSH3 0x461BCD PUSH1 0xE5 SHL DUP2 MSTORE PUSH1 0x20 PUSH1 0x4 DUP3 ADD MSTORE PUSH1 0xD PUSH1 0x24 DUP3 ADD MSTORE PUSH13 0x426F756E747920616374697665 PUSH1 0x98 SHL PUSH1 0x44 DUP3 ADD MSTORE PUSH1 0x64 SWAP1 REVERT JUMPDEST PUSH1 0x40 MLOAD PUSH3 0x461BCD PUSH1 0xE5 SHL DUP2 MSTORE PUSH1 0x20 PUSH1 0x4 DUP3 ADD MSTORE PUSH1 0xB PUSH1 0x24 DUP3 ADD MSTORE PUSH11 0x2737BA1031B932B0BA37B9 PUSH1 0xA9 SHL PUSH1 0x44 DUP3 ADD MSTORE PUSH1 0x64 SWAP1 REVERT JUMPDEST CALLVALUE PUSH2 0x120 JUMPI PUSH1 0x20 CALLDATASIZE PUSH1 0x3 NOT ADD SLT PUSH2 0x120 JUMPI PUSH1 0x4 CALLDATALOAD SWAP1 PUSH4 0xFFFFFFFF PUSH1 0xE0 SHL DUP3 AND DUP1 SWAP3 SUB PUSH2 0x120 JUMPI PUSH1 0x20 SWAP2 PUSH4 0x7965DB0B PUSH1 0xE0 SHL DUP2 EQ SWAP1 DUP2 ISZERO PUSH2 0x1394 JUMPI JUMPDEST POP ISZERO ISZERO DUP2 MSTORE RETURN JUMPDEST PUSH4 0x1FFC9A7 PUSH1 0xE0 SHL EQ SWAP1 POP DUP4 PUSH2 0x138D JUMP JUMPDEST PUSH1 0x24 CALLDATALOAD SWAP1 PUSH1 0x1 PUSH1 0x1 PUSH1 0xA0 SHL SUB DUP3 AND DUP3 SUB PUSH2 0x120 JUMPI JUMP JUMPDEST SWAP1 PUSH1 0x1 DUP3 DUP2 SHR SWAP3 AND DUP1 ISZERO PUSH2 0x13E9 JUMPI JUMPDEST PUSH1 0x20 DUP4 LT EQ PUSH2 0x13D5 JUMPI JUMP JUMPDEST PUSH4 0x4E487B71 PUSH1 0xE0 SHL PUSH0 MSTORE PUSH1 0x22 PUSH1 0x4 MSTORE PUSH1 0x24 PUSH0 REVERT JUMPDEST SWAP2 PUSH1 0x7F AND SWAP2 PUSH2 0x13CA JUMP JUMPDEST PUSH1 0xA0 DUP2 ADD SWAP1 DUP2 LT PUSH1 0x1 PUSH1 0x1 PUSH1 0x40 SHL SUB DUP3 GT OR PUSH2 0x7C3 JUMPI PUSH1 0x40 MSTORE JUMP JUMPDEST SWAP1 PUSH1 0x1F DUP1 NOT SWAP2 ADD AND DUP2 ADD SWAP1 DUP2 LT PUSH1 0x1 PUSH1 0x1 PUSH1 0x40 SHL SUB DUP3 GT OR PUSH2 0x7C3 JUMPI PUSH1 0x40 MSTORE JUMP JUMPDEST SWAP1 PUSH1 0x4 DUP2 LT ISZERO PUSH2 0x1D9 JUMPI PUSH1 0xFF PUSH1 0x40 SHL DUP3 SLOAD SWAP2 PUSH1 0x40 SHL AND SWAP1 PUSH1 0xFF PUSH1 0x40 SHL NOT AND OR SWAP1 SSTORE JUMP JUMPDEST SWAP1 DUP2 PUSH1 0x20 SWAP2 SUB SLT PUSH2 0x120 JUMPI MLOAD DUP1 ISZERO ISZERO DUP2 SUB PUSH2 0x120 JUMPI SWAP1 JUMP JUMPDEST PUSH1 0x1 PUSH1 0x1 PUSH1 0x40 SHL SUB DUP2 GT PUSH2 0x7C3 JUMPI PUSH1 0x1F ADD PUSH1 0x1F NOT AND PUSH1 0x20 ADD SWAP1 JUMP JUMPDEST RETURNDATASIZE ISZERO PUSH2 0x14AF JUMPI RETURNDATASIZE SWAP1 PUSH2 0x1496 DUP3 PUSH2 0x146A JUMP JUMPDEST SWAP2 PUSH2 0x14A4 PUSH1 0x40 MLOAD SWAP4 DUP5 PUSH2 0x140E JUMP JUMPDEST DUP3 MSTORE RETURNDATASIZE PUSH0 PUSH1 0x20 DUP5 ADD RETURNDATACOPY JUMP JUMPDEST PUSH1 0x60 SWAP1 JUMP JUMPDEST ISZERO PUSH2 0x14BB JUMPI JUMP JUMPDEST PUSH1 0x40 MLOAD PUSH3 0x461BCD PUSH1 0xE5 SHL DUP2 MSTORE PUSH1 0x20 PUSH1 0x4 DUP3 ADD MSTORE PUSH1 0xF PUSH1 0x24 DUP3 ADD MSTORE PUSH15 0x2137BAB73A3C903737BA1037B832B7 PUSH1 0x89 SHL PUSH1 0x44 DUP3 ADD MSTORE PUSH1 0x64 SWAP1 REVERT JUMPDEST ISZERO PUSH2 0x14F9 JUMPI JUMP JUMPDEST PUSH1 0x40 MLOAD PUSH3 0x461BCD PUSH1 0xE5 SHL DUP2 MSTORE PUSH1 0x20 PUSH1 0x4 DUP3 ADD MSTORE PUSH1 0xD PUSH1 0x24 DUP3 ADD MSTORE PUSH13 0x436C61696D206D697373696E67 PUSH1 0x98 SHL PUSH1 0x44 DUP3 ADD MSTORE PUSH1 0x64 SWAP1 REVERT JUMPDEST ISZERO PUSH2 0x1535 JUMPI JUMP JUMPDEST PUSH1 0x40 MLOAD PUSH3 0x461BCD PUSH1 0xE5 SHL DUP2 MSTORE PUSH1 0x20 PUSH1 0x4 DUP3 ADD MSTORE PUSH1 0xF PUSH1 0x24 DUP3 ADD MSTORE PUSH15 0x105B5BDD5B9D081C995C5D5A5C9959 PUSH1 0x8A SHL PUSH1 0x44 DUP3 ADD MSTORE PUSH1 0x64 SWAP1 REVERT JUMPDEST ISZERO PUSH2 0x1573 JUMPI JUMP JUMPDEST PUSH1 0x40 MLOAD PUSH3 0x461BCD PUSH1 0xE5 SHL DUP2 MSTORE PUSH1 0x20 PUSH1 0x4 DUP3 ADD MSTORE PUSH1 0x10 PUSH1 0x24 DUP3 ADD MSTORE PUSH16 0x111958591B1A5B99481A5B881C185CDD PUSH1 0x82 SHL PUSH1 0x44 DUP3 ADD MSTORE PUSH1 0x64 SWAP1 REVERT JUMPDEST PUSH1 0x2 PUSH0 DUP1 MLOAD PUSH1 0x20 PUSH2 0x17AE DUP4 CODECOPY DUP2 MLOAD SWAP2 MSTORE SLOAD EQ PUSH2 0x15D4 JUMPI PUSH1 0x2 PUSH0 DUP1 MLOAD PUSH1 0x20 PUSH2 0x17AE DUP4 CODECOPY DUP2 MLOAD SWAP2 MSTORE SSTORE JUMP JUMPDEST PUSH4 0x3EE5AEB5 PUSH1 0xE0 SHL PUSH0 MSTORE PUSH1 0x4 PUSH0 REVERT JUMPDEST CALLER PUSH0 SWAP1 DUP2 MSTORE PUSH32 0xF7C9542C591017A21C74B6F3FAB6263C7952FC0AAF9DB4C22A2A04DDC7F8674F PUSH1 0x20 MSTORE PUSH1 0x40 SWAP1 KECCAK256 SLOAD PUSH1 0xFF AND ISZERO PUSH2 0x161B JUMPI JUMP JUMPDEST PUSH4 0xE2517D3F PUSH1 0xE0 SHL PUSH0 MSTORE CALLER PUSH1 0x4 MSTORE PUSH32 0x65D7A28E3265B37A6474929F336521B332C1681B933F6CB9F3376673440D862A PUSH1 0x24 MSTORE PUSH1 0x44 PUSH0 REVERT JUMPDEST PUSH0 DUP2 DUP2 MSTORE PUSH1 0x20 DUP2 DUP2 MSTORE PUSH1 0x40 DUP1 DUP4 KECCAK256 CALLER DUP5 MSTORE SWAP1 SWAP2 MSTORE SWAP1 KECCAK256 SLOAD PUSH1 0xFF AND ISZERO PUSH2 0x1674 JUMPI POP JUMP JUMPDEST PUSH4 0xE2517D3F PUSH1 0xE0 SHL PUSH0 MSTORE CALLER PUSH1 0x4 MSTORE PUSH1 0x24 MSTORE PUSH1 0x44 PUSH0 REVERT JUMPDEST PUSH0 DUP2 DUP2 MSTORE PUSH1 0x20 DUP2 DUP2 MSTORE PUSH1 0x40 DUP1 DUP4 KECCAK256 PUSH1 0x1 PUSH1 0x1 PUSH1 0xA0 SHL SUB DUP7 AND DUP5 MSTORE SWAP1 SWAP2 MSTORE SWAP1 KECCAK256 SLOAD PUSH1 0xFF AND PUSH2 0x170C JUMPI PUSH0 DUP2 DUP2 MSTORE PUSH1 0x20 DUP2 DUP2 MSTORE PUSH1 0x40 DUP1 DUP4 KECCAK256 PUSH1 0x1 PUSH1 0x1 PUSH1 0xA0 SHL SUB SWAP6 SWAP1 SWAP6 AND DUP1 DUP5 MSTORE SWAP5 SWAP1 SWAP2 MSTORE DUP2 KECCAK256 DUP1 SLOAD PUSH1 0xFF NOT AND PUSH1 0x1 OR SWAP1 SSTORE CALLER SWAP3 SWAP2 SWAP1 PUSH32 0x2F8788117E7EFF1D82E926EC794901D17C78024A50270940304540A733656F0D SWAP1 DUP1 LOG4 PUSH1 0x1 SWAP1 JUMP JUMPDEST POP POP PUSH0 SWAP1 JUMP JUMPDEST PUSH0 DUP2 DUP2 MSTORE PUSH1 0x20 DUP2 DUP2 MSTORE PUSH1 0x40 DUP1 DUP4 KECCAK256 PUSH1 0x1 PUSH1 0x1 PUSH1 0xA0 SHL SUB DUP7 AND DUP5 MSTORE SWAP1 SWAP2 MSTORE SWAP1 KECCAK256 SLOAD PUSH1 0xFF AND ISZERO PUSH2 0x170C JUMPI PUSH0 DUP2 DUP2 MSTORE PUSH1 0x20 DUP2 DUP2 MSTORE PUSH1 0x40 DUP1 DUP4 KECCAK256 PUSH1 0x1 PUSH1 0x1 PUSH1 0xA0 SHL SUB SWAP6 SWAP1 SWAP6 AND DUP1 DUP5 MSTORE SWAP5 SWAP1 SWAP2 MSTORE DUP2 KECCAK256 DUP1 SLOAD PUSH1 0xFF NOT AND SWAP1 SSTORE CALLER SWAP3 SWAP2 SWAP1 PUSH32 0xF6391F5C32D9C69D2A47EA670B442974B53935D1EDC7FD64EB21E047A839171B SWAP1 DUP1 LOG4 PUSH1 0x1 SWAP1 JUMP JUMPDEST PUSH1 0xFF PUSH1 0x1 SLOAD AND PUSH2 0x179E JUMPI JUMP JUMPDEST PUSH4 0xD93C0665 PUSH1 0xE0 SHL PUSH0 MSTORE PUSH1 0x4 PUSH0 REVERT INVALID SWAP12 PUSH24 0x9B17422D0DF92223018B32B4D1FA46E071723D6817E2486D STOP EXTCODESIZE 0xEC 0xC5 PUSH0 STOP LOG2 PUSH5 0x6970667358 0x22 SLT KECCAK256 GAS 0xB5 NOT DUP12 DELEGATECALL TIMESTAMP 0xC0 GT COINBASE AND 0xCE PUSH5 0xA646D87B3 0xD3 0xAC ISZERO 0xEC SWAP16 SLT NUMBER PUSH12 0xE1C85580482DB264736F6C63 NUMBER STOP ADDMOD BYTE STOP CALLER 0x2F DUP8 DUP9 GT PUSH31 0x7EFF1D82E926EC794901D17C78024A50270940304540A733656F0D5C91A81D 0xD9 EXP 0xDC 0xBB SWAP8 PUSH16 0x7115CDAA60F95931610E4C289385627 DUP11 0x1E JUMP SMOD 0xA9 0xCC 0xF7 0xC9 SLOAD 0x2C MSIZE LT OR LOG2 SHR PUSH21 0xB6F3FAB6263C7952FC0AAF9DB4C22A2A04DDC7F867 0x4F 0xAD ORIGIN 0x28 0xB6 PUSH23 0xF7D3CD4284A5443F17F1962B36E491B30A40B2405849E5 SWAP8 0xBA PUSH0 0xB5 "},"methodIdentifiers":{"DEFAULT_ADMIN_ROLE()":"a217fddf","PAUSER_ROLE()":"e63ab1e9","REVIEWER_ROLE()":"3b129a56","approveClaim(uint256)":"46e30135","bounties(uint256)":"dc2f8744","claims(uint256)":"a888c2cd","createNativeBounty(uint64)":"4b452d36","createTokenBounty(address,uint256,uint64)":"75cbbcf0","disputeClaim(uint256)":"9302f104","getRoleAdmin(bytes32)":"248a9ca3","grantRole(bytes32,address)":"2f2ff15d","hasRole(bytes32,address)":"91d14854","nextBountyId()":"fd14fad4","pause()":"8456cb59","paused()":"5c975abb","refundExpiredBounty(uint256)":"0f2aff03","renounceRole(bytes32,address)":"36568abe","revokeRole(bytes32,address)":"d547741f","submitClaim(uint256,string,bytes32)":"8f7e9eb1","supportsInterface(bytes4)":"01ffc9a7","unpause()":"3f4ba83a"}}}}}