{
  "_format": "hh-sol-artifact-1",
  "contractName": "EvidenceAttestation",
  "sourceName": "contracts/EvidenceAttestation.sol",
  "abi": [
    {
      "inputs": [
        {
          "internalType": "address",
          "name": "admin",
          "type": "address"
        }
      ],
      "stateMutability": "nonpayable",
      "type": "constructor"
    },
    {
      "inputs": [],
      "name": "AccessControlBadConfirmation",
      "type": "error"
    },
    {
      "inputs": [
        {
          "internalType": "address",
          "name": "account",
          "type": "address"
        },
        {
          "internalType": "bytes32",
          "name": "neededRole",
          "type": "bytes32"
        }
      ],
      "name": "AccessControlUnauthorizedAccount",
      "type": "error"
    },
    {
      "inputs": [],
      "name": "ECDSAInvalidSignature",
      "type": "error"
    },
    {
      "inputs": [
        {
          "internalType": "uint256",
          "name": "length",
          "type": "uint256"
        }
      ],
      "name": "ECDSAInvalidSignatureLength",
      "type": "error"
    },
    {
      "inputs": [
        {
          "internalType": "bytes32",
          "name": "s",
          "type": "bytes32"
        }
      ],
      "name": "ECDSAInvalidSignatureS",
      "type": "error"
    },
    {
      "inputs": [],
      "name": "EnforcedPause",
      "type": "error"
    },
    {
      "inputs": [],
      "name": "ExpectedPause",
      "type": "error"
    },
    {
      "inputs": [],
      "name": "InvalidShortString",
      "type": "error"
    },
    {
      "inputs": [
        {
          "internalType": "string",
          "name": "str",
          "type": "string"
        }
      ],
      "name": "StringTooLong",
      "type": "error"
    },
    {
      "anonymous": false,
      "inputs": [],
      "name": "EIP712DomainChanged",
      "type": "event"
    },
    {
      "anonymous": false,
      "inputs": [
        {
          "indexed": true,
          "internalType": "bytes32",
          "name": "evidenceId",
          "type": "bytes32"
        },
        {
          "indexed": true,
          "internalType": "address",
          "name": "submitter",
          "type": "address"
        },
        {
          "indexed": true,
          "internalType": "bytes32",
          "name": "threatIdHash",
          "type": "bytes32"
        },
        {
          "indexed": false,
          "internalType": "string",
          "name": "cid",
          "type": "string"
        },
        {
          "indexed": false,
          "internalType": "bytes32",
          "name": "contentHash",
          "type": "bytes32"
        },
        {
          "indexed": false,
          "internalType": "address",
          "name": "reviewer",
          "type": "address"
        }
      ],
      "name": "EvidenceAttested",
      "type": "event"
    },
    {
      "anonymous": false,
      "inputs": [
        {
          "indexed": false,
          "internalType": "address",
          "name": "account",
          "type": "address"
        }
      ],
      "name": "Paused",
      "type": "event"
    },
    {
      "anonymous": false,
      "inputs": [
        {
          "indexed": true,
          "internalType": "bytes32",
          "name": "role",
          "type": "bytes32"
        },
        {
          "indexed": true,
          "internalType": "bytes32",
          "name": "previousAdminRole",
          "type": "bytes32"
        },
        {
          "indexed": true,
          "internalType": "bytes32",
          "name": "newAdminRole",
          "type": "bytes32"
        }
      ],
      "name": "RoleAdminChanged",
      "type": "event"
    },
    {
      "anonymous": false,
      "inputs": [
        {
          "indexed": true,
          "internalType": "bytes32",
          "name": "role",
          "type": "bytes32"
        },
        {
          "indexed": true,
          "internalType": "address",
          "name": "account",
          "type": "address"
        },
        {
          "indexed": true,
          "internalType": "address",
          "name": "sender",
          "type": "address"
        }
      ],
      "name": "RoleGranted",
      "type": "event"
    },
    {
      "anonymous": false,
      "inputs": [
        {
          "indexed": true,
          "internalType": "bytes32",
          "name": "role",
          "type": "bytes32"
        },
        {
          "indexed": true,
          "internalType": "address",
          "name": "account",
          "type": "address"
        },
        {
          "indexed": true,
          "internalType": "address",
          "name": "sender",
          "type": "address"
        }
      ],
      "name": "RoleRevoked",
      "type": "event"
    },
    {
      "anonymous": false,
      "inputs": [
        {
          "indexed": false,
          "internalType": "address",
          "name": "account",
          "type": "address"
        }
      ],
      "name": "Unpaused",
      "type": "event"
    },
    {
      "inputs": [],
      "name": "DEFAULT_ADMIN_ROLE",
      "outputs": [
        {
          "internalType": "bytes32",
          "name": "",
          "type": "bytes32"
        }
      ],
      "stateMutability": "view",
      "type": "function"
    },
    {
      "inputs": [],
      "name": "PAUSER_ROLE",
      "outputs": [
        {
          "internalType": "bytes32",
          "name": "",
          "type": "bytes32"
        }
      ],
      "stateMutability": "view",
      "type": "function"
    },
    {
      "inputs": [],
      "name": "REVIEWER_ROLE",
      "outputs": [
        {
          "internalType": "bytes32",
          "name": "",
          "type": "bytes32"
        }
      ],
      "stateMutability": "view",
      "type": "function"
    },
    {
      "inputs": [
        {
          "internalType": "string",
          "name": "threatId",
          "type": "string"
        },
        {
          "internalType": "string",
          "name": "cid",
          "type": "string"
        },
        {
          "internalType": "bytes32",
          "name": "contentHash",
          "type": "bytes32"
        },
        {
          "internalType": "uint256",
          "name": "deadline",
          "type": "uint256"
        },
        {
          "internalType": "bytes",
          "name": "reviewerSignature",
          "type": "bytes"
        }
      ],
      "name": "attestEvidence",
      "outputs": [
        {
          "internalType": "bytes32",
          "name": "evidenceId",
          "type": "bytes32"
        }
      ],
      "stateMutability": "nonpayable",
      "type": "function"
    },
    {
      "inputs": [],
      "name": "eip712Domain",
      "outputs": [
        {
          "internalType": "bytes1",
          "name": "fields",
          "type": "bytes1"
        },
        {
          "internalType": "string",
          "name": "name",
          "type": "string"
        },
        {
          "internalType": "string",
          "name": "version",
          "type": "string"
        },
        {
          "internalType": "uint256",
          "name": "chainId",
          "type": "uint256"
        },
        {
          "internalType": "address",
          "name": "verifyingContract",
          "type": "address"
        },
        {
          "internalType": "bytes32",
          "name": "salt",
          "type": "bytes32"
        },
        {
          "internalType": "uint256[]",
          "name": "extensions",
          "type": "uint256[]"
        }
      ],
      "stateMutability": "view",
      "type": "function"
    },
    {
      "inputs": [
        {
          "internalType": "bytes32",
          "name": "",
          "type": "bytes32"
        }
      ],
      "name": "evidences",
      "outputs": [
        {
          "internalType": "address",
          "name": "submitter",
          "type": "address"
        },
        {
          "internalType": "bytes32",
          "name": "threatIdHash",
          "type": "bytes32"
        },
        {
          "internalType": "bytes32",
          "name": "contentHash",
          "type": "bytes32"
        },
        {
          "internalType": "string",
          "name": "cid",
          "type": "string"
        },
        {
          "internalType": "uint64",
          "name": "timestamp",
          "type": "uint64"
        },
        {
          "internalType": "uint256",
          "name": "sourceChainId",
          "type": "uint256"
        },
        {
          "internalType": "address",
          "name": "reviewer",
          "type": "address"
        }
      ],
      "stateMutability": "view",
      "type": "function"
    },
    {
      "inputs": [
        {
          "internalType": "bytes32",
          "name": "role",
          "type": "bytes32"
        }
      ],
      "name": "getRoleAdmin",
      "outputs": [
        {
          "internalType": "bytes32",
          "name": "",
          "type": "bytes32"
        }
      ],
      "stateMutability": "view",
      "type": "function"
    },
    {
      "inputs": [
        {
          "internalType": "bytes32",
          "name": "role",
          "type": "bytes32"
        },
        {
          "internalType": "address",
          "name": "account",
          "type": "address"
        }
      ],
      "name": "grantRole",
      "outputs": [],
      "stateMutability": "nonpayable",
      "type": "function"
    },
    {
      "inputs": [
        {
          "internalType": "bytes32",
          "name": "role",
          "type": "bytes32"
        },
        {
          "internalType": "address",
          "name": "account",
          "type": "address"
        }
      ],
      "name": "hasRole",
      "outputs": [
        {
          "internalType": "bool",
          "name": "",
          "type": "bool"
        }
      ],
      "stateMutability": "view",
      "type": "function"
    },
    {
      "inputs": [
        {
          "internalType": "address",
          "name": "",
          "type": "address"
        }
      ],
      "name": "nonces",
      "outputs": [
        {
          "internalType": "uint256",
          "name": "",
          "type": "uint256"
        }
      ],
      "stateMutability": "view",
      "type": "function"
    },
    {
      "inputs": [],
      "name": "pause",
      "outputs": [],
      "stateMutability": "nonpayable",
      "type": "function"
    },
    {
      "inputs": [],
      "name": "paused",
      "outputs": [
        {
          "internalType": "bool",
          "name": "",
          "type": "bool"
        }
      ],
      "stateMutability": "view",
      "type": "function"
    },
    {
      "inputs": [
        {
          "internalType": "bytes32",
          "name": "role",
          "type": "bytes32"
        },
        {
          "internalType": "address",
          "name": "callerConfirmation",
          "type": "address"
        }
      ],
      "name": "renounceRole",
      "outputs": [],
      "stateMutability": "nonpayable",
      "type": "function"
    },
    {
      "inputs": [
        {
          "internalType": "bytes32",
          "name": "role",
          "type": "bytes32"
        },
        {
          "internalType": "address",
          "name": "account",
          "type": "address"
        }
      ],
      "name": "revokeRole",
      "outputs": [],
      "stateMutability": "nonpayable",
      "type": "function"
    },
    {
      "inputs": [
        {
          "internalType": "bytes4",
          "name": "interfaceId",
          "type": "bytes4"
        }
      ],
      "name": "supportsInterface",
      "outputs": [
        {
          "internalType": "bool",
          "name": "",
          "type": "bool"
        }
      ],
      "stateMutability": "view",
      "type": "function"
    },
    {
      "inputs": [],
      "name": "unpause",
      "outputs": [],
      "stateMutability": "nonpayable",
      "type": "function"
    }
  ],
  "bytecode": "0x610160806040523461018c576020816118ee80380380916100208285610190565b83398101031261018c57516001600160a01b038116810361018c5761013a9060405161004d604082610190565b6013815260208101907f45766964656e63654174746573746174696f6e00000000000000000000000000825260405191610088604084610190565b600183526020830191603160f81b83526100a181610363565b610120526100ae846104fe565b61014052519020918260e05251902080610100524660a0526040519060208201927f8b73c3c69bb8fe3d512ecc4cf759cc79239f7b179b0ffacaa9a75d522b39400f8452604083015260608201524660808201523060a082015260a0815261011760c082610190565b5190206080523060c05261012a816101c7565b506101348161023d565b506102d0565b506040516112379081610637823960805181610fe3015260a051816110a0015260c05181610fad015260e051816110320152610100518161105801526101205181610880015261014051816108a90152f35b5f80fd5b601f909101601f19168101906001600160401b038211908210176101b357604052565b634e487b7160e01b5f52604160045260245ffd5b6001600160a01b0381165f9081525f805160206118ce833981519152602052604090205460ff16610238576001600160a01b03165f8181525f805160206118ce83398151915260205260408120805460ff191660011790553391905f8051602061186e8339815191528180a4600190565b505f90565b6001600160a01b0381165f9081525f8051602061188e833981519152602052604090205460ff16610238576001600160a01b03165f8181525f8051602061188e83398151915260205260408120805460ff191660011790553391907fc10c77be35aff266144ed64c26a1fa104bae2f284ae99ac4a34203454704a185905f8051602061186e8339815191529080a4600190565b6001600160a01b0381165f9081525f805160206118ae833981519152602052604090205460ff16610238576001600160a01b03165f8181525f805160206118ae83398151915260205260408120805460ff191660011790553391907f65d7a28e3265b37a6474929f336521b332c1681b933f6cb9f3376673440d862a905f8051602061186e8339815191529080a4600190565b908151602081105f146103dd575090601f81511161039d57602081519101516020821061038e571790565b5f198260200360031b1b161790565b604460209160405192839163305a27a960e01b83528160048401528051918291826024860152018484015e5f828201840152601f01601f19168101030190fd5b6001600160401b0381116101b357600154600181811c911680156104f4575b60208210146104e057601f81116104ad575b50602092601f821160011461044c57928192935f92610441575b50508160011b915f199060031b1c19161760015560ff90565b015190505f80610428565b601f1982169360015f52805f20915f5b868110610495575083600195961061047d575b505050811b0160015560ff90565b01515f1960f88460031b161c191690555f808061046f565b9192602060018192868501518155019401920161045c565b60015f52601f60205f20910160051c810190601f830160051c015b8181106104d5575061040e565b5f81556001016104c8565b634e487b7160e01b5f52602260045260245ffd5b90607f16906103fc565b908151602081105f14610529575090601f81511161039d57602081519101516020821061038e571790565b6001600160401b0381116101b357600254600181811c9116801561062c575b60208210146104e057601f81116105f9575b50602092601f821160011461059857928192935f9261058d575b50508160011b915f199060031b1c19161760025560ff90565b015190505f80610574565b601f1982169360025f52805f20915f5b8681106105e157508360019596106105c9575b505050811b0160025560ff90565b01515f1960f88460031b161c191690555f80806105bb565b919260206001819286850151815501940192016105a8565b60025f52601f60205f20910160051c810190601f830160051c015b818110610621575061055a565b5f8155600101610614565b90607f169061054856fe6080806040526004361015610012575f80fd5b5f3560e01c90816301ffc9a714610b6a57508063248a9ca314610b385780632f2ff15d14610afb57806336568abe14610ab75780633b129a5614610a7d5780633f4ba83a14610a175780635c975abb146109f55780637ecebe00146109b95780638456cb591461096057806384b0196e1461086857806391d1485414610820578063a217fddf14610806578063a303e58a146101fc578063d547741f146101b8578063d84c09de1461010a5763e63ab1e9146100cc575f80fd5b34610106575f3660031901126101065760206040517f65d7a28e3265b37a6474929f336521b332c1681b933f6cb9f3376673440d862a8152f35b5f80fd5b34610106576020366003190112610106576004355f52600460205260405f2060018060a01b0381541660018201549160028101546040519161015a836101538160038501610c5d565b0384610cde565b6101a467ffffffffffffffff60048301541693600583015492600660018060a01b03910154169360405197889788526020880152604087015260e0606087015260e0860190610bd3565b92608085015260a084015260c08301520390f35b34610106576040366003190112610106576101fa6004356101d7610bbd565b906101f56101f0825f525f602052600160405f20015490565b610db5565b610e75565b005b346101065760a03660031901126101065760043567ffffffffffffffff81116101065761022d903690600401610bf7565b60243567ffffffffffffffff81116101065761024d903690600401610bf7565b60649391933560843567ffffffffffffffff811161010657610273903690600401610bf7565b94909361027e610ef5565b81156107d057831561079f578242116107665761036b9561035c6102b461036293335f52600560205260405f2054953691610d00565b602081519101209660426102c936898d610d00565b602081519101209660405160208101917fd5fbc85d07a5de90715b9e1096f699f69426aa140c37a55c96b4e13d33b184ea83523360408301528b606083015289608083015260443560a08301528860c083015260e082015260e0815261033161010082610cde565b51902061033c610faa565b906040519161190160f01b83526002830152602282015220923691610d00565b906110c6565b90969196611100565b6001600160a01b0385165f9081527f5c91a81dd90adcbb976f07115cdaa60f95931610e4c2893856278a1e5607a9cc602052604090205460ff1615610721576001810180821161070d57335f52600560205260405f20556040519060208201923360601b8452856034840152604435605484015260748301526094820152609481526103f860b482610cde565b51902092835f52600460205267ffffffffffffffff600460405f200154166106d6576040519060e0820182811067ffffffffffffffff8211176106c2576040523382526020820184815260408301604435815261045636868a610d00565b606085019081524267ffffffffffffffff908116608087019081524660a088019081526001600160a01b0387811660c08a01525f8c8152600460205260409020895181546001600160a01b03191692169190911781559551600187015593516002860155915180519182116106c2576104d26003860154610c25565b601f811161067a575b50918995939160209b95938c90601f83116001146105e15791807f07dd21bbaaedccb6c73cb6383e428582b1aa533dee52293b1701d99dd18f92a6999a9492600696945f926105d6575b50508160011b915f199060031b1c19161760038601555b5160048501805467ffffffffffffffff191667ffffffffffffffff9290921691909117905551600584015560c00151910180546001600160a01b0319166001600160a01b03929092169190911790556040516060808252810186905291859060808401375f608086840101526044358883015260018060a01b031660408201526080813395601f80199101168101030190a4604051908152f35b015190508f80610525565b6003869a959493929a015f52895f20905f5b601f19841681106106605750916001917f07dd21bbaaedccb6c73cb6383e428582b1aa533dee52293b1701d99dd18f92a69a9b60069796959483601f19811610610648575b505050811b01600386015561053c565b01515f1960f88460031b161c191690558f8080610638565b818c015183559a8f019a8e9a506001909201918f016105f3565b600386015f5260205f20601f840160051c810191602085106106b8575b601f0160051c01905b8181106106ad57506104db565b5f81556001016106a0565b9091508190610697565b634e487b7160e01b5f52604160045260245ffd5b60405162461bcd60e51b815260206004820152600f60248201526e45766964656e63652065786973747360881b6044820152606490fd5b634e487b7160e01b5f52601160045260245ffd5b60405162461bcd60e51b815260206004820152601a60248201527f496e76616c6964207265766965776572207369676e61747572650000000000006044820152606490fd5b60405162461bcd60e51b815260206004820152601160248201527045787069726564207369676e617475726560781b6044820152606490fd5b60405162461bcd60e51b8152602060048201526009602482015268115b5c1d1e4810d25160ba1b6044820152606490fd5b60405162461bcd60e51b815260206004820152600e60248201526d115b5c1d1e481d1a1c99585d125960921b6044820152606490fd5b34610106575f3660031901126101065760206040515f8152f35b3461010657604036600319011261010657610839610bbd565b6004355f525f60205260405f209060018060a01b03165f52602052602060ff60405f2054166040519015158152f35b34610106575f366003190112610106576109046108a47f0000000000000000000000000000000000000000000000000000000000000000610f10565b6108cd7f0000000000000000000000000000000000000000000000000000000000000000610f73565b6020610912604051926108e08385610cde565b5f84525f368137604051958695600f60f81b875260e08588015260e0870190610bd3565b908582036040870152610bd3565b4660608501523060808501525f60a085015283810360c08501528180845192838152019301915f5b82811061094957505050500390f35b83518552869550938101939281019260010161093a565b34610106575f36600319011261010657610978610d46565b610980610ef5565b600160ff1960035416176003557f62e78cea01bee320cd4e420270b5ea74000d11b0c9f74754ebdbfc544b05a2586020604051338152a1005b34610106576020366003190112610106576004356001600160a01b03811690819003610106575f526005602052602060405f2054604051908152f35b34610106575f36600319011261010657602060ff600354166040519015158152f35b34610106575f36600319011261010657610a2f610d46565b60035460ff811615610a6e5760ff19166003557f5db9ee0a495bf2e6ff9c91a7834c1ba4fdd244a5e8aa4e537bd38aeae4b073aa6020604051338152a1005b638dfc202b60e01b5f5260045ffd5b34610106575f3660031901126101065760206040517fc10c77be35aff266144ed64c26a1fa104bae2f284ae99ac4a34203454704a1858152f35b3461010657604036600319011261010657610ad0610bbd565b336001600160a01b03821603610aec576101fa90600435610e75565b63334bd91960e11b5f5260045ffd5b34610106576040366003190112610106576101fa600435610b1a610bbd565b90610b336101f0825f525f602052600160405f20015490565b610ded565b34610106576020366003190112610106576020610b626004355f525f602052600160405f20015490565b604051908152f35b34610106576020366003190112610106576004359063ffffffff60e01b821680920361010657602091637965db0b60e01b8114908115610bac575b5015158152f35b6301ffc9a760e01b14905083610ba5565b602435906001600160a01b038216820361010657565b805180835260209291819084018484015e5f828201840152601f01601f1916010190565b9181601f840112156101065782359167ffffffffffffffff8311610106576020838186019501011161010657565b90600182811c92168015610c53575b6020831014610c3f57565b634e487b7160e01b5f52602260045260245ffd5b91607f1691610c34565b5f9291815491610c6c83610c25565b8083529260018116908115610cc15750600114610c8857505050565b5f9081526020812093945091925b838310610ca7575060209250010190565b600181602092949394548385870101520191019190610c96565b915050602093945060ff929192191683830152151560051b010190565b90601f8019910116810190811067ffffffffffffffff8211176106c257604052565b92919267ffffffffffffffff82116106c25760405191610d2a601f8201601f191660200184610cde565b829481845281830111610106578281602093845f960137010152565b335f9081527ff7c9542c591017a21c74b6f3fab6263c7952fc0aaf9db4c22a2a04ddc7f8674f602052604090205460ff1615610d7e57565b63e2517d3f60e01b5f52336004527f65d7a28e3265b37a6474929f336521b332c1681b933f6cb9f3376673440d862a60245260445ffd5b5f8181526020818152604080832033845290915290205460ff1615610dd75750565b63e2517d3f60e01b5f523360045260245260445ffd5b5f818152602081815260408083206001600160a01b038616845290915290205460ff16610e6f575f818152602081815260408083206001600160a01b0395909516808452949091528120805460ff19166001179055339291907f2f8788117e7eff1d82e926ec794901d17c78024a50270940304540a733656f0d9080a4600190565b50505f90565b5f818152602081815260408083206001600160a01b038616845290915290205460ff1615610e6f575f818152602081815260408083206001600160a01b0395909516808452949091528120805460ff19169055339291907ff6391f5c32d9c69d2a47ea670b442974b53935d1edc7fd64eb21e047a839171b9080a4600190565b60ff60035416610f0157565b63d93c066560e01b5f5260045ffd5b60ff8114610f565760ff811690601f8211610f475760405191610f34604084610cde565b6020808452838101919036833783525290565b632cd44ac360e21b5f5260045ffd5b50604051610f7081610f69816001610c5d565b0382610cde565b90565b60ff8114610f975760ff811690601f8211610f475760405191610f34604084610cde565b50604051610f7081610f69816002610c5d565b307f00000000000000000000000000000000000000000000000000000000000000006001600160a01b0316148061109d575b15611005577f000000000000000000000000000000000000000000000000000000000000000090565b60405160208101907f8b73c3c69bb8fe3d512ecc4cf759cc79239f7b179b0ffacaa9a75d522b39400f82527f000000000000000000000000000000000000000000000000000000000000000060408201527f000000000000000000000000000000000000000000000000000000000000000060608201524660808201523060a082015260a0815261109760c082610cde565b51902090565b507f00000000000000000000000000000000000000000000000000000000000000004614610fdc565b81519190604183036110f6576110ef9250602082015190606060408401519301515f1a90611174565b9192909190565b50505f9160029190565b60048110156111605780611112575050565b600181036111295763f645eedf60e01b5f5260045ffd5b60028103611144575063fce698f760e01b5f5260045260245ffd5b60031461114e5750565b6335e2f38360e21b5f5260045260245ffd5b634e487b7160e01b5f52602160045260245ffd5b91907f7fffffffffffffffffffffffffffffff5d576e7357a4501ddfe92f46681b20a084116111f6579160209360809260ff5f9560405194855216868401526040830152606082015282805260015afa156111eb575f516001600160a01b038116156111e157905f905f90565b505f906001905f90565b6040513d5f823e3d90fd5b5050505f916003919056fea264697066735822122060c948f07e168e7e5ebe031b7ac98360201fa0f7242a77d84472a89d61fb7a2464736f6c634300081a00332f8788117e7eff1d82e926ec794901d17c78024a50270940304540a733656f0d5c91a81dd90adcbb976f07115cdaa60f95931610e4c2893856278a1e5607a9ccf7c9542c591017a21c74b6f3fab6263c7952fc0aaf9db4c22a2a04ddc7f8674fad3228b676f7d3cd4284a5443f17f1962b36e491b30a40b2405849e597ba5fb5",
  "linkReferences": {},
  "deployedLinkReferences": {}
}