{
  "_format": "hh-sol-artifact-1",
  "contractName": "BountyEscrow",
  "sourceName": "contracts/BountyEscrow.sol",
  "abi": [
    {
      "inputs": [
        {
          "internalType": "address",
          "name": "admin",
          "type": "address"
        }
      ],
      "stateMutability": "nonpayable",
      "type": "constructor"
    },
    {
      "inputs": [],
      "name": "AccessControlBadConfirmation",
      "type": "error"
    },
    {
      "inputs": [
        {
          "internalType": "address",
          "name": "account",
          "type": "address"
        },
        {
          "internalType": "bytes32",
          "name": "neededRole",
          "type": "bytes32"
        }
      ],
      "name": "AccessControlUnauthorizedAccount",
      "type": "error"
    },
    {
      "inputs": [],
      "name": "EnforcedPause",
      "type": "error"
    },
    {
      "inputs": [],
      "name": "ExpectedPause",
      "type": "error"
    },
    {
      "inputs": [],
      "name": "ReentrancyGuardReentrantCall",
      "type": "error"
    },
    {
      "anonymous": false,
      "inputs": [
        {
          "indexed": true,
          "internalType": "uint256",
          "name": "bountyId",
          "type": "uint256"
        },
        {
          "indexed": true,
          "internalType": "address",
          "name": "creator",
          "type": "address"
        },
        {
          "indexed": true,
          "internalType": "address",
          "name": "token",
          "type": "address"
        },
        {
          "indexed": false,
          "internalType": "uint256",
          "name": "amount",
          "type": "uint256"
        },
        {
          "indexed": false,
          "internalType": "uint64",
          "name": "deadline",
          "type": "uint64"
        }
      ],
      "name": "BountyCreated",
      "type": "event"
    },
    {
      "anonymous": false,
      "inputs": [
        {
          "indexed": true,
          "internalType": "uint256",
          "name": "bountyId",
          "type": "uint256"
        },
        {
          "indexed": true,
          "internalType": "address",
          "name": "creator",
          "type": "address"
        },
        {
          "indexed": false,
          "internalType": "uint256",
          "name": "amount",
          "type": "uint256"
        }
      ],
      "name": "BountyRefunded",
      "type": "event"
    },
    {
      "anonymous": false,
      "inputs": [
        {
          "indexed": true,
          "internalType": "uint256",
          "name": "bountyId",
          "type": "uint256"
        },
        {
          "indexed": true,
          "internalType": "address",
          "name": "hunter",
          "type": "address"
        },
        {
          "indexed": false,
          "internalType": "uint256",
          "name": "amount",
          "type": "uint256"
        }
      ],
      "name": "ClaimApproved",
      "type": "event"
    },
    {
      "anonymous": false,
      "inputs": [
        {
          "indexed": true,
          "internalType": "uint256",
          "name": "bountyId",
          "type": "uint256"
        },
        {
          "indexed": true,
          "internalType": "address",
          "name": "caller",
          "type": "address"
        }
      ],
      "name": "ClaimDisputed",
      "type": "event"
    },
    {
      "anonymous": false,
      "inputs": [
        {
          "indexed": true,
          "internalType": "uint256",
          "name": "bountyId",
          "type": "uint256"
        },
        {
          "indexed": true,
          "internalType": "address",
          "name": "hunter",
          "type": "address"
        },
        {
          "indexed": false,
          "internalType": "string",
          "name": "cid",
          "type": "string"
        },
        {
          "indexed": false,
          "internalType": "bytes32",
          "name": "contentHash",
          "type": "bytes32"
        }
      ],
      "name": "ClaimSubmitted",
      "type": "event"
    },
    {
      "anonymous": false,
      "inputs": [
        {
          "indexed": false,
          "internalType": "address",
          "name": "account",
          "type": "address"
        }
      ],
      "name": "Paused",
      "type": "event"
    },
    {
      "anonymous": false,
      "inputs": [
        {
          "indexed": true,
          "internalType": "bytes32",
          "name": "role",
          "type": "bytes32"
        },
        {
          "indexed": true,
          "internalType": "bytes32",
          "name": "previousAdminRole",
          "type": "bytes32"
        },
        {
          "indexed": true,
          "internalType": "bytes32",
          "name": "newAdminRole",
          "type": "bytes32"
        }
      ],
      "name": "RoleAdminChanged",
      "type": "event"
    },
    {
      "anonymous": false,
      "inputs": [
        {
          "indexed": true,
          "internalType": "bytes32",
          "name": "role",
          "type": "bytes32"
        },
        {
          "indexed": true,
          "internalType": "address",
          "name": "account",
          "type": "address"
        },
        {
          "indexed": true,
          "internalType": "address",
          "name": "sender",
          "type": "address"
        }
      ],
      "name": "RoleGranted",
      "type": "event"
    },
    {
      "anonymous": false,
      "inputs": [
        {
          "indexed": true,
          "internalType": "bytes32",
          "name": "role",
          "type": "bytes32"
        },
        {
          "indexed": true,
          "internalType": "address",
          "name": "account",
          "type": "address"
        },
        {
          "indexed": true,
          "internalType": "address",
          "name": "sender",
          "type": "address"
        }
      ],
      "name": "RoleRevoked",
      "type": "event"
    },
    {
      "anonymous": false,
      "inputs": [
        {
          "indexed": false,
          "internalType": "address",
          "name": "account",
          "type": "address"
        }
      ],
      "name": "Unpaused",
      "type": "event"
    },
    {
      "inputs": [],
      "name": "DEFAULT_ADMIN_ROLE",
      "outputs": [
        {
          "internalType": "bytes32",
          "name": "",
          "type": "bytes32"
        }
      ],
      "stateMutability": "view",
      "type": "function"
    },
    {
      "inputs": [],
      "name": "PAUSER_ROLE",
      "outputs": [
        {
          "internalType": "bytes32",
          "name": "",
          "type": "bytes32"
        }
      ],
      "stateMutability": "view",
      "type": "function"
    },
    {
      "inputs": [],
      "name": "REVIEWER_ROLE",
      "outputs": [
        {
          "internalType": "bytes32",
          "name": "",
          "type": "bytes32"
        }
      ],
      "stateMutability": "view",
      "type": "function"
    },
    {
      "inputs": [
        {
          "internalType": "uint256",
          "name": "bountyId",
          "type": "uint256"
        }
      ],
      "name": "approveClaim",
      "outputs": [],
      "stateMutability": "nonpayable",
      "type": "function"
    },
    {
      "inputs": [
        {
          "internalType": "uint256",
          "name": "",
          "type": "uint256"
        }
      ],
      "name": "bounties",
      "outputs": [
        {
          "internalType": "address",
          "name": "creator",
          "type": "address"
        },
        {
          "internalType": "address",
          "name": "token",
          "type": "address"
        },
        {
          "internalType": "uint256",
          "name": "amount",
          "type": "uint256"
        },
        {
          "internalType": "uint64",
          "name": "deadline",
          "type": "uint64"
        },
        {
          "internalType": "enum BountyEscrow.BountyState",
          "name": "state",
          "type": "uint8"
        }
      ],
      "stateMutability": "view",
      "type": "function"
    },
    {
      "inputs": [
        {
          "internalType": "uint256",
          "name": "",
          "type": "uint256"
        }
      ],
      "name": "claims",
      "outputs": [
        {
          "internalType": "address",
          "name": "hunter",
          "type": "address"
        },
        {
          "internalType": "string",
          "name": "cid",
          "type": "string"
        },
        {
          "internalType": "bytes32",
          "name": "contentHash",
          "type": "bytes32"
        },
        {
          "internalType": "bool",
          "name": "exists",
          "type": "bool"
        }
      ],
      "stateMutability": "view",
      "type": "function"
    },
    {
      "inputs": [
        {
          "internalType": "uint64",
          "name": "deadline",
          "type": "uint64"
        }
      ],
      "name": "createNativeBounty",
      "outputs": [
        {
          "internalType": "uint256",
          "name": "bountyId",
          "type": "uint256"
        }
      ],
      "stateMutability": "payable",
      "type": "function"
    },
    {
      "inputs": [
        {
          "internalType": "address",
          "name": "token",
          "type": "address"
        },
        {
          "internalType": "uint256",
          "name": "amount",
          "type": "uint256"
        },
        {
          "internalType": "uint64",
          "name": "deadline",
          "type": "uint64"
        }
      ],
      "name": "createTokenBounty",
      "outputs": [
        {
          "internalType": "uint256",
          "name": "bountyId",
          "type": "uint256"
        }
      ],
      "stateMutability": "nonpayable",
      "type": "function"
    },
    {
      "inputs": [
        {
          "internalType": "uint256",
          "name": "bountyId",
          "type": "uint256"
        }
      ],
      "name": "disputeClaim",
      "outputs": [],
      "stateMutability": "nonpayable",
      "type": "function"
    },
    {
      "inputs": [
        {
          "internalType": "bytes32",
          "name": "role",
          "type": "bytes32"
        }
      ],
      "name": "getRoleAdmin",
      "outputs": [
        {
          "internalType": "bytes32",
          "name": "",
          "type": "bytes32"
        }
      ],
      "stateMutability": "view",
      "type": "function"
    },
    {
      "inputs": [
        {
          "internalType": "bytes32",
          "name": "role",
          "type": "bytes32"
        },
        {
          "internalType": "address",
          "name": "account",
          "type": "address"
        }
      ],
      "name": "grantRole",
      "outputs": [],
      "stateMutability": "nonpayable",
      "type": "function"
    },
    {
      "inputs": [
        {
          "internalType": "bytes32",
          "name": "role",
          "type": "bytes32"
        },
        {
          "internalType": "address",
          "name": "account",
          "type": "address"
        }
      ],
      "name": "hasRole",
      "outputs": [
        {
          "internalType": "bool",
          "name": "",
          "type": "bool"
        }
      ],
      "stateMutability": "view",
      "type": "function"
    },
    {
      "inputs": [],
      "name": "nextBountyId",
      "outputs": [
        {
          "internalType": "uint256",
          "name": "",
          "type": "uint256"
        }
      ],
      "stateMutability": "view",
      "type": "function"
    },
    {
      "inputs": [],
      "name": "pause",
      "outputs": [],
      "stateMutability": "nonpayable",
      "type": "function"
    },
    {
      "inputs": [],
      "name": "paused",
      "outputs": [
        {
          "internalType": "bool",
          "name": "",
          "type": "bool"
        }
      ],
      "stateMutability": "view",
      "type": "function"
    },
    {
      "inputs": [
        {
          "internalType": "uint256",
          "name": "bountyId",
          "type": "uint256"
        }
      ],
      "name": "refundExpiredBounty",
      "outputs": [],
      "stateMutability": "nonpayable",
      "type": "function"
    },
    {
      "inputs": [
        {
          "internalType": "bytes32",
          "name": "role",
          "type": "bytes32"
        },
        {
          "internalType": "address",
          "name": "callerConfirmation",
          "type": "address"
        }
      ],
      "name": "renounceRole",
      "outputs": [],
      "stateMutability": "nonpayable",
      "type": "function"
    },
    {
      "inputs": [
        {
          "internalType": "bytes32",
          "name": "role",
          "type": "bytes32"
        },
        {
          "internalType": "address",
          "name": "account",
          "type": "address"
        }
      ],
      "name": "revokeRole",
      "outputs": [],
      "stateMutability": "nonpayable",
      "type": "function"
    },
    {
      "inputs": [
        {
          "internalType": "uint256",
          "name": "bountyId",
          "type": "uint256"
        },
        {
          "internalType": "string",
          "name": "cid",
          "type": "string"
        },
        {
          "internalType": "bytes32",
          "name": "contentHash",
          "type": "bytes32"
        }
      ],
      "name": "submitClaim",
      "outputs": [],
      "stateMutability": "nonpayable",
      "type": "function"
    },
    {
      "inputs": [
        {
          "internalType": "bytes4",
          "name": "interfaceId",
          "type": "bytes4"
        }
      ],
      "name": "supportsInterface",
      "outputs": [
        {
          "internalType": "bool",
          "name": "",
          "type": "bool"
        }
      ],
      "stateMutability": "view",
      "type": "function"
    },
    {
      "inputs": [],
      "name": "unpause",
      "outputs": [],
      "stateMutability": "nonpayable",
      "type": "function"
    }
  ],
  "bytecode": "0x6080346100a557601f611add38819003918201601f19168301916001600160401b038311848410176100a9578084926020946040528339810103126100a557516001600160a01b03811681036100a5576100959060017f9b779b17422d0df92223018b32b4d1fa46e071723d6817e2486d003becc55f00556001600255610085816100bd565b5061008f81610133565b506101c6565b50604051611803908161025a8239f35b5f80fd5b634e487b7160e01b5f52604160045260245ffd5b6001600160a01b0381165f9081525f80516020611abd833981519152602052604090205460ff1661012e576001600160a01b03165f8181525f80516020611abd83398151915260205260408120805460ff191660011790553391905f80516020611a5d8339815191528180a4600190565b505f90565b6001600160a01b0381165f9081525f80516020611a7d833981519152602052604090205460ff1661012e576001600160a01b03165f8181525f80516020611a7d83398151915260205260408120805460ff191660011790553391907fc10c77be35aff266144ed64c26a1fa104bae2f284ae99ac4a34203454704a185905f80516020611a5d8339815191529080a4600190565b6001600160a01b0381165f9081525f80516020611a9d833981519152602052604090205460ff1661012e576001600160a01b03165f8181525f80516020611a9d83398151915260205260408120805460ff191660011790553391907f65d7a28e3265b37a6474929f336521b332c1681b933f6cb9f3376673440d862a905f80516020611a5d8339815191529080a460019056fe6080806040526004361015610012575f80fd5b5f3560e01c90816301ffc9a714611352575080630f2aff03146110bb578063248a9ca3146110895780632f2ff15d1461104c57806336568abe146110085780633b129a5614610fce5780633f4ba83a14610f6857806346e3013514610ceb5780634b452d3614610ba55780635c975abb14610b8357806375cbbcf0146109145780638456cb59146108bc5780638f7e9eb1146104c057806391d14854146104785780639302f1041461035c578063a217fddf14610342578063a888c2cd14610231578063d547741f146101ed578063dc2f87441461015e578063e63ab1e9146101245763fd14fad414610103575f80fd5b34610120575f366003190112610120576020600254604051908152f35b5f80fd5b34610120575f3660031901126101205760206040517f65d7a28e3265b37a6474929f336521b332c1681b933f6cb9f3376673440d862a8152f35b34610120576020366003190112610120576004355f52600360205260405f2060018060a01b038154166001600160401b0360018060a01b0360018401541692600360028201549101549060ff8260401c16946040519485526020850152604084015216606082015260048210156101d95760a0916080820152f35b634e487b7160e01b5f52602160045260245ffd5b346101205760403660031901126101205761022f60043561020c6113a5565b9061022a610225825f525f602052600160405f20015490565b611652565b611712565b005b34610120576020366003190112610120576004355f52600460205260405f2060018060a01b038154166001820190604051915f93815491610271836113bb565b9081865260208601936001811690815f1461032557506001146102eb575b50506102a08460a09596038661140e565b60ff6003600283015492015416906040519586948552608060208601525180938160808701528686015e5f848401860152604084015215156060830152601f01601f19168101030190f35b9095505f5260205f205f905b86821061030f5750840160200194506102a08461028f565b6001816020925483858a010152019101906102f7565b60ff191685525050151560051b840160200194506102a08461028f565b34610120575f3660031901126101205760206040515f8152f35b3461012057602036600319011261012057600435805f52600360205260405f2060018060a01b0381541633148015610441575b1561040b5760030160ff815460401c1660048110156101d9576103b290156114b4565b815f5260046020526103cd60ff600360405f200154166114f2565b805460ff60401b19166802000000000000000017905533907f8a46e053617eb5508519fd173444f6b34a1a1ddbe2713bff5451ebc7d6203bd25f80a3005b60405162461bcd60e51b815260206004820152600e60248201526d139bdd08185d5d1a1bdc9a5e995960921b6044820152606490fd5b50335f9081527f5c91a81dd90adcbb976f07115cdaa60f95931610e4c2893856278a1e5607a9cc602052604090205460ff1661038f565b34610120576040366003190112610120576104916113a5565b6004355f525f60205260405f209060018060a01b03165f52602052602060ff60405f2054166040519015158152f35b34610120576060366003190112610120576024356004356001600160401b0382116101205736602383011215610120578160040135906001600160401b03821161012057602483019260248336920101116101205760443592610521611792565b5f82815260036020526040902080546001600160a01b031615610886576003015460ff8160401c169060048210156101d9576105656001600160401b0392156114b4565b16421161085057815f52600460205260ff600360405f2001541661080b5782156107d75760405193608085018581106001600160401b038211176107c3576040523385526105b28461146a565b946105c0604051968761140e565b848652848360208801375f60208688010152602081019586526040810190828252606081019160018352855f52600460205260405f209160018060a01b039060018060a01b03905116166bffffffffffffffffffffffff60a01b8354161782556001820197519788516001600160401b0381116107c35761064182546113bb565b601f811161077e575b506020601f82116001146106f55790806003959493927ff975939e3c381cc7adeb624d3922c3f8f9743c4419ea9bb9ab48d999249466f39a9b9c5f926106ea575b50508160011b915f1990871b1c19161790555b516002820155019051151560ff8019835416911617905584604051926040845281604085015260608401375f6060868401015260208201526060813395601f80199101168101030190a3005b015190508c8061068b565b601f1982169a835f52815f209b5f5b81811061076657509b60019284926003989796957ff975939e3c381cc7adeb624d3922c3f8f9743c4419ea9bb9ab48d999249466f39d9e9f1061074f575b505050811b01905561069e565b01515f1983891b60f8161c191690558c8080610742565b838301518e556001909d019c60209384019301610704565b825f5260205f20601f830160051c810191602084106107b9575b601f0160051c01905b8181106107ae575061064a565b5f81556001016107a1565b9091508190610798565b634e487b7160e01b5f52604160045260245ffd5b60405162461bcd60e51b815260206004820152600c60248201526b10d251081c995c5d5a5c995960a21b6044820152606490fd5b60405162461bcd60e51b815260206004820152601760248201527f436c61696d20616c7265616479207375626d69747465640000000000000000006044820152606490fd5b60405162461bcd60e51b815260206004820152600e60248201526d109bdd5b9d1e48195e1c1a5c995960921b6044820152606490fd5b60405162461bcd60e51b815260206004820152600e60248201526d426f756e7479206d697373696e6760901b6044820152606490fd5b34610120575f366003190112610120576108d46115e3565b6108dc611792565b600160ff19815416176001557f62e78cea01bee320cd4e420270b5ea74000d11b0c9f74754ebdbfc544b05a2586020604051338152a1005b34610120576060366003190112610120576004356001600160a01b03811690819003610120576044356001600160401b038116916024358383036101205761095a611792565b8115610b4e5761096b81151561152e565b61097642851161156c565b6040516323b872dd60e01b8152336004820152306024820152604481018290526020816064815f875af1908115610b43575f91610b14575b5015610ad7576002549260018401808511610ac3576002556040516109d2816113f3565b3381526020808201858152604080840186815260608501998a525f608086018181528a8252600395869052929020945185546001600160a01b03199081166001600160a01b0392831617875593516001870180549095169116179092559051600284015596519101805467ffffffffffffffff19166001600160401b039290921691909117815594519460048610156101d957610ab88592610a976020987fef5aa6fec12deed7db95f096e3c3cd32ac01017be011694877ec63f9cba1a2dd9461142f565b604080519586526001600160401b0390911660208601523394918291820190565b0390a4604051908152f35b634e487b7160e01b5f52601160045260245ffd5b60405162461bcd60e51b8152602060048201526015602482015274151bdad95b881d1c985b9cd9995c8819985a5b1959605a1b6044820152606490fd5b610b36915060203d602011610b3c575b610b2e818361140e565b810190611452565b856109ae565b503d610b24565b6040513d5f823e3d90fd5b60405162461bcd60e51b815260206004820152600d60248201526c24b73b30b634b2103a37b5b2b760991b6044820152606490fd5b34610120575f36600319011261012057602060ff600154166040519015158152f35b6020366003190112610120576004356001600160401b0381169081810361012057610bce611792565b610bd934151561152e565b610be442831161156c565b6002549060018201808311610ac357600255604051610c02816113f3565b3381525f602080830182815234604080860191825260608601988952608086018581528886526003948590529420945185546001600160a01b03199081166001600160a01b039283161787559251600187018054909416911617909155516002840155945191909401805467ffffffffffffffff19166001600160401b039290921691909117815592519060048210156101d957610ca35f9260209561142f565b827fef5aa6fec12deed7db95f096e3c3cd32ac01017be011694877ec63f9cba1a2dd60405180610ab8339534839092916001600160401b036020916040840195845216910152565b3461012057602036600319011261012057600435610d076115ab565b335f9081527f5c91a81dd90adcbb976f07115cdaa60f95931610e4c2893856278a1e5607a9cc602052604090205460ff1615610f3157805f52600360205260405f2090805f52600460205260405f206003830160ff815460401c1660048110156101d957610d7590156114b4565b610d8560ff6003840154166114f2565b805460ff60401b19166801000000000000000017905560018301546001600160a01b031680610e6057505f80808060018060a01b038554166002880154905af1610dcd611485565b5015610e2457602060027f0b582d60859bb6c5e17bb049bc83044c0c8dab7d0a026b4e3a4a2966d8926de5925b549401546040519081526001600160a01b0390941693a360015f805160206117ae83398151915255005b60405162461bcd60e51b815260206004820152601460248201527313985d1a5d99481c185e5bdd5d0819985a5b195960621b6044820152606490fd5b8154600285015460405163a9059cbb60e01b81526001600160a01b039092166004830152602482015290602090829060449082905f905af1908115610b43575f91610f12575b5015610ed757602060027f0b582d60859bb6c5e17bb049bc83044c0c8dab7d0a026b4e3a4a2966d8926de592610dfa565b60405162461bcd60e51b8152602060048201526013602482015272151bdad95b881c185e5bdd5d0819985a5b1959606a1b6044820152606490fd5b610f2b915060203d602011610b3c57610b2e818361140e565b84610ea6565b63e2517d3f60e01b5f52336004527fc10c77be35aff266144ed64c26a1fa104bae2f284ae99ac4a34203454704a18560245260445ffd5b34610120575f36600319011261012057610f806115e3565b60015460ff811615610fbf5760ff19166001557f5db9ee0a495bf2e6ff9c91a7834c1ba4fdd244a5e8aa4e537bd38aeae4b073aa6020604051338152a1005b638dfc202b60e01b5f5260045ffd5b34610120575f3660031901126101205760206040517fc10c77be35aff266144ed64c26a1fa104bae2f284ae99ac4a34203454704a1858152f35b34610120576040366003190112610120576110216113a5565b336001600160a01b0382160361103d5761022f90600435611712565b63334bd91960e11b5f5260045ffd5b346101205760403660031901126101205761022f60043561106b6113a5565b90611084610225825f525f602052600160405f20015490565b61168a565b346101205760203660031901126101205760206110b36004355f525f602052600160405f20015490565b604051908152f35b34610120576020366003190112610120576004356110d76115ab565b5f81815260036020526040902080549091906001600160a01b0316330361131f576003820180546001600160401b0381164211156112ea5760401c60ff1660048110156101d95780159081156112df575b50156112aa57805460ff60401b19166803000000000000000017905560018201546001600160a01b03168061120557505f80808060018060a01b038654166002870154905af1611176611485565b50156111c9575b7ff1ed347f033f54c0d6f1589c933d81b4256cf2f72a785106e3653a565f7433a26020600260018060a01b03855416940154604051908152a360015f805160206117ae83398151915255005b60405162461bcd60e51b815260206004820152601460248201527313985d1a5d99481c99599d5b990819985a5b195960621b6044820152606490fd5b8254600284015460405163a9059cbb60e01b81526001600160a01b039092166004830152602482015290602090829060449082905f905af1908115610b43575f9161128b575b5061117d5760405162461bcd60e51b8152602060048201526013602482015272151bdad95b881c99599d5b990819985a5b1959606a1b6044820152606490fd5b6112a4915060203d602011610b3c57610b2e818361140e565b8361124b565b60405162461bcd60e51b815260206004820152600d60248201526c10d85b9b9bdd081c99599d5b99609a1b6044820152606490fd5b600291501484611128565b60405162461bcd60e51b815260206004820152600d60248201526c426f756e74792061637469766560981b6044820152606490fd5b60405162461bcd60e51b815260206004820152600b60248201526a2737ba1031b932b0ba37b960a91b6044820152606490fd5b34610120576020366003190112610120576004359063ffffffff60e01b821680920361012057602091637965db0b60e01b8114908115611394575b5015158152f35b6301ffc9a760e01b1490508361138d565b602435906001600160a01b038216820361012057565b90600182811c921680156113e9575b60208310146113d557565b634e487b7160e01b5f52602260045260245ffd5b91607f16916113ca565b60a081019081106001600160401b038211176107c357604052565b90601f801991011681019081106001600160401b038211176107c357604052565b9060048110156101d95760ff60401b82549160401b169060ff60401b1916179055565b90816020910312610120575180151581036101205790565b6001600160401b0381116107c357601f01601f191660200190565b3d156114af573d906114968261146a565b916114a4604051938461140e565b82523d5f602084013e565b606090565b156114bb57565b60405162461bcd60e51b815260206004820152600f60248201526e2137bab73a3c903737ba1037b832b760891b6044820152606490fd5b156114f957565b60405162461bcd60e51b815260206004820152600d60248201526c436c61696d206d697373696e6760981b6044820152606490fd5b1561153557565b60405162461bcd60e51b815260206004820152600f60248201526e105b5bdd5b9d081c995c5d5a5c9959608a1b6044820152606490fd5b1561157357565b60405162461bcd60e51b815260206004820152601060248201526f111958591b1a5b99481a5b881c185cdd60821b6044820152606490fd5b60025f805160206117ae83398151915254146115d45760025f805160206117ae83398151915255565b633ee5aeb560e01b5f5260045ffd5b335f9081527ff7c9542c591017a21c74b6f3fab6263c7952fc0aaf9db4c22a2a04ddc7f8674f602052604090205460ff161561161b57565b63e2517d3f60e01b5f52336004527f65d7a28e3265b37a6474929f336521b332c1681b933f6cb9f3376673440d862a60245260445ffd5b5f8181526020818152604080832033845290915290205460ff16156116745750565b63e2517d3f60e01b5f523360045260245260445ffd5b5f818152602081815260408083206001600160a01b038616845290915290205460ff1661170c575f818152602081815260408083206001600160a01b0395909516808452949091528120805460ff19166001179055339291907f2f8788117e7eff1d82e926ec794901d17c78024a50270940304540a733656f0d9080a4600190565b50505f90565b5f818152602081815260408083206001600160a01b038616845290915290205460ff161561170c575f818152602081815260408083206001600160a01b0395909516808452949091528120805460ff19169055339291907ff6391f5c32d9c69d2a47ea670b442974b53935d1edc7fd64eb21e047a839171b9080a4600190565b60ff6001541661179e57565b63d93c066560e01b5f5260045ffdfe9b779b17422d0df92223018b32b4d1fa46e071723d6817e2486d003becc55f00a26469706673582212205ab5198bf442c0114116ce640a646d87b3d3ac15ec9f12436be1c85580482db264736f6c634300081a00332f8788117e7eff1d82e926ec794901d17c78024a50270940304540a733656f0d5c91a81dd90adcbb976f07115cdaa60f95931610e4c2893856278a1e5607a9ccf7c9542c591017a21c74b6f3fab6263c7952fc0aaf9db4c22a2a04ddc7f8674fad3228b676f7d3cd4284a5443f17f1962b36e491b30a40b2405849e597ba5fb5",
  "linkReferences": {},
  "deployedLinkReferences": {}
}